:0C2726000102040810204080030203019F
:10268400C2AF53D0E71227B11220E7300703121369
:0226940084229E
:0727AA0075D4A075A8882278
:1020E700E59630E104D21B801EE59630E205122604
:1020F700DE8017E59630E305122259800DE596300C
:10210700E005122449800612255FE4F5960227B1FF
:10255F00759D0DE4F52B1227B11226EF1227B17FCF
:0A256F006E1224671227AA0223232C
:1026DE001227B11226EF12236A7520827FCA0200DA
:0126EE005E8D
:10236A00E4F5F2753C7D753D7D753E01FF74942F51
:10237A00F8E4F674962FF8E4F60FBF02F0754401FC
:01238A002230
:10244900E59630E4067545191227AAE5F354CA44FE
:0E245900C2FF12005E1220B553968E0225C5FA
:1020B50030032EE4F53FE5E430E00353E4FEE5E7C5
:1020C50030E01E53E7FEE53890272E93F5E5E53819
:1020D50090273093FFEF6006E4F5E51F80F743E7AF
:0120E50001F9
:0120E60022D7
:102259001227B143C067759E6075F381120036126B
:102269002696EF20E504EF30E6E675F301759E60EA
:0B2279007F621224671227AA02255F73
:0721D30002100000011200E0
:03000300020026D2
:03002600C2A8323B
:03000B0002000AE6
:01000A0032C3
:0300130002002EBA
:03002E00C2AA3231
:03001B000224BDFF
:1024BD00C0E0C0F0C083C082C0D075D00812198EA4
:0B24CD00D0D0D082D083D0F0D0E0321D
:0300230002004692
:03004600C2AC3217
:03002B0002004E82
:03004E00C2AD320E
:0300330002005672
:03005600C2AE3205
:030043000224D8BC
:1024D800C0E0C0F0C083C082C0D075D0181215A863
:0B24E800D0D0D082D083D0F0D0E03202
:03004B000224F399
:1024F300C0E0C0F0C083C082C0D075D0181215A848
:0B250300D0D0D082D083D0F0D0E032E6
:03005300020006A2
:0400060053A9FB32CD
:03005B0002250E6D
:10250E00C0E0C0F0C083C082C0D075D01812248441
:0B251E00D0D0D082D083D0F0D0E032CB
:030063000225294A
:10252900C0E0C0F0C083C082C0D075D0181219EFC6
:0B253900D0D0D082D083D0F0D0E032B0
:03006B0002000E82
:04000E0053A9DF32E1
:030073000225441F
:10254400C0E0C0F0C083C082C0D075D01812152678
:0B255400D0D0D082D083D0F0D0E03295
:03007B000200166A
:0400160053A97F3239
:10198E00E4F594759355152EE52E7052E512D39409
:10199E000040330511E511700205106450451070BA
:1019AE002CF510F511539EF87814E6FF7004B2C0B2
:1019BE008010EFB40104B2C18008EFB40204B2C0CB
:1019CE00B2C115128007E4F512F510F511D20B75A0
:1019DE002E14300309E545D3940040021545D20C70
:0119EE0022D6
:0F26EF001225DD1227B112277DE4F5950222ADE9
:1025DD00E4F5A8F5A9F5DCF5DDF5B8F5B9F5DAF50D
:0625ED00DBF5DEF5DF2244
:1022AD00E4F59AF59BF59C759D0D759E60F5A4F56D
:1022BD00A2F5A3F5A553A6F87580FF7590FF75B02F
:0822CD00FF75A0FF43C00722CA
:09277D00122082121FA90225F3AB
:10208200E4FF742F2FF8E4F60FBF08F6E478ABF6FE
:10209200FF74AC2FF8E4F60FBF06F6E4FF74B22F1C
:1020A200F8E4F60FBF04F6E4F522752120F5247852
:0220B20017F61F
:0120B4002209
:101FA900E4F527F5267880F618F6F539F538F55170
:101FB900F537F53BF53FF540F541F542F543F54475
:101FC900F545786CF6789276FC7891F678D3F678C0
:071FD900D4760378B9F6226B
:1025F3007F12786DE4F608DFFC12275F7F10788185
:05260300E4F608DFFC15
:0126080022AF
:09275F007F127898E4F608DFFC13
:01276800224E
:0727B100E4F5947593552235
:102696001227B11226498F63122649E563B507F062
:0126A600FF34
:0126A7002210
:102649001227B185C0641227B8E564B5C0F2E56404
:032659005460FFCB
:01265C00225B
:10232300C2AF1227B1439E6075F301752001301BC4
:102333001375F34112236AD207D21BD219C2187F35
:05234300C212005E2241
:03005E008FF322FB
:10246700C2AF75D3FC75D4F053DAF7EF600E1227BD
:0D247700B1E5DA30E3F853DAF71F80EF2209
:0727B80000000000000022F8
:0D003600000000000000000000000000229B
:102609001200360000000000000000000000000079
:0626190000000000002299
:1037FB000211B7000075F0A5C2AF759355E5962081
:10380B00E16230E228E520B44123B52420E521B460
:10381B004B1BE522B44916E523B4521101D5759E15
:10382B006075C07F9037FEE493645A60EF9037FB6E
:10383B00E493B402E7E4F5F0900000758107F5D04E
:10384B000237FB903FBA78207906E5F0B4A5FDE48A
:10385B0093F608A3D9F9E4F51DF51EF51F9037FF74
:10386B0093F52722114E741420C5B330C6B01470D3
:10387B00F7F59EF8741475C0DFD8FE30C6A075C07E
:10388B00BFD8FE20C59875C0FFD8FE30C590B40ACE
:10389B0002F51DB41103751E09B40602F51F7593CD
:1038AB0055D5E0D2D8FE20C50520C60221A67581CC
:1038BB002775C09F7512057D377CFE745AB1BEC249
:1038CB00C5D1C5D2C5D1C530C5F575935575812701
:1038DB00E4F5D0759E6075C07FE596540A600A7555
:1038EB00F301114ED1CF75F3C2513075F3CA7594F4
:1038FB0003E520B441FD652470FE20AFFD759355A3
:10390B00E5DB30E03B53DBFEE5EF5418701C7153E5
:10391B00BB082043EF0453EFFEE5EF20E41571E500
:10392B00516420330E53EFFB01FC20E40E43EF04F4
:10393B0053EFFE43EC0243EF0271F153EFFB01FC3B
:10394B0030E10553DBFD211330E31F53DBF753EF5E
:10395B00FB20300471612170E510B40106E50AF516
:10396B00F2600071F153EFFB01FC30E42C53DBEF01
:10397B00E5EF20E41443EF04203104E5EE700E5321
:10398B00EFFE71F153EFFB01FCD233213E71534338
:10399B00EF0453EFFE71AD218F01FCC2C67594038A
:1039AB00758127513075120575C0FF75935520C56C
:1039BB00FA30C607C2C620C5EF21C174025122B42A
:1039CB003310511DFC511DFDBD5ADDEC70DAF11B9E
:1039DB0021B3B4551679087A08511DF709DAFA792B
:1039EB00087A08E7B1C409DAFA21B3B466FD913756
:1039FB0070FE7A08D18D759355D375C0FF30C5FD18
:103A0B0020C5FD3392C6C370F430C5FDC2C6DAE4DF
:103A1B0021B375C0FF740130C5FD20C5FDA2C633AF
:103A2B0050F5C2C622E4F596F5F2F5267818F6D8CD
:103A3B00FDF5A8F5A9F5DCF5DDF5B8F5B9F5DAF581
:103A4B00DBF5DEF5DFF595F59AF59BF59CF59D1409
:103A5B00F580F590F5A0F5B0227B00E5087012D249
:103A6B0030E509B4050474014187B4095DF52241C1
:103A7B008620E759D230E509B40A09E48BEBF5103F
:103A8B0043EC0122B40943E508B4213EE50BB40233
:103A9B000474024187B403329100B4050CBE062AAC
:103AAB00BF002774047E044187B4060CBE021BBF03
:103ABB00081874067E004187B4410FB5250C913769
:103ACB0060021161B11974084187D23322D23120BF
:103ADB00E534E509B406F3E50B30E502941B60EA27
:103AEB00B4080050E523F8903FAA93FC7D3FE8040F
:103AFB0093FE7F00E50F7009C3EE950E4003E50EB4
:103B0B00FE7512416192B4A1C1D509BEE50BB40398
:103B1B00B99100B40519BE06B1BF00AE7A04E51326
:103B2B00B452A77B028512EA75EA721E1E6185B438
:103B3B00060ABE0295BF08927A066129B4418BB57D
:103B4B0025889137708461927808E5EEF9FB600562
:103B5B00A6ED08D9FB22E5106010EF7008EE600BA4
:0D3B6B00B40802D234E510B405092210346C
:103B780001227B004186B4070E7A087B0071FB7135
:103B88009E912E74074187B409E37198740941879F
:103B9800B1187A087B00EE4F600AEA6007D18DF50C
:103BA800EA0BDAF222E510B40220E509F4551130E7
:103BB800E21453F3F7759E6075C07F11615130753B
:103BC800F301D1C5013885091122B40406910D7B92
:103BD800004186B4060281D7B408EEA101E453DBA4
:103BE80067F5E953ECFD53EFFDE4F510F512F52602
:103BF800D23722AC14AD1522AC0CAD0DAE0EAF0F02
:103C0800E50AF51222E508B405FAE509B477028158
:103C18001BF513B4521E91376008E50BB4FC0C7504
:103C28000A00AC0AAD0B8C148D1522E4F51322E5BD
:103C38002764A522B45706913770F0812AB4560933
:103C4800912AEC4D70E5F51822B47727E513B4579F
:103C5800B371FB7A04790AEE4F600BE513B4570889
:103C6800E7B1C409DAF1812ED18D67600474EE42A0
:103C78001880F0B44116E50AB44B11E50BB4490CB1
:103C8800E50CB45207E50DB44102F52554DFB445FF
:103C98003DE50AB4450D630B4F630C4C630D43912E
:103CA800CCE11BB45A087CFE7D37E50BA1BEB4A558
:103CB80007B5271A7CFF81B0B4FF069137700FA1B2
:103CC8002CB4050A850B1D850C1E850D1F2222E5C7
:103CD8001354FEB4561F103708EB7908FA71FB81AC
:103CE8005FE5096420B5130DE508B40608790AEB09
:103CF800C3940250E775130022EB6014B408004027
:103D0800027408FA7908EE4F6006E7B1C409DAF6DA
:103D180022913770FBEDB45AF7ECB4FE047455A148
:103D28003CB4FF0474AAA13C543CF5F775BE007579
:103D3800BF0074E6F5B3759355751C05E512B40517
:103D480055851CB4751C0A851DB5851EB6E5B3B42A
:103D5800E61AE5F724C8502B8030E5BEB4030050BE
:103D680022048380023800B5BF20A18BB46E14E50D
:103D7800F760E724C8500C24F9500F700DE5BE24F5
:103D8800415007851FB700000000E4F5B3F5B4F50E
:103D9800B5F5B6F5B722B40602A149B441F7A14971
:103DA800EE70011F1E227D007C017438B1BE7400C4
:103DB800B1BE7C007402F5BF8DF7C110F5BFE512E6
:103DC800B44102C108BDFC0A75F73FEC44C0F5BE1A
:103DD800C112ED700FECB40300502575F73724FBC2
:103DE800F5BEC112B4FF09303016EC20E712C11934
:103DF800B43800501CB43708BCFA004003BCFA11B0
:103E0800EDB440005026F5F78CBE746EB13C75F7E2
:103E180000B1A8C1B7B4FE07ECF8E5BFF6C119B404
:103E2800FD08ECF875F700E5BFF2C119B4FFE6EC40
:103E380033745A4001C48CBEC114E583700CE5820A
:103E4800B40300504B9037FBC18AB4FF0A303140AD
:103E5800E58220E73BC186B4FC1575833FEC30E76B
:103E68000644C0F582C1895403FC2418F8C1ADB4D6
:103E78003800500AB43719E582B4FA004012903776
:103E8800FAE493C1B7B1A88C828D83E512B441AA34
:103E9800E583B440005004E493C1B7B4FF02C1B64F
:103EA800B4FE05A882E6C1B7B4FD04758300E00C32
:103EB800BC00090DBDFD011DBD00011D22D1C7D8E3
:103EC800FE759355D9F9227806E4F6D8FD7F40753A
:103ED8001205D18D29F950050ABA00010B759355C1
:0D3EE800BD40EF891B8A1A8B19E94A4B6017
:103EF50006BB3F06BAC0037527A522C2AF53F3F729
:103F0500759355758127B45AFDE4F5D0F5F3759E83
:103F15006075C07F01EA74381454FCFAB130EA7058
:103F2500F7B1AEB1AEC1CF12011001000000080318
:103F35000620100103000000010403090409022200
:103F450000010100A032090400000103010100097C
:103F550021100100012248000705810308000A0518
:103F6500010906A1018507050895087501190129AB
:103F7500089102C00600FF0901A10185051500256C
:103F8500FF1901290575089505B102C00600FF094D
:103F950001A1018506150025FF1A01002A010875F2
:103FA50008960108B102C02C1242223E044B095D5D
:103FB5000754096448414B49524100000000000084
:103FC50000000000000000000000000000000000EC
:103FD50000000000000000000000000000000000DC
:103FE50000000000000000000000000000000000CC
:0B3FF5000000000000000000000000C1
:03000000023800C3
:1011B700000000E59620E10B20E20E20E30B20E083
:0F11C70008800078FFE4F6D8FD7581D702121179
:1023EC0002A00003A001AA02A00203A0020002A006
:0F23FC000302A00503A0030003A006EEA0081A29
:1021DA0001B70001B80002BA000002BC000001B653
:0721EA000001D40301D30042
:1016A40090240AE493FF7B007A0079AA75680122EA
:1016B40090240AE4937A2379ED9023ECFF7BFFE4F2
:1016C40093F56822E6FDC413135402FFEDC45407D6
:1016D400FB7567002290240AE493FF7BFF2278BF06
:1016E400E6C45403F5E508E6F5E508E6F5E52278F1
:1016F400D5EFF6D2AF789122AB5EAA5FA9609000D5
:10170400031217CB9000042290000512179EFF7D50
:021714000122B0
:100973007892E6240F6076147003020A0524FE7051
:1009830003020A18147003020A50147003020A8F38
:10099300147003020A2B24FA7003020A8F240D60D9
:1009A30003020A9AC2AF12185C78D5EFF6D2AF648D
:1009B300FA703278AAE67891602776E0C2AF121611
:1009C300D97A247908756802121E3590240AE493B3
:1009D300FF7B007A00796375680C121B03D2AF802A
:1009E3000876D08004789176D0789276F1C2AF12EF
:1009F3001C5D1216F3BFFA0476E1800276D1789279
:100A030076F2C2AF121CB11216F3BFFA0476E2807B
:100A13003776D28033C2AF1221771216F3BFFA04AE
:100A230076E4800276D48020C2AF90240AE4937ADD
:100A33002479019024001216C0121E351216F3BF3A
:100A4300FA0476E7800276D7789276FC22C2AF1258
:100A53001E7CEF64FA702A90240A93FF7BFF7A24AA
:100A63007905902404E493F568121E35BFFA1078D3
:100A7300AAE67891B4010476E5800A76D5800680EB
:100A830000789176D5789276FCD2AF22E478AAF6F4
:070A9300789276FC7891F6E1
:010A9A002239
:10185C00439D0DC2AF12265D7D017F2012192CBF56
:10186C00FA0E7D017FD112192C7D017F0212192CE9
:10187C001226A8D2AF7F16122467E478AAF678D67F
:10188C00F61216B4121E3578D7EFF6BFFB0280178E
:10189C001216A4121B0378D7EFF6BFFB0280087850
:1018AC00AAE660037FFA227F0512246778D606E643
:0718BC00C3940840CC7FFB40
:0118C3002202
:101C5D001216D97A2379F09023EF121CA5BFFB033E
:101C6D007FFB227F051224671216D97A2379F4900F
:101C7D0023F3121CA5BFFB037FFB221216A4121B1C
:101C8D000378D6EFF6BFFB037FFB2278AAE66455F7
:071C9D0060037FFB227FFAC8
:0D1CA40022E493F568121E3578D6EFF62283
:101CB1001216D97A2379F79023F6121CF9BFFB0388
:101CC1007FFB227F191224671216D97A2379FB90A0
:101CD10023FA121CF9BFFB037FFB221216A4121B6D
:101CE1000378D6EFF6BFFB037FFB2278AAE66455A3
:071CF10060037FFB227FFA74
:0D1CF80022E493F568121E3578D6EFF6222F
:100DA2008B5E8A5F896090000112179E242F602E4D
:100DB2001460492402707490000274A01217CB9040
:100DC20000037414120E69EF64FA700F900002129D
:100DD2000E59120E2E12170C12192C1226A8743448
:100DE2001216FC74A01217CB90000574181217CBC0
:100DF20012265D120E2E12170C02192C1226A8743E
:100E0200A01216FC74041217CB90000574EE120E99
:100E120069EF64FA7012900003120E7D90000412C2
:100E22000E7D900005120E591226A822AB5EAA5F13
:100E3200A96090000312179EFF7D0112192CAB5E70
:100E4200AA5FA96090000412179EFF7D0112192C5F
:100E5200AB5EAA5FA96022AB5EAA5FA96012179E71
:100E6200FF7D0112192C221217CB12265D90240A43
:100E7200E49325E0FF7D0112192C22AB5EAA5FA943
:0B0E82006012179EFF7D0112192C2248
:102177001216D97A2379FE9023FDE493F568121E8F
:102187003578D6EFF6BFFA131216A4121B0378D6CA
:0D219700A60778AAE6B455037FFA227FFB65
:0121A4002218
:101E7C00E478AAF678D6F61216B4121E3578D7EF97
:101E8C00F6BFFB0280171216A4121B0378D7EFF6CD
:101E9C00BFFB02800878AAE660037FFA227F051256
:0D1EAC00246778D606E6C3940840CC7FFB7F
:011EB9002206
:10265D00439D051227B8539DFEC2B0122609539D06
:04266D00FBC2B222D8
:1026A800539DFEC2B01227B8439D04122609439DCC
:0226B8000122FD
:10192C00E4F56AFEEF30E705439D018005539DFE0B
:10193C00C2B0000000000000439D04EF25E0FF0052
:10194C000000000000000000000000539DFBC2B22C
:10195C000EBE08D0000000000000000000000000D7
:10196C00439D01000000000000439D041227B8A213
:10197C00B0E433FD539DFBC2B2BD01037FFB227F5C
:01198C00FA60
:01198D002237
:101BB300E4F56A439D01FE439D04E56A25E0F56A69
:101BC300A2B0E433426A00000000000000000000FD
:101BD3000000539DFBC2B2000000000000000000A3
:101BE3000000000EBE08D0EF6005439D0180055341
:101BF3009DFEC2B01227B8439D041227B8539DFB24
:041C0300C2B2AF6A50
:011C070022BA
:101E35008F648B658A66896712265DE56425E0FFF8
:101E45007D0112192CBFFA23AF681568EF6022AB2C
:101E550065AA66A967121785FF7D0112192C740101
:101E65002567F567E43566F56680DD1226A87FFBF4
:071E7500221226A87FFA22C9
:081B03008F648B658A66896717
:101B0B0012265DE56425E04401FF7D0112192CEFDF
:101B1B0064FA701CF569E56814FFE569C39F500909
:101B2B00E4FF121B47056980ED7F01121B478006FE
:0B1B3B001226A87FFB221226A87FFACA
:101B460022121BB3AB65AA66A967856982758300F5
:051B5600EF1217CB2285
:1012560078CEE6FF5407FE7005EF54186078EEC3AB
:101266009401500778CEE65418606B78C0E6FEC449
:1012760013135402FF78CEE65407FDEE1216D1750D
:1012860068007569BEE6FEC4135401F56A1210556E
:1012960078CEE6FE5407C39402403B78C41216C8C3
:1012A6007568007569C21212DD9403402978C81268
:1012B60016C87568007569C61212DD940440177861
:1012C600CC1216C87568007569CAEEC4135401F5C8
:1012D6006AE4FD12105522EEC4135401F56AE4FDCA
:0B12E60012105578CEE6FE5407C3221C
:061055008F648D658B66BF
:10105B00E4F56BE5E730E306E5E75403600512279B
:10106B00B180F030240302110A78D4E6FF540370E8
:10107B000302110A78CEE654186007EF30E10375CE
:10108B006B01C2AF75E51E78D4E630E04CAB67AAB6
:10109B0068A969AE02AF01EF4E603EE565C454F03E
:1010AB00FFE56BC433333354804FFFE56625E025F2
:1010BB00E04F4564456AF5E590000112179EF5E592
:1010CB00121785F5E590000312179EF5E5900002C7
:1010DB0012179E540FF5E58015E56BC4333333546B
:1010EB00804401F5E5E4F5E5F5E5F5E5F5E5E4F531
:0F10FB00E5F5E5D2AF75E60843E701F53AF545AF
:01110A0022C2
:10228400E5E730E306E5E7540360051227B180F083
:10229400202415C2AF75E5011216E2D2AF75E6042B
:0922A40043E701E4F53AF5452297
:1022FD00E5E730E306E5E7540360051227B180F00A
:10230D00202412C2AF1216E2D2AF75E60343E701E5
:06231D00E4F53AF545224B
:100CB3007563051223CD78B6E6703BE53E60057893
:100CC300B9E6701478B8E6602D120D88BFFB0302F5
:100CD3000D827D017F1C801278B8E66019120D88A1
:100CE300BFFB03020D827D017F1F12192C1226A860
:100CF300D2AFE478B8F630B303020D8778B6E66076
:100D030003020D87120D95BFFB0280737D017F5592
:100D130012192C1226A8120036E53E600578B9E6B2
:100D2300700575630580037563157B007A0079BED2
:100D33008563687F10121B03EF64FA703378BAF689
:100D430008F6D2AFE5E430E306E5E45403600512A8
:100D530027B180F0E53EB4011478D3E6701278B978
:100D6300E67005122284800812125680031222FDB7
:100D7300120D95BFFB0280077D017F1E12192C12F5
:040D830026A8D2AF1D
:100D870022C2AF12265D7D017F2012192C22C2AF2D
:0B0D970012265D7D017F2012192C2226
:1023CD0078B6E6B4011878BD06E618700106D37824
:0F23DD00BDE694D018E694074004E478B6F622E3
:101EBA0012265D7D017F2012192CBFFB02801A7D3C
:101ECA00017F1D12192C1226A812003612265D7DDA
:101EDA00017F2112192CBFFB081226A8E4786CF6A0
:0E1EEA00227F01121BB3786CA6071226A822D5
:10007E001803530049004E004F0020005700450062
:10008E0041004C00540048000004030904200348BA
:10009E0000410049004C00550043004B0020004336
:1000AE00004F002E002C004C0054004400001A0398
:1000BE0055005300420020004B00450059004200FD
:1000CE004F004100520044000058572D4E3134303D
:1000DE00315F414E5F5054505F4D423237375F545F
:1000EE0056332D55532D48312D30392D30300012C9
:1000FE00011001000000088A251E00000101020007
:10010E000105010906A101050719E029E7150025DA
:10011E000175019508810295017508810195037598
:10012E0001050819012903910295057501910195A3
:10013E00067508150026FF00050719002AFF008125
:10014E0000C005010902A10185010901A1000509EF
:10015E0019012903150025019503750181029501E9
:10016E00750581030501093009311581257F750853
:10017E0095028106C0C0050D0905A101851E092243
:10018E00A102150025010947094295027501810258
:10019E009501750225030951810209542507950120
:1001AE007503810205090901250175019501810279
:1001BE00050115002678057510550E6511093035A7
:1001CE000046E00195018102269203464001093165
:1001DE008102C0A102550C66011047FFFF000027E7
:1001EE00FFFF000075109501050D09568102050DE2
:1001FE00851F0955095975049502250FB102050D84
:10020E00852509607501950115002501B102950737
:10021E00B1030600FF852009C5150026FF007508ED
:10022E00960001B102C0C0050D090EA1018522097B
:10023E0022A10209521500250A75089501B102C0C6
:10024E000922A10085230957095875019502250138
:10025E00B1029506B103C0C00601000980A1018557
:10026E00022501150075010A81000A82000A830029
:10027E009503810695058101C0060C000901A101B7
:10028E0085032501150075010AB5000AB6000A6F2F
:10029E00000A70000AE2000AA2000AE9000AEA0057
:1002AE00950881020A83010A94010A86010A8801CF
:1002BE000A8A010A92010AB7000ACD009508810246
:1002CE000A21020A23020A24020A25020A26020A27
:1002DE0027020A2A020AB10295088102C005010905
:1002EE000CA10185091500250109C695017501812D
:1002FE000675078103C00600FF0901A101850615D9
:10030E000025FF1A01002A0F047508960F04B1028A
:10031E00C00600FF0901A1018505150025FF190181
:10032E00290575089505B102C020FC28FE8440CB36
:10033E009A870DBE573CB670098807972D2BE33868
:10034E0034B66CEDB0F7E59CF6C22E841BE8B451C2
:10035E0078431F284B7C2D53AFFC47701B596F748D
:10036E0043C4F34718531AA2A171C7950E315521F4
:10037E00D3B51EE90CBAECB889193EB3AF75819DA1
:10038E0053B94157F46D3925297C87D9B498457DE9
:10039E00A7269C653B856889D73BBDFF1467F22B6A
:1003AE00F02A4154F0FD2C667CF8C08F331303F114
:1003BE00D3C10B89D91B62CD51B780B8AF3A10C1EA
:1003CE008A5BE88A56F08CAAFA35E942C4D855C33E
:1003DE0038CC2B535C6952D5C87302387C73B64146
:1003EE00E7FF05D82B799AE234608FA3321F097884
:1003FE0062BC80E30FBD65200813C1E2EE532D866B
:10040E007EA75AC5D37D98BE31481FFBDAAFA2A88E
:10041E006A89D6BFF2D3322A9AE4CF17B7B8F4E17D
:10042E003308248BC443A5E524C209023B00020114
:10043E0000A032090400000103010100092110018E
:10044E0000012241000705810308000A090401008A
:10045E00010300000009211001000122E701070538
:10046E00820308000AFF1416FF1AA9FF2732FF1D88
:10047E00A2FF2732FF242AFF0A9BFF2732FF259374
:10048E00FF2348FF2200FF1FE0FF2732FF2732FF26
:10049E000BAFFF1D55FF21A5FF2732FF2732FF2788
:1004AE0032FF2732FF2732FF0F78FF1B5BFF2147FA
:1004BE00FF27C5FF27CBFF2786FF14A0FF27D1FFFD
:1004CE0027D7FF27C5FF27C5FF273EFF2749FF2751
:1004DE00DDFF27E3FF27C5FF238BFF2016FF27E94C
:1004EE00FF27EFFF27F5FF278FFF27FBFF2801FFD1
:1004FE000066FF2798FF2807FF006EFF27A1FF2742
:10050E0069FF204CFF2773FF27C5FF26BAFF27C5BB
:0C051E00FF27C5FF27C5FF1A4EFF12F192
:10110B0053DBEFD213AF48EF75F003A424E2F58263
:10111B00E43404F583740193FA740293F92275494C
:10112B000275EB0143B91075E90643EC01227549D1
:10113B0001E4F5EB43B90875E90143EC0122852A7B
:10114B0082852983E493754B00F54C75470722E69E
:10115B00F5EA75490275EB022214F5828C83E49350
:10116B00F5EA0F22C3E54E9408E54D940022754A2B
:10117B000874F8254EF54E74FF354DF54D22F58369
:10118B00740193FA740293F90217EDE493424F75CD
:10119B00480F754901E42243EF0453EFFE22E53675
:0C11AB004535453422052AE52AAC2922EE
:0D270C00E549C394064003E4F549AF4922B6
:10240B008F4AE4FDFCEFFBC3ED9B7480F86C985096
:0E241B000D742F2DF8A6ED0DBD00010C80E70D
:012429002290
:10261F00200302D322E52F64A16008E52F64A26096
:05262F0002D322C322CA
:10263400200302D322E52F64216008E52F64226081
:0526440002D322C322B5
:0627BF00E4F549F5B92222
:1021170043C067E4F5A6F5A3F5A2F5A5F53AF5459D
:1021270085F328C2AF53968E1227B1438702758E67
:102137005500000043F3207F1A12246753F3CF2280
:10152600E4F562E5DF30E103E4F5DFE5DF30E26EA6
:1015360053DFFB1227B1053AAF3AEFC39543405B41
:1015460030034CE53F7008E551653760028016E4CC
:10155600FF74982FF9746D2FF8E64742620FBF1299
:10156600F0E56260095396BFE4F53AD2AB22E4F5A2
:101576009543F310E5A4B4FF1075A0FFE4F580F5DC
:101586009043B00D53B0CF80031225C5122117E446
:10159600F59543F3101225C5122117D2AB22E4F5B7
:0115A600DF65
:0115A7002221
:1015A800C2AFE5EF54186007E5EF20E46E8066E50A
:1015B800EE64087060AFEE12240B1211A2E5EF2062
:1015C800E459E4F5B953DB67F549F5485322F0F5DA
:1015D80047F5E9F53AE52F546024E0601B242070B4
:1015E80037E530C3940D5033AF30EF75F003A424C2
:1015F80073F582E434048015E530C3940C501CAFB5
:1016080030EF75F003A4249AF582E4340412111E15
:101618001217ED80061211A212273253EFFBD2AF38
:01162800229F
:10141600E5356402600302149CE5367079E52F24F5
:101426007F601414602A2402706AE5A47004F5EA49
:10143600804675EA028041E53460028059E533143E
:1014460060050470098021300302801C80488046B4
:10145600E53460028040E5332480600C14600E148D
:10146600601B2482702C8000E4F5EA801C30030B9C
:10147600E5E45402C313F5EAE4800E801930031044
:10148600E5E75402C313F5EAE412115B12112F22A9
:0A1496008004800280001227322239
:101AA900E5327052E52F24FE601024027046E531BC
:101AB900B401057548038032803CE5344531703204
:101AC900E5332480600F146011146018248270209B
:101AD900754804801575480580103003057548065A
:101AE9008008801230030775480A121139228006CE
:0A1AF90080048002800012273222D0
:101DA200E53645354532703FE52F700CE531B4011B
:101DB200057548078029802FE52F64027027E534D6
:101DC20045317021E533547F601B300318E533B48D
:101DD20081057548088008E533B4820775480B12FF
:0B1DE2001139228002800012273222FB
:10242A00E53545364532452F7011E531C394805064
:0F243A000A8531467548011211392212273222C4
:100A9B00E52F64806009E52F64816003020BABE5F1
:100AAB0032546024E07003020B3724206003020BE6
:100ABB00A9E52FB48103020BABE53224FE601914B8
:100ACB00602824027064754B00754C1275290075F3
:100ADB002AFD754701020BA2754B00754C3B75291E
:100AEB0004752A38754702020BA2E53114601614FF
:100AFB00601F2403602714702F752900752A971225
:100B0B001149020BA2752900752A9B121149020B80
:100B1B00A2752900752ABC121149020BA275290076
:100B2B00752A7E121149806F80768074E5347005CA
:100B3B00E52FB480028069E533702DE53224DE6049
:100B4B0014047022754B00754C09752904752A4ADB
:100B5B007547038042754B00754C41752901752A09
:100B6B000F75470480318038E5336401702EE53210
:100B7B0024DE6014047023754B00754C0975290431
:100B8B00752A63754705800F754B01754CE7752901
:100B9B0001752A50754706021629800480028000D1
:040BAB0012273222B9
:10259300E535B40110E536700CE52FB48007853BB3
:0925A300EA12112922122732224A
:10234800E53645354532452F7014E5F26010E53124
:102358006005E531B40107754802121139221227C8
:0223680032221F
:10220000300326E53645347020E5356401701AE563
:102210002F64817014E53370028006E533B4010742
:0D222000E4F5EA1211292280001227322273
:101FE00030032F1211A9453245317026E52F6401C7
:101FF0007020E5337008754809754901800CE53398
:10200000B4010D75480C754901E4F5EB12112F224E
:06201000800012273222BD
:100BAF0012261F5003020CAFE534701FE533701B84
:100BBF00E5317017E532B4020FE52B5407F5EA75EE
:100BCF00490275EB01020C88020CAFE53164057028
:100BDF001BE532B4031675EA057891E6F5EA78AAB3
:100BEF00E6F5EA75490275EB03020C88E531B406A8
:100BFF0021E532B4031CE535B41017E536B4041201
:100C0F00752900752AD7754B00754C257547080255
:100C1F000CAAE531641F7015E532B40310E533B447
:100C2F00010B75EA1F75EA0412115D804CE5316402
:100C3F00257014E532B4030FE533B4010A75EA25C4
:100C4F0078D312115A8032E53164227014E532B430
:100C5F00030FE533B4010A75EA2278B912115A80ED
:100C6F0018E53164237016E532B40311E533B4018E
:100C7F000C75EA2378D412115A12112F22E531B4D0
:100C8F00201CE532B40317E533B401127401F54BA0
:100C9F00F54C752903752A3775470502162980000B
:040CAF0012273222B4
:101D550012261F4044E5364534703CE53564017074
:101D650036E5337009E5317030853CEA8021E5338D
:101D75006401702190272E93B531077894E6F5EA32
:101D8500800D90272FE493B531097895E6F5EA1291
:0D1D950011292280048002800012273222D2
:1021A50012261F4025E5364534701DE5356401705E
:1021B50017E5337005853EEA8008E533B4010785E8
:0E21C50044EA121129228002800012273222E1
:100F78001226345003021051E5346003021054E580
:100F8800367071E5359408506BE53354FE7063E5AF
:100F9800314533700BE532B4020675481202102F42
:100FA800E531B4050FE532B4030AE535B406057535
:100FB80048168073E531B4220AE532B40305754852
:100FC800168064E531B4230AE532B4030575481682
:100FD8008055E531B41F0AE532B40305754816801B
:100FE80046E531B4250AE532B4030575481680375D
:100FF80080578055E53164067020E5326403701A25
:10100800E53664047046E53564107040E5336401E4
:10101800703A7548177549048027E531B4200EE504
:1010280032B40309754816754904E48014E5337031
:1010380016E5317010E532B4020B75481275490592
:0D104800E412113D228002800012273222A6
:101B5B00122634404F1211A97048E5337009E53154
:101B6B00704275480D8010E53364017033E53170B8
:101B7B000B434F0375480F754901801E90272EE4C8
:101B8B0093B53108902726121196800E90272FE4DB
:101B9B0093B5310A90272712119612113D2280041A
:081BAB008002800012273222A3
:1021470012263440271211A94532701EE533700854
:1021570075480E754901800CE533B4010B754810BD
:10216700754901E412113D228002800012273222B4
:0627C50053EFFBD2AF222E
:0627CB001211100217EDCF
:0927860043EC0253EFFBD2AF2239
:1014A000E54E454D607012116F40051211798008AC
:1014B000854E4AE4F54DF54EE54A604FE547604BF1
:1014C000E54764087031E54E454D702BFFE54A2431
:1014D000FEFEEFC39E500C1211B0700205291211CE
:1014E0006480EA786CE6FEC4540F2430F5EAEE54CA
:1014F0000F2430F5EA8014E4FFEFC3954A500C1234
:1015000011B07002052912116480EE854AEB1211A8
:101510002F2012118008301109C211E4F5EB43ECC1
:05152000012243EC0272
:0115250022A3
:0627D10012110B0217EDCE
:0627D70012110B0217EDC8
:0B273E0053DBEFD213E4F5470227BF86
:0B27490053DBEFD213E4F5470227BF7B
:0627DD001211100217EDBD
:0627E3001211100217EDB7
:10238B008546F2E4F53B53E4F753E7F7E5F26008D3
:10239B005320F043208480065320F04320820227F1
:0123AB00BF72
:1020160085313BE53B601453E4FD43E40C53E7FD97
:1020260043E70C5320F0432088801853E4F753E726
:10203600F7E5F260085320F043208480065320F031
:062046004320820227BFC7
:0627E900E4F5A40227BF85
:0627EF0053EFFD0227BFBD
:0627F50053ECFD0227BFBA
:09278F0053E4FD43E40C0227BFF2
:0927980053E7FD43E70C0227BFE3
:0627FB0075A4FF0227BFD8
:0628010043E40E0227BFB4
:0628070043E70E0227BFAB
:030066000227BFAF
:03006E000227BFA7
:0927A10085323C85323D0227BF60
:10204C00E54F5403FFBF0314E4FF74942FF8A6323A
:10205C0074962FF8A6320FBF02F08017E54F30E0D0
:10206C000A7894A6327896A63280087895A63278AB
:06207C0097A6320227BF07
:0A27690085313E78B876010227BFE3
:0A27730085314478B876010227BFD3
:1026BA00E549B4040CE52F5407F52B301303122710
:0226CA00BF222D
:101A4E00E52F64057031E530B47518E5344533453E
:101A5E003245317022C2AF745A75F0A512001ED2F3
:101A6E00AF8014E530B4A0067891760B8009E5308E
:101A7E00B4A1047892A631E52FB4230478D4A6300D
:101A8E00E52FB4250678D3A630800DE52FB42208B5
:0B1A9E0078B9A63078B876010227BFA7
:1012F100E52FB4061FE531B4CC1AE532B4CC15E5BF
:1013010035B4CC10E536B4CC0B7B007A00792F12C2
:101311000DA2806BE52F64EE702DE53164CC702752
:10132100E532B4CC22E533B4CC1DE534B4CC18E5B8
:1013310035B4CC13E536B4CC0E7B007A00792F128C
:101341000DA2E4F54980387D01AF2F12192C7D01E2
:10135100AF3012192C7D01AF3112192C7D01AF3242
:1013610012192C7D01AF3312192C7D01AF341219E2
:101371002C7D01AF3512192C7D01AF3612192CE4E9
:03138100F5B92299
:10248400C2AF43EF0412270CEF75F003A424BEF58A
:0D24940082E4340412118953EFFBD2AF2211
:1019EF00C2AFE5EF30E402802943EF04E5EE602754
:1019FF00E5EEC39409400E1211A243EC0243EF022D
:101A0F001227BF801DAFEE12240B53EFFEE5EF3010
:101A1F00E41553DBF7800B53EFFEE5EF30E408538B
:101A2F00DBF753EFFB801212270CEF75F003A424A2
:0F1A3F00D0F582E4340412118953EFFBD2AF22A9
:10162900AF36EFFEAD357C00E42DFFEC3EFE75498B
:1016390002F54D8F4EE547600FC3E54C9FE54B9E84
:101649005006854B4D854C4E12116F400DE549648E
:10165900026005E549B404020549E54E54077004E2
:10166900D2118002C21112116F400512117980083E
:10167900854E4AE4F54DF54EE54A6018E547601494
:10168900E4FFEFC3954A500C1211B07002052912FC
:0A169900116480EE854AEB12112F58
:0116A3002224
:0C27320043EC0243EF02E4F549F5B92244
:04001E00023F00227B
:0221F100C12803
:1013840012267178B67601E478BAF608F678BCF6D7
:1013940008F612265D7D017FA012192C7D01E4FF61
:1013A40012192C1226A812265D7D017FA112192C78
:1013B4007F01121BB37817A6071226A87817E6B484
:1013C400FF02E4F61227B1122719200305E4F521E0
:1013D40080F2121716121DED786CE6B4F109E4F6EA
:1013E400C2AF121EBAD2AF7891E67005120CB38068
:1013F40003120973300B0EC20B122754E51270C48A
:101404001222D580BF300C05C20C121D051224A176
:0214140080B2A4
:10267100752E1475D3CE53DAF753DAFD75D4A075E0
:03268100A8882204
:0D27190043DD0643A95B43A88053D0E722AF
:0B275400E53C6006D53D03853C3D22BE
:1024A100E551B5370BE4F537F55130090EC2092274
:0C24B1000537E537540FF53712052A22D5
:1022D500539EF8E52B30E006C2C1D21A8004D2C164
:1022E500C21AE52B30E104C2C08002D2C0E52B3012
:0822F500E203C2C222D2C222A0
:1008150000000400020800000000020100000000C2
:1008250000000000000002020139012B0000000059
:1008350000000000000000000000000000000000B3
:1008450000000164010401140000013509290000BC
:100855000204011D0116011A011E00000600000018
:100865000000011B01070108011F0000060100002F
:100875000000010601090115012000000C3C0000E3
:1008850000000119010A01170121000006020000FC
:1008950000000105010B011C0122000006030000F8
:1008A500000001110A000A010123060406050000E3
:1008B50000000A020A030A040A050A0607000000E6
:1008C500000001360A070A080A09070107020000A5
:1008D50000000A0A0A0B0A0C012D0A0D0703000085
:1008E50000000A0E0134012F012E0100070400004B
:1008F500012C022001310130070901280000000008
:100905000240021007050706070707080000000058
:1009150000000000000000000000000000000000D2
:1009250000000000000000000000000000000000C2
:100935003AA53BA63D7F3E8140FE3F80414943535A
:10094500424644474548504A524B514E4F4D2A4C1A
:100955000D59185C10620E5A0C5D2560245F0F5B03
:0E096500125E266137633357135627553854F8
:0C21F3000116000113000115000114008A
:1018C400E56325E02441F582E43409F583E49322B9
:1018D400F583E493FDA20AE433FF22A20AE433FF72
:1018E400AD6322E56325E02435F582E43409F5830C
:1018F400E493FD22E56325E02456F582E4340922CD
:10190400E4F510F5117817E622E56325E02436F5B1
:1019140082E4340922E56325E02442F582E43409B3
:0819240022E4F510F511EF2299
:10052A0074812537F8E6FFC3949040030207E37508
:10053A00F002EFA42415F582E5F03408F583E4937C
:10054A00F56475F002EFA42416F582E5F03408F597
:10055A0083E493F563E56470030207E31223ACE5D1
:10056A0064B40409300A04D2268002C226200A038F
:10057A00020723E564B4020CE563B408047815762F
:10058A0001020731E564B4010302073CE564B403E0
:10059A0003020747E564B40503020752E5646406EB
:1005AA00702030261712190DF583E493FDB4FE0965
:1005BA00302403C22422D2242202076A1218E70234
:1005CA00076AE564640760030206B430260B121951
:1005DA0019F583E493FD02076A7815E670030206AB
:1005EA00AD1218C4B443047F0180027F00EF602972
:1005FA00E47814F67817E6FF30E00B12192554FE5A
:10060A00F675120480091219044401F6751206D20D
:10061A00C0D2C11207E41226A81218C4B444047F37
:10062A000180027F00EF6029781476017817E6FFCF
:10063A0030E10B12192554FDF675120480091219BE
:10064A00044402F6751206D2C0D2C11207E4122679
:10065A00A81218C4B445047F0180027F00EF70031A
:10066A000207E3781476027817E6FF30E20B1219D4
:10067A002554FBF675120480091219044404F67510
:10068A001206D2C0D2C112265D7D017FA012192C9A
:10069A007D01E4FF12192C7817E6FF7D0112192C4F
:1006AA000226A81218C4FD02076AE564640A7029C2
:1006BA0030260B1218F8F583E493FD02076AE56306
:1006CA0025E0301A051218FC80072455F582E43417
:1006DA0009F583E493FD02076AE5646409700A3048
:1006EA002605A20A0207B68049E564640C60030283
:1006FA0007E3302622E5E430E3FBE5E4540370F532
:10070A001207FF121716E5E430E3FBE5E454037021
:10071A00F512080A0207E08019E564B4020FE563DE
:10072A00B40804E47815F61218DF0226CCE564B49E
:10073A0001061218DF0207BAE564B403061218DFCD
:10074A00021EF8E564B405061218DF022579E5648D
:10075A006406701412190D1218D4121C081218E724
:10076A00A20AE433FF0207BAE5646407701112199A
:10077A00191218D4121C081218C41218D88031E59C
:10078A0064640A70191218F81218D4121C08E56366
:10079A0025E02455F582E434091218D48012E56460
:1007AA00B409101218DF121C08A20AE433FF7D668E
:1007BA00021C08E564640C7020A20A33FFAD6312C0
:1007CA001C0812080A121716E5E430E3FBE5E454A4
:0907DA000370F51207FF12171657
:1007E3002212265D7D017FA012192C7D01E4FF12E8
:1007F300192C7817E6FF7D0112192C22A20AE43383
:10080300FF7D081226CC22A20AE433FF7D13121CBB
:020813000822B9
:101C0800EF601FE4FE74AC2EF8E6700974AC2EF891
:101C1800A605D2222274AC2EF8E66D60370EBE06F9
:101C2800E422E4FE74AC2EF8E66D7024EEC394054D
:101C38005017AF06EFC39405500F74AD2FF8E6FCAC
:101C480074AC2FF8A6040F80EBE478B1F6D2222208
:041C58000EBE06D0E6
:011C5C002265
:101EF800ED2450131313541FFE53061F0EED540701
:101F080090272693FBFCEF601074B22EF8E65C7005
:101F18001A74B22EF8E64C800F74B22EF8E65C60A4
:0B1F28000A74B22EF8EBF456F6D2213A
:011F3300228B
:1026CC00D222EF600678ABE64DF622EDF478AB56ED
:0226DC00F622E4
:10257900EF600A78B2E65D7010E64D800978B2E640
:0A2589005D6006EDF456F6D2202244
:101716007817E6FE30E004C2B18002D2B1EE30E1C5
:1017260004C2B68002D2B6EE30E204C2B78002D25C
:10173600B7E5E430E348E5E45403704230223FC2A3
:1017460022E59630E4045396EF22C2AF78ABE6F575
:10175600E2E4F5E230080AFF75E2010FBF06F98000
:101766000DE4FF74AC2FF8E6F5E20FBF06F5D2AF35
:0E17760075E30843E401853C3DE4F53AF54592
:011784002242
:101DED00E5E730E342E5E75403703CE545703830F4
:101DFD002011C220C2AF75E50278B2E6F5E575E6B1
:101E0D0002801A302121C221C2AF75E50378B3E6F5
:101E1D00F5E508E6F5E508E6F5E575E604D2AF4328
:081E2D00E701E4F53AF5452256
:10222D000102040810204080FEFDFBF7EFDFBF7FA9
:10223D00FEFDFBF7EFDFBF7FEFDF000000000000CA
:0C224D0000000101010101010101030377
:0E26FE00E5269022359322540790272693223A
:101D050020094C1217F3300F028041E52770177434
:101D15006D2526F8A6390526E526C394125001221D
:101D25000527E4F52622746D2526F8E66539600257
:101D3500801A0526E526C39412500122121F6F92C0
:101D4500083008028006200903121F3412280D22CC
:1025C500E4F59CF59BF59A539D0D7580FF7590FF7D
:0825D50075A0FFD2B4D2B522BB
:1025AC00E4FEFDEE25E0FEED90222D935F600343EB
:0825BC0006010DBD08EDAF069C
:0125C40022F4
:1017F3001225C5E526C39412505AE5269022479335
:10180300FFC39404504AEF64026045EF7007122649
:10181300FEF5808020E52690224793B40107122627
:10182300FEF59080101226FEB4EF06C2B4D2B58046
:1018330004D2B4C2B51227B885A0391227B8E53946
:10184300B5A0F2AFA01225ACEFF4F539C20F8006B4
:09185300D20F8002D20F0225C55C
:101F6F00E4FFFE746D2EF8E6FD5FFCED4207EC60BA
:101F7F0023C3135455FDEC54552DFC13135433FD4B
:101F8F00EC54332DFCC4540FFDEC540F2DD394019E
:091F9F004002D3220EBE12CBC396
:011FA8002216
:06280D00E4F527F5262288
:101F3400E4F563F56374982563F8E6FF746D25632F
:101F4400F8E6FEB507028019EE6FFFAD63120E8D41
:101F5400500122746D2563F8E6FF74982563F8A692
:0A1F6400070563E563C3941240CB48
:011F6E002250
:040E8D008F648D657C
:100E9100E4F567746D2565F8E6F566E4FF43678060
:100EA100E56725E004F567C20AE56630E702D20A84
:100EB100E56625E0F566E56420E70EBF0702C3227B
:100EC100E56425E0F564020F6CE56425E0F564E571
:100ED10065C394124002D3220551E551540FF551D7
:100EE100E56533333354F84FFE74812551F8A60676
:100EF100E551122705FE200A15E55130E308EEF40D
:100F0100788056F68016EEF4787F56F6800EE5511D
:100F110030E30478808002787FE64EF6E55165374C
:100F21006007EF64077044C322EFC394075017E5CD
:100F31006725E0F56730D7047E0180027E00EE254B
:100F410067F5670F80E3746D2565F8E56756F674FC
:100F51006D2565F974982565F8E567F45647F71529
:100F610051E551540FF551D209C3220FEFC3940833
:060F71005003020E9ED3A6
:010F77002257
:1023AC00E53730E309122705788056FF8009E537B9
:1023BC00122705787F56FFEF7003C38001D3920A72
:0123CC0022EE
:1011D600022684E493A3F8E493A34003F68001F285
:1011E60008DFF48029E493A3F85407240CC8C3331A
:1011F600C4540F4420C8834004F456800146F6DFE9
:10120600E4800B01020408102040809021D3E47E84
:10121600019360BCA3FF543F30E509541FFEE493DD
:10122600A360010ECF54C025E060A840B8E493A3A4
:10123600FAE493A3F8E493A3C8C582C8CAC583CACF
:10124600F0A3C8C582C8CAC583CADFE9DEE780BE87
:0121FF0000DF
:10178500BB010689828A83E0225002E722BBFE0262
:09179500E32289828A83E4932295
:10179E00BB010CE58229F582E5833AF583E0225000
:1017AE0006E92582F8E622BBFE06E92582F8E2224A
:0D17BE00E58229F582E5833AF583E4932264
:1017CB00F8BB010DE58229F582E5833AF583E8F054
:1017DB00225006E92582C8F622BBFE05E92582C800
:0217EB00F222E8
:0617ED008A838982E47387
:00000001FF
