:0C271B00010204081020408003020301AA
:10267900C2AF53D0E71227A61220DC30070312128B
:022689004022ED
:07279F0075D4A075A8882283
:1020DC00E59630E104D21B801EE59630E20512260F
:1020EC00D38017E59630E30512224E800DE596302D
:1020FC00E00512243E8006122554E4F5960227A62C
:10255400759D0DE4F52B1227A61226E41227A67FFB
:0A2564006E12245C12279F02231858
:1026D3001227A61226E412235F7520827FCA020006
:0126E3005E98
:10235F00E4F5F2753C7D753D7D753E01FF74952F5B
:10236F00F8E4F674972FF8E4F60FBF02F075440106
:01237F00223B
:10243E00E59630E40675451912279FE5F354CA4414
:0E244E00C2FF12005E1220AA53968E0225BA1B
:1020AA0030032EE4F53FE5E430E00353E4FEE5E7D0
:1020BA0030E01E53E7FEE53890272393F5E5E5382F
:1020CA0090272593FFEF6006E4F5E51F80F743E7C5
:0120DA000104
:0120DB0022E2
:10224E001227A643C067759E6075F3811200361281
:10225E00268BEF20E504EF30E6E675F301759E6000
:0B226E007F6212245C12279F0225549F
:0721C80002100000011200EB
:03000300020026D2
:03002600C2A8323B
:03000B0002000AE6
:01000A0032C3
:0300130002002EBA
:03002E00C2AA3231
:03001B000224B20A
:1024B200C0E0C0F0C083C082C0D075D008121983BA
:0B24C200D0D0D082D083D0F0D0E03228
:0300230002004692
:03004600C2AC3217
:03002B0002004E82
:03004E00C2AD320E
:0300330002005672
:03005600C2AE3205
:030043000224CDC7
:1024CD00C0E0C0F0C083C082C0D075D01812159D79
:0B24DD00D0D0D082D083D0F0D0E0320D
:03004B000224E8A4
:1024E800C0E0C0F0C083C082C0D075D01812159D5E
:0B24F800D0D0D082D083D0F0D0E032F2
:03005300020006A2
:0400060053A9FB32CD
:03005B0002250378
:10250300C0E0C0F0C083C082C0D075D01812247957
:0B251300D0D0D082D083D0F0D0E032D6
:0300630002251E55
:10251E00C0E0C0F0C083C082C0D075D0181219E4DC
:0B252E00D0D0D082D083D0F0D0E032BB
:03006B0002000E82
:04000E0053A9DF32E1
:030073000225392A
:10253900C0E0C0F0C083C082C0D075D01812151B8E
:0B254900D0D0D082D083D0F0D0E032A0
:03007B000200166A
:0400160053A97F3239
:10198300E4F594759355152EE52E7052E512D39414
:101993000040330511E511700205106450451070C5
:1019A3002CF510F511539EF87814E6FF7004B2C0BD
:1019B3008010EFB40104B2C18008EFB40204B2C0D6
:1019C300B2C115128007E4F512F510F511D20B75AB
:1019D3002E14300309E545D3940040021545D20C7B
:0119E30022E1
:0F26E4001225D21227A6122772E4F5950222A220
:1025D200E4F5A8F5A9F5DCF5DDF5B8F5B9F5DAF518
:0625E200DBF5DEF5DF224F
:1022A200E4F59AF59BF59C759D0D759E60F5A4F578
:1022B200A2F5A3F5A553A6F87580FF7590FF75B03A
:0822C200FF75A0FF43C00722D5
:09277200122077121F9E0225E8D7
:10207700E4FF742F2FF8E4F60FBF08F6E478ACF608
:10208700FF74AD2FF8E4F60FBF06F6E4FF74B32F25
:10209700F8E4F60FBF04F6E4F522752120F524785D
:0220A70017F62A
:0120A9002214
:101F9E00E4F527F5267881F618F6F539F538F5517A
:101FAE00F537F53BF53FF540F541F542F543F54480
:101FBE00F545786DF6789376FC7892F678D4F678C7
:071FCE00D5760378BAF62274
:1025E8007F12786EE4F608DFFC1227547F10788299
:0525F800E4F608DFFC21
:0125FD0022BB
:092754007F127899E4F608DFFC1D
:01275D002259
:0727A600E4F5947593552240
:10268B001227A612263E8F6312263EE563B507F08E
:01269B00FF3F
:01269C00221B
:10263E001227A685C0641227ADE564B5C0F2E56425
:03264E005460FFD6
:012651002266
:10231800C2AF1227A6439E6075F301752001301BDA
:102328001375F34112235FD207D21BD219C2187F4B
:05233800C212005E224C
:03005E008FF322FB
:10245C00C2AF75D3FC75D4F053DAF7EF600E1227C8
:0D246C00A6E5DA30E3F853DAF71F80EF221F
:0727AD000000000000002203
:0D003600000000000000000000000000229B
:1025FE001200360000000000000000000000000085
:06260E00000000000022A4
:1037FB000211A1000075F0A5C2AF759355E5962097
:10380B00E16230E228E520B44123B52420E521B460
:10381B004B1BE522B44916E523B4521101D5759E15
:10382B006075C07F9037FEE493645A60EF9037FB6E
:10383B00E493B402E7E4F5F0900000758107F5D04E
:10384B000237FB903FBA78207906E5F0B4A5FDE48A
:10385B0093F608A3D9F9E4F51DF51EF51F9037FF74
:10386B0093F52722114E741420C5B330C6B01470D3
:10387B00F7F59EF8741475C0DFD8FE30C6A075C07E
:10388B00BFD8FE20C59875C0FFD8FE30C590B40ACE
:10389B0002F51DB41103751E09B40602F51F7593CD
:1038AB0055D5E0D2D8FE20C50520C60221A67581CC
:1038BB002775C09F7512057D377CFE745AB1BEC249
:1038CB00C5D1C5D2C5D1C530C5F575935575812701
:1038DB00E4F5D0759E6075C07FE596540A600A7555
:1038EB00F301114ED1CF75F3C2513075F3CA7594F4
:1038FB0003E520B441FD652470FE20AFFD759355A3
:10390B00E5DB30E03B53DBFEE5EF5418701C7153E5
:10391B00BB082043EF0453EFFEE5EF20E41571E500
:10392B00516420330E53EFFB01FC20E40E43EF04F4
:10393B0053EFFE43EC0243EF0271F153EFFB01FC3B
:10394B0030E10553DBFD211330E31F53DBF753EF5E
:10395B00FB20300471612170E510B40106E50AF516
:10396B00F2600071F153EFFB01FC30E42C53DBEF01
:10397B00E5EF20E41443EF04203104E5EE700E5321
:10398B00EFFE71F153EFFB01FCD233213E71534338
:10399B00EF0453EFFE71AD218F01FCC2C67594038A
:1039AB00758127513075120575C0FF75935520C56C
:1039BB00FA30C607C2C620C5EF21C174025122B42A
:1039CB003310511DFC511DFDBD5ADDEC70DAF11B9E
:1039DB0021B3B4551679087A08511DF709DAFA792B
:1039EB00087A08E7B1C409DAFA21B3B466FD913756
:1039FB0070FE7A08D18D759355D375C0FF30C5FD18
:103A0B0020C5FD3392C6C370F430C5FDC2C6DAE4DF
:103A1B0021B375C0FF740130C5FD20C5FDA2C633AF
:103A2B0050F5C2C622E4F596F5F2F5267818F6D8CD
:103A3B00FDF5A8F5A9F5DCF5DDF5B8F5B9F5DAF581
:103A4B00DBF5DEF5DFF595F59AF59BF59CF59D1409
:103A5B00F580F590F5A0F5B0227B00E5087012D249
:103A6B0030E509B4050474014187B4095DF52241C1
:103A7B008620E759D230E509B40A09E48BEBF5103F
:103A8B0043EC0122B40943E508B4213EE50BB40233
:103A9B000474024187B403329100B4050CBE062AAC
:103AAB00BF002774047E044187B4060CBE021BBF03
:103ABB00081874067E004187B4410FB5250C913769
:103ACB0060021161B11974084187D23322D23120BF
:103ADB00E534E509B406F3E50B30E502941B60EA27
:103AEB00B4080050E523F8903FAA93FC7D3FE8040F
:103AFB0093FE7F00E50F7009C3EE950E4003E50EB4
:103B0B00FE7512416192B4A1C1D509BEE50BB40398
:103B1B00B99100B40519BE06B1BF00AE7A04E51326
:103B2B00B452A77B028512EA75EA721E1E6185B438
:103B3B00060ABE0295BF08927A066129B4418BB57D
:103B4B0025889137708461927808E5EEF9FB600562
:103B5B00A6ED08D9FB22E5106010EF7008EE600BA4
:0D3B6B00B40802D234E510B405092210346C
:103B780001227B004186B4070E7A087B0071FB7135
:103B88009E912E74074187B409E37198740941879F
:103B9800B1187A087B00EE4F600AEA6007D18DF50C
:103BA800EA0BDAF222E510B40220E509F4551130E7
:103BB800E21453F3F7759E6075C07F11615130753B
:103BC800F301D1C5013885091122B40406910D7B92
:103BD800004186B4060281D7B408EEA101E453DBA4
:103BE80067F5E953ECFD53EFFDE4F510F512F52602
:103BF800D23722AC14AD1522AC0CAD0DAE0EAF0F02
:103C0800E50AF51222E508B405FAE509B477028158
:103C18001BF513B4521E91376008E50BB4FC0C7504
:103C28000A00AC0AAD0B8C148D1522E4F51322E5BD
:103C38002764A522B45706913770F0812AB4560933
:103C4800912AEC4D70E5F51822B47727E513B4579F
:103C5800B371FB7A04790AEE4F600BE513B4570889
:103C6800E7B1C409DAF1812ED18D67600474EE42A0
:103C78001880F0B44116E50AB44B11E50BB4490CB1
:103C8800E50CB45207E50DB44102F52554DFB445FF
:103C98003DE50AB4450D630B4F630C4C630D43912E
:103CA800CCE11BB45A087CFE7D37E50BA1BEB4A558
:103CB80007B5271A7CFF81B0B4FF069137700FA1B2
:103CC8002CB4050A850B1D850C1E850D1F2222E5C7
:103CD8001354FEB4561F103708EB7908FA71FB81AC
:103CE8005FE5096420B5130DE508B40608790AEB09
:103CF800C3940250E775130022EB6014B408004027
:103D0800027408FA7908EE4F6006E7B1C409DAF6DA
:103D180022913770FBEDB45AF7ECB4FE047455A148
:103D28003CB4FF0474AAA13C543CF5F775BE007579
:103D3800BF0074E6F5B3759355751C05E512B40517
:103D480055851CB4751C0A851DB5851EB6E5B3B42A
:103D5800E61AE5F724C8502B8030E5BEB4030050BE
:103D680022048380023800B5BF20A18BB46E14E50D
:103D7800F760E724C8500C24F9500F700DE5BE24F5
:103D8800415007851FB700000000E4F5B3F5B4F50E
:103D9800B5F5B6F5B722B40602A149B441F7A14971
:103DA800EE70011F1E227D007C017438B1BE7400C4
:103DB800B1BE7C007402F5BF8DF7C110F5BFE512E6
:103DC800B44102C108BDFC0A75F73FEC44C0F5BE1A
:103DD800C112ED700FECB40300502575F73724FBC2
:103DE800F5BEC112B4FF09303016EC20E712C11934
:103DF800B43800501CB43708BCFA004003BCFA11B0
:103E0800EDB440005026F5F78CBE746EB13C75F7E2
:103E180000B1A8C1B7B4FE07ECF8E5BFF6C119B404
:103E2800FD08ECF875F700E5BFF2C119B4FFE6EC40
:103E380033745A4001C48CBEC114E583700CE5820A
:103E4800B40300504B9037FBC18AB4FF0A303140AD
:103E5800E58220E73BC186B4FC1575833FEC30E76B
:103E68000644C0F582C1895403FC2418F8C1ADB4D6
:103E78003800500AB43719E582B4FA004012903776
:103E8800FAE493C1B7B1A88C828D83E512B441AA34
:103E9800E583B440005004E493C1B7B4FF02C1B64F
:103EA800B4FE05A882E6C1B7B4FD04758300E00C32
:103EB800BC00090DBDFD011DBD00011D22D1C7D8E3
:103EC800FE759355D9F9227806E4F6D8FD7F40753A
:103ED8001205D18D29F950050ABA00010B759355C1
:0D3EE800BD40EF891B8A1A8B19E94A4B6017
:103EF50006BB3F06BAC0037527A522C2AF53F3F729
:103F0500759355758127B45AFDE4F5D0F5F3759E83
:103F15006075C07F01EA74381454FCFAB130EA7058
:103F2500F7B1AEB1AEC1CF12011001000000080318
:103F35000620100103000000010403090409022200
:103F450000010100A032090400000103010100097C
:103F550021100100012248000705810308000A0518
:103F6500010906A1018507050895087501190129AB
:103F7500089102C00600FF0901A10185051500256C
:103F8500FF1901290575089505B102C00600FF094D
:103F950001A1018506150025FF1A01002A010875F2
:103FA50008960108B102C02C1242223E044B095D5D
:103FB5000754096448414B49524100000000000084
:103FC50000000000000000000000000000000000EC
:103FD50000000000000000000000000000000000DC
:103FE50000000000000000000000000000000000CC
:0B3FF5000000000000000000000000C1
:03000000023800C3
:1011A100000000E59620E10B20E20E20E30B20E099
:0F11B10008800078FFE4F6D8FD7581D80211FBA5
:1023E10002A00003A001AA02A00203A0020002A011
:0F23F1000302A00503A0030003A006EEA0081A34
:1021CF0001B80001B90002BB000002BD000001B759
:0721DF000001D50301D4004B
:101699009023FFE493FF7B007A0079AB75690122FF
:1016A9009023FFE4937A2379E29023E1FF7BFFE41F
:1016B90093F56922E6FDC413135402FFEDC45407E0
:1016C900FB756800229023FFE493FF7BFF2278C01B
:1016D900E6C45403F5E508E6F5E508E6F5E52278FC
:1016E900D6EFF6D2AF789222AB5EAA5FA9609000DE
:1016F900031217C090000422900005121793FF7D72
:021709000122BB
:100973007893E6240F6076147003020A0524FE7050
:1009830003020A18147003020A50147003020A8F38
:10099300147003020A2B24FA7003020A8F240D60D9
:1009A30003020A9AC2AF12185178D6EFF6D2AF6497
:1009B300FA703278ABE67892602776E0C2AF12160F
:1009C300CE7A2379FD756902121E2A9023FFE493E0
:1009D300FF7B007A00796475690C121AF8D2AF8034
:1009E3000876D08004789276D0789376F1C2AF12ED
:1009F3001C521216E8BFFA0476E1800276D178938E
:100A030076F2C2AF121CA61216E8BFFA0476E28091
:100A13003776D28033C2AF12216C1216E8BFFA04C4
:100A230076E4800276D48020C2AF9023FFE4937AE9
:100A33002379F69023F51216B5121E2A1216E8BF73
:100A4300FA0476E7800276D7789376FC22C2AF1257
:100A53001E71EF64FA702A9023FF93FF7BFF7A23C2
:100A630079FA9023F9E493F569121E2ABFFA1078F4
:100A7300ABE67892B4010476E5800A76D5800680E9
:100A830000789276D5789376FCD2AF22E478ABF6F1
:070A9300789376FC7892F6DF
:010A9A002239
:10185100C2AF1226527D017F20121921BFFA0E7DDF
:10186100017FD11219217D017F0512192112269DB7
:10187100D2AF439D0D7F1612245CE478ABF678D786
:10188100F61216A9121E2A78D8EFF6BFFB028017AE
:10189100121699121AF878D8EFF6BFFB0280087871
:1018A100ABE660037FFA227F0512245C78D706E657
:0718B100C394C840CC7FFB8B
:0118B800220D
:101C52001216CE7A2379E59023E4121C9ABFFB0375
:101C62007FFB227F0512245C1216CE7A2379E9903B
:101C720023E8121C9ABFFB037FFB22121699121A49
:101C8200F878D7EFF6BFFB037FFB2278ABE664550B
:071C920060037FFB227FFAD3
:0D1C990022E493F569121E2A78D7EFF62297
:101CA6001216CE7A2379EC9023EB121CEEBFFB03BF
:101CB6007FFB227F1912245C1216CE7A2379F090CC
:101CC60023EF121CEEBFFB037FFB22121699121A9A
:101CD600F878D7EFF6BFFB037FFB2278ABE66455B7
:071CE60060037FFB227FFA7F
:0D1CED0022E493F569121E2A78D7EFF62243
:100CB3008B5E8A5F8960900001121793242F602E48
:100CC3001460492402707490000274A01217C0903B
:100CD30000037414120D7AEF64FA700F900002127D
:100CE3000D6A120D3F12170112192112269D743439
:100CF3001216F174A01217C090000574181217C0D1
:100D0300122652120D3F12170102192112269D7449
:100D1300A01216F174041217C090000574EE120DA0
:100D23007AEF64FA7012900003120D8E9000041291
:100D33000D8E900005120D6A12269D22AB5EAA5FEE
:100D4300A960900003121793FF7D01121921AB5E76
:100D5300AA5FA960900004121793FF7D0112192165
:100D6300AB5EAA5FA96022AB5EAA5FA9601217936C
:100D7300FF7D01121921221217C01226529023FF60
:100D8300E49325E0FF7D0112192122AB5EAA5FA93E
:0B0D930060121793FF7D01121921224E
:10216C001216CE7A2379F39023F2E493F569121EBA
:10217C002A78D7EFF6BFFA13121699121AF878D7F5
:0D218C00A60778ABE6B455037FFA227FFB6F
:012199002223
:101E7100E478ABF678D7F61216A9121E2A78D8EFB5
:101E8100F6BFFB028017121699121AF878D8EFF6EE
:101E9100BFFB02800878ABE660037FFA227F051260
:0D1EA100245C78D706E6C3940840CC7FFB94
:011EAE002211
:10265200439D051227AD539DFEC2B01225FE539D28
:04266200FBC2B222E3
:10269D00539DFEC2B01227AD439D041225FE439DEE
:0226AD00012208
:10192100E4F56BFEEF30E705439D018005539DFE15
:10193100C2B0000000000000439D04EF25E0FF005D
:101941000000000000000000000000539DFBC2B237
:101951000EBE08D0000000000000000000000000E2
:10196100439D01000000000000439D041227ADA229
:10197100B0E433FD539DFBC2B2BD01037FFB227F67
:01198100FA6B
:011982002242
:101BA800E4F56B439D01FE439D04E56B25E0F56B71
:101BB800A2B0E433426B0000000000000000000007
:101BC8000000539DFBC2B2000000000000000000AE
:101BD8000000000EBE08D0EF6005439D018005534C
:101BE8009DFEC2B01227AD439D041227AD539DFB45
:041BF800C2B2AF6B5B
:011BFC0022C6
:101E2A008F658B668A678968122652E56525E0FF09
:101E3A007D01121921BFFA23AF691569EF6022AB40
:101E4A0066AA67A96812177AFF7D0112192174011F
:101E5A002568F568E43567F56780DD12269D7FFB06
:071E6A002212269D7FFA22DF
:081AF8008F658B668A6789681F
:101B0000122652E56525E04401FF7D01121921EFFF
:101B100064FA701CF56AE56914FFE56AC39F500911
:101B2000E4FF121B3C056A80ED7F01121B3C80061E
:0B1B300012269D7FFB2212269D7FFAEB
:101B3B0022121BA8AB66AA67A968856A8275830007
:051B4B00EF1217C0229B
:1012DD0078CFE6FF5407FE7005EF54186078EEC323
:1012ED009401500778CFE65418606B78C1E6FEC4C0
:1012FD0013135402FF78CFE65407FDEE1216C67590
:10130D006900756ABFE6FEC4135401F56B12103FF8
:10131D0078CFE6FE5407C39402403B78C51216BD44
:10132D00756900756AC31213649403402978C91254
:10133D0016BD756900756AC7121364940440177859
:10134D00CD1216BD756900756ACBEEC4135401F547
:10135D006BE4FD12103F22EEC4135401F56BE4FD56
:0B136D0012103F78CFE6FE5407C322A9
:06103F008F658D668B67D2
:10104500E4F56CE5E730E306E5E7540360051227B0
:10105500A680F03024030210F478D5E6FF5403701F
:10106500030210F478CFE654186007EF30E10375FA
:101075006C01C2AF75E51E78D5E630E04CAB68AAC9
:1010850069A96AAE02AF01EF4E603EE566C454F051
:10109500FFE56CC433333354804FFFE56725E02506
:1010A500E04F4565456BF5E5900001121793F5E5B1
:1010B50012177AF5E5900003121793F5E5900002F3
:1010C500121793540FF5E58015E56CC4333333548B
:1010D500804401F5E5E4F5E5F5E5F5E5F5E5E4F547
:0F10E500E5F5E5D2AF75E60843E701F53AF545C5
:0110F40022D9
:10227900E5E730E306E5E7540360051227A680F099
:10228900202415C2AF75E5011216D7D2AF75E60441
:0922990043E701E4F53AF54522A2
:1022F200E5E730E306E5E7540360051227A680F020
:10230200202412C2AF1216D7D2AF75E60343E701FB
:06231200E4F53AF5452256
:100F66007564051223C278B7E6703BE53E600578E6
:100F7600BAE6701478B9E6602D121025BFFB03029D
:100F8600101F7D017F1C801278B9E66019121025AA
:100F9600BFFB0302101F7D017F1F12192112269D20
:100FA600D2AFE478B9F620B37578B7E67070121050
:100FB60032BFFB0280637D017F5512192112269DE7
:100FC600120036E53E600578BAE670057564058060
:100FD600037564157B007A0079BF8564697F1012FA
:100FE6001AF8EF64FA702378BBF608F6D2AFE53E3E
:100FF600B4011478D4E6701278BAE6700512227934
:1010060080081212DD80031222F2121032BFFB0298
:0E10160080077D017F1E12192112269DD2AF88
:1010240022C2AF1226527D017F2012192122C2AFA3
:0B1034001226527D017F20121921229C
:1023C20078B7E6B4011878BE06E618700106D3782D
:0F23D200BEE694D018E694074004E478B7F622EC
:101EAF001226527D017F20121921BFFB02801A7D5D
:101EBF00017F1D12192112269D1200361226527D06
:101ECF00017F21121921BFFB0812269DE4786DF6C0
:0E1EDF00227F01121BA8786DA60712269D22F5
:10007E001803530049004E004F0020005700450062
:10008E0041004C00540048000004030904200348BA
:10009E0000410049004C00550043004B0020004336
:1000AE00004F002E002C004C0054004400001A0398
:1000BE0055005300420020004B00450059004200FD
:1000CE004F004100520044000058572D4E3134303D
:1000DE00315F414E5F5054505F4D423237375F545F
:1000EE0056332D55532D48312D31322D30300012CF
:1000FE00011001000000088A251E00000101020007
:10010E000105010906A101050719E029E7150025DA
:10011E000175019508810295017508810195037598
:10012E0001050819012903910295057501910195A3
:10013E00067508150026FF00050719002AFF008125
:10014E0000C005010902A10185010901A1000509EF
:10015E0019012903150025019503750181029501E9
:10016E00750581030501093009311581257F750853
:10017E0095028106C0C0050D0905A101851E092243
:10018E00A102150025010947094295027501810258
:10019E009501750225030951810209542507950120
:1001AE007503810205090901250175019501810279
:1001BE00050115002678057510550E6511093035A7
:1001CE000046E00195018102269203464001093165
:1001DE008102C0A102550C66011047FFFF000027E7
:1001EE00FFFF000075109501050D09568102050DE2
:1001FE00851F0955095975049502250FB102050D84
:10020E00852509607501950115002501B102950737
:10021E00B1030600FF852009C5150026FF007508ED
:10022E00960001B102C0C0050D090EA1018522097B
:10023E0022A10209521500250A75089501B102C0C6
:10024E000922A10085230957095875019502250138
:10025E00B1029506B103C0C00601000980A1018557
:10026E00022501150075010A81000A82000A830029
:10027E009503810695058101C0060C000901A101B7
:10028E0085032501150075010AB5000AB6000A6F2F
:10029E00000A70000AE2000AA2000AE9000AEA0057
:1002AE00950881020A83010A94010A86010A8801CF
:1002BE000A8A010A92010AB7000ACD009508810246
:1002CE000A21020A23020A24020A25020A26020A27
:1002DE0027020A2A020AB10295088102C005010905
:1002EE000CA10185091500250109C695017501812D
:1002FE000675078103C00600FF0901A101850615D9
:10030E000025FF1A01002A0F047508960F04B1028A
:10031E00C00600FF0901A1018505150025FF190181
:10032E00290575089505B102C020FC28FE8440CB36
:10033E009A870DBE573CB670098807972D2BE33868
:10034E0034B66CEDB0F7E59CF6C22E841BE8B451C2
:10035E0078431F284B7C2D53AFFC47701B596F748D
:10036E0043C4F34718531AA2A171C7950E315521F4
:10037E00D3B51EE90CBAECB889193EB3AF75819DA1
:10038E0053B94157F46D3925297C87D9B498457DE9
:10039E00A7269C653B856889D73BBDFF1467F22B6A
:1003AE00F02A4154F0FD2C667CF8C08F331303F114
:1003BE00D3C10B89D91B62CD51B780B8AF3A10C1EA
:1003CE008A5BE88A56F08CAAFA35E942C4D855C33E
:1003DE0038CC2B535C6952D5C87302387C73B64146
:1003EE00E7FF05D82B799AE234608FA3321F097884
:1003FE0062BC80E30FBD65200813C1E2EE532D866B
:10040E007EA75AC5D37D98BE31481FFBDAAFA2A88E
:10041E006A89D6BFF2D3322A9AE4CF17B7B8F4E17D
:10042E003308248BC443A5E524C209023B00020114
:10043E0000A032090400000103010100092110018E
:10044E0000012241000705810308000A090401008A
:10045E00010300000009211001000122E701070538
:10046E00820308000AFF140BFF1A9EFF2727FF1DA9
:10047E0097FF2727FF241FFF0A9BFF2727FF2588AB
:10048E00FF233DFF21F5FF1FD5FF2727FF2727FF5E
:10049E000BAFFF1D4AFF219AFF2727FF2727FF27B4
:1004AE0027FF2727FF2727FF0E89FF1B50FF213C21
:1004BE00FF27BAFF27C0FF277BFF1495FF27C6FF34
:1004CE0027CCFF27BAFF27BAFF2733FF273EFF2788
:1004DE00D2FF27D8FF27BAFF2380FF200BFF27DE8E
:1004EE00FF27E4FF27EAFF2784FF27F0FF27F6FF09
:1004FE000066FF278DFF27FCFF006EFF2796FF2764
:10050E005EFF2041FF2768FF27BAFF26AFFF27BAFD
:0C051E00FF27BAFF27BAFF1A43FF13782B
:1010F50053DBEFD213AF48EF75F003A424E2F5827A
:10110500E43404F583740193FA740293F922754962
:101115000275EB0143B91075E90643EC01227549E7
:1011250001E4F5EB43B90875E90143EC0122852A91
:1011350082852983E493754B00F54C75470722E6B4
:10114500F5EA75490275EB022214F5828C83E49366
:10115500F5EA0F22C3E54E9408E54D940022754A41
:101165000874F8254EF54E74FF354DF54D22F5837F
:10117500740193FA740293F90217E2E493424F75EE
:10118500480F754901E42243EF0453EFFE22E5368B
:0C1195004535453422052AE52AAC292204
:0D270100E549C394064003E4F549AF4922C1
:102400008F4AE4FDFCEFFBC3ED9B7480F86C9850A1
:0E2410000D742F2DF8A6ED0DBD00010C80E718
:01241E00229B
:10261400200302D322E52F64A16008E52F64A260A1
:0526240002D322C322D5
:10262900200302D322E52F64216008E52F6422608C
:0526390002D322C322C0
:0627B400E4F549F5B9222D
:10210C0043C067E4F5A6F5A3F5A2F5A5F53AF545A8
:10211C0085F328C2AF53968E1227A6438702758E7D
:10212C005500000043F3207F1A12245C53F3CF2296
:10151B00E4F562E5DF30E103E4F5DFE5DF30E26EB1
:10152B0053DFFB1227A6053AAF3AEFC39543405B57
:10153B0030034CE53F7008E551653760028016E4D7
:10154B00FF74992FF9746E2FF8E64742620FBF12A2
:10155B00F0E56260095396BFE4F53AD2AB22E4F5AD
:10156B009543F310E5A4B4FF1075A0FFE4F580F5E7
:10157B009043B00D53B0CF80031225BA12210CE467
:10158B00F59543F3101225BA12210CD2AB22E4F5D8
:01159B00DF70
:01159C00222C
:10159D00C2AFE5EF54186007E5EF20E46E8066E515
:1015AD00EE64087060AFEE12240012118CE5EF208E
:1015BD00E459E4F5B953DB67F549F5485322F0F5E5
:1015CD0047F5E9F53AE52F546024E0601B242070BF
:1015DD0037E530C3940D5033AF30EF75F003A424CD
:1015ED0073F582E434048015E530C3940C501CAFC0
:1015FD0030EF75F003A4249AF582E4340412110837
:10160D001217E2800612118C12272753EFFBD2AF6F
:01161D0022AA
:10140B00E53564026003021491E5367079E52F240B
:10141B007F601414602A2402706AE5A47004F5EA54
:10142B00804675EA028041E53460028059E5331449
:10143B0060050470098021300302801C80488046BF
:10144B00E53460028040E5332480600C14600E1498
:10145B00601B2482702C8000E4F5EA801C30030BA7
:10146B00E5E45402C313F5EAE4800E80193003104F
:10147B00E5E75402C313F5EAE412114512111922E0
:0A148B00800480028000122727224F
:101A9E00E5327052E52F24FE601024027046E531C7
:101AAE00B401057548038032803CE534453170320F
:101ABE00E5332480600F14601114601824827020A6
:101ACE007548048015754805801030030575480665
:101ADE008008801230030775480A121123228006EF
:0A1AEE0080048002800012272722E6
:101D9700E53645354532703FE52F700CE531B40126
:101DA700057548078029802FE52F64027027E534E1
:101DB70045317021E533547F601B300318E533B498
:101DC70081057548088008E533B4820775480B120A
:0B1DD700112322800280001227272227
:10241F00E53545364532452F7011E531C39480506F
:0F242F000A8531467548011211232212272722F0
:100A9B00E52F64806009E52F64816003020BABE5F1
:100AAB0032546024E07003020B3724206003020BE6
:100ABB00A9E52FB48103020BABE53224FE601914B8
:100ACB00602824027064754B00754C1275290075F3
:100ADB002AFD754701020BA2754B00754C3B75291E
:100AEB0004752A38754702020BA2E53114601614FF
:100AFB00601F2403602714702F752900752A971225
:100B0B001133020BA2752900752A9B121133020BAC
:100B1B00A2752900752ABC121133020BA27529008C
:100B2B00752A7E121133806F80768074E5347005E0
:100B3B00E52FB480028069E533702DE53224DE6049
:100B4B0014047022754B00754C09752904752A4ADB
:100B5B007547038042754B00754C41752901752A09
:100B6B000F75470480318038E5336401702EE53210
:100B7B0024DE6014047023754B00754C0975290431
:100B8B00752A63754705800F754B01754CE7752901
:100B9B0001752A5075470602161E800480028000DC
:040BAB0012272722C4
:10258800E535B40110E536700CE52FB48007853BBE
:09259800EA121113221227272276
:10233D00E53645354532452F7014E5F26010E5312F
:10234D006005E531B40107754802121123221227E9
:02235D00272235
:1021F500300326E53645347020E5356401701AE56F
:102205002F64817014E53370028006E533B401074D
:0D221500E4F5EA121113228000122727229F
:101FD50030032F121193453245317026E52F6401E8
:101FE5007020E5337008754809754901800CE533A3
:101FF500B4010D75480C754901E4F5EB1211192270
:06200500800012272722D3
:100BAF001226145003020CAFE534701FE533701B8F
:100BBF00E5317017E532B4020FE52B5407F5EA75EE
:100BCF00490275EB01020C88020CAFE53164057028
:100BDF001BE532B4031675EA057892E6F5EA78ABB1
:100BEF00E6F5EA75490275EB03020C88E531B406A8
:100BFF0021E532B4031CE535B41017E536B4041201
:100C0F00752900752AD7754B00754C257547080255
:100C1F000CAAE531641F7015E532B40310E533B447
:100C2F00010B75EA1F75EA04121147804CE5316418
:100C3F00257014E532B4030FE533B4010A75EA25C4
:100C4F0078D41211448032E53164227014E532B445
:100C5F00030FE533B4010A75EA2278BA1211448002
:100C6F0018E53164237016E532B40311E533B4018E
:100C7F000C75EA2378D512114412111922E531B4FB
:100C8F00201CE532B40317E533B401127401F54BA0
:100C9F00F54C752903752A3775470502161E800016
:040CAF0012272722BF
:101D4A001226144044E5364534703CE5356401708A
:101D5A0036E5337009E5317030853CEA8021E53398
:101D6A006401702190272393B531077895E6F5EA47
:101D7A00800D902724E493B531097896E6F5EA12A6
:0D1D8A0011132280048002800012272722FE
:10219A001226144025E5364534701DE53564017074
:1021AA0017E5337005853EEA8008E533B4010785F3
:0E21BA0044EA1211132280028000122727220D
:100E89001226295003020F62E5346003020F65E55B
:100E9900367071E5359408506BE53354FE7063E59F
:100EA900314533700BE532B40206754812020F4022
:100EB900E531B4050FE532B4030AE535B406057525
:100EC90048168073E531B4220AE532B40305754842
:100ED900168064E531B4230AE532B4030575481672
:100EE9008055E531B41F0AE532B40305754816800B
:100EF90046E531B4250AE532B4030575481680374D
:100F090080578055E53164067020E5326403701A14
:100F1900E53664047046E53564107040E5336401D4
:100F2900703A7548177549048027E531B4200EE5F4
:100F390032B40309754816754904E48014E5337021
:100F490016E5317010E532B4020B75481275490582
:0D0F5900E4121127228002800012272722B7
:101B5000122629404F1211937048E5337009E53180
:101B6000704275480D8010E53364017033E53170C3
:101B70000B434F0375480F754901801E902723E4DE
:101B800093B5310890271B121180800E902724E412
:101B900093B5310A90271C1211801211272280045C
:081BA0008002800012272722B9
:10213C0012262940271211934532701EE533700880
:10214C0075480E754901800CE533B4010B754810C8
:10215C00754901E4121127228002800012272722E0
:0627BA0053EFFBD2AF2239
:0627C0001210FA0217E2FC
:09277B0043EC0253EFFBD2AF2244
:10149500E54E454D607012115940051211638008E3
:1014A500854E4AE4F54DF54EE54A604FE547604BFC
:1014B500E54764087031E54E454D702BFFE54A243C
:1014C500FEFEEFC39E500C12119A700205291211EF
:1014D5004E80EA786DE6FEC4540F2430F5EAEE54EA
:1014E5000F2430F5EA8014E4FFEFC3954A500C123F
:1014F500119A7002052912114E80EE854AEB1211E0
:10150500192012118008301109C211E4F5EB43ECE2
:05151500012243EC027D
:01151A0022AE
:0627C6001210F50217E2FB
:0627CC001210F50217E2F5
:0B27330053DBEFD213E4F5470227B49C
:0B273E0053DBEFD213E4F5470227B491
:0627D2001210FA0217E2EA
:0627D8001210FA0217E2E4
:102380008546F2E4F53B53E4F753E7F7E5F26008DE
:102390005320F043208480065320F04320820227FC
:0123A000B488
:10200B0085313BE53B601453E4FD43E40C53E7FDA2
:10201B0043E70C5320F0432088801853E4F753E731
:10202B00F7E5F260085320F043208480065320F03C
:06203B004320820227B4DD
:0627DE00E4F5A40227B49B
:0627E40053EFFD0227B4D3
:0627EA0053ECFD0227B4D0
:0927840053E4FD43E40C0227B408
:09278D0053E7FD43E70C0227B4F9
:0627F00075A4FF0227B4EE
:0627F60043E40E0227B4CB
:0627FC0043E70E0227B4C2
:030066000227B4BA
:03006E000227B4B2
:0927960085323C85323D0227B476
:10204100E54F5403FFBF0314E4FF74952FF8A63244
:1020510074972FF8A6320FBF02F08017E54F30E0DA
:102061000A7895A6327897A63280087896A63278B3
:0620710098A6320227B41C
:0A275E0085313E78B976010227B4F8
:0A27680085314478B976010227B4E8
:1026AF00E549B4040CE52F5407F52B30130312271B
:0226BF00B42243
:101A4300E52F64057031E530B47518E53445334549
:101A53003245317022C2AF745A75F0A512001ED2FE
:101A6300AF8014E530B4A0067892760B8009E53098
:101A7300B4A1047893A631E52FB4230478D5A63016
:101A8300E52FB4250678D4A630800DE52FB42208BF
:0B1A930078BAA63078B976010227B4BB
:10137800E52FB4061FE531B4CC1AE532B4CC15E537
:1013880035B4CC10E536B4CC0B7B007A00792F123B
:101398000CB3806BE52F64EE702DE53164CC7027BB
:1013A800E532B4CC22E533B4CC1DE534B4CC18E531
:1013B80035B4CC13E536B4CC0E7B007A00792F1205
:1013C8000CB3E4F54980387D01AF2F1219217D0156
:1013D800AF301219217D01AF311219217D01AF32D1
:1013E8001219217D01AF331219217D01AF34121971
:1013F800217D01AF351219217D01AF36121921E483
:03140800F5B92211
:10247900C2AF43EF04122701EF75F003A424BEF5A0
:0D24890082E4340412117353EFFBD2AF2232
:1019E400C2AFE5EF30E402802943EF04E5EE60275F
:1019F400E5EEC39409400E12118C43EC0243EF024E
:101A04001227B4801DAFEE12240053EFFEE5EF3031
:101A1400E41553DBF7800B53EFFEE5EF30E4085396
:101A2400DBF753EFFB8012122701EF75F003A424B8
:0F1A3400D0F582E4340412117353EFFBD2AF22CA
:10161E00AF36EFFEAD357C00E42DFFEC3EFE754996
:10162E0002F54D8F4EE547600FC3E54C9FE54B9E8F
:10163E005006854B4D854C4E121159400DE54964AF
:10164E00026005E549B404020549E54E54077004ED
:10165E00D2118002C2111211594005121163800875
:10166E00854E4AE4F54DF54EE54A6018E54760149F
:10167E00E4FFEFC3954A500C12119A70020529121D
:0A168E00114E80EE854AEB1211198F
:01169800222F
:0C27270043EC0243EF02E4F549F5B9224F
:04001E00023F00227B
:0221E600C1280E
:1012400012266678B77601E478BBF608F678BDF624
:1012500008F61226527D017FA01219217D01E4FFBC
:1012600012192112269D1226527D017FA1121921E9
:101270007F01121BA87817A60712269D7817E6B4DF
:10128000FF02E4F61227A612270E200305E4F5213B
:1012900080F212170B121DE2756312E563600715E9
:1012A00063121CFA80F5122496786DE6B4F109E415
:1012B000F6C2AF121EAFD2AF7892E67005120F667B
:1012C0008003120973300B0EC20B122749E512700E
:0D12D000B31222CA80AE300CABC20C80A756
:10266600752E1475D3CE53DAF753DAFD75D4A075EB
:03267600A888220F
:0D270E0043DD0643A95B43A88053D0E722BA
:0B274900E53C6006D53D03853C3D22C9
:10249600E551B5370BE4F537F55130090EC209227F
:0C24A6000537E537540FF53712052A22E0
:1022CA00539EF8E52B30E006C2C1D21A8004D2C16F
:1022DA00C21AE52B30E104C2C08002D2C0E52B301D
:0822EA00E203C2C222D2C222AB
:1008150000000400020800000000020100000000C2
:1008250000000000000002020139012B0000000059
:1008350000000000000000000000000000000000B3
:1008450000000164010401140000013509290000BC
:100855000204011D0116011A011E00000600000018
:100865000000011B01070108011F0000060100002F
:100875000000010601090115012000000C3C0000E3
:1008850000000119010A01170121000006020000FC
:1008950000000105010B011C0122000006030000F8
:1008A500000001110A000A010123060406050000E3
:1008B50000000A020A030A040A050A0607000000E6
:1008C500000001360A070A080A09070107020000A5
:1008D50000000A0A0A0B0A0C012D0A0D0703000085
:1008E50000000A0E0134012F012E0100070400004B
:1008F500012C022001310130070901280000000008
:100905000240021007050706070707080000000058
:1009150000000000000000000000000000000000D2
:1009250000000000000000000000000000000000C2
:100935003AA53BA63D7F3E8140FE3F80414943535A
:10094500424644474548504A524B514E4F4D2A4C1A
:100955000D59185C10620E5A0C5D2560245F0F5B03
:0E096500125E266137633357135627553854F8
:0C21E80001160001130001150001140095
:1018B900E56425E02441F582E43409F583E49322C3
:1018C900F583E493FDA20AE433FF22A20AE433FF7D
:1018D900AD6422E56425E02435F582E43409F58315
:1018E900E493FD22E56425E02456F582E4340922D7
:1018F900E4F510F5117817E622E56425E02436F5BC
:1019090082E4340922E56425E02442F582E43409BD
:0819190022E4F510F511EF22A4
:10052A0074822537F8E6FFC3949040030207E37507
:10053A00F002EFA42415F582E5F03408F583E4937C
:10054A00F56575F002EFA42416F582E5F03408F596
:10055A0083E493F564E56570030207E31223A1E5DA
:10056A0065B40409300A04D2268002C226200A038E
:10057A00020723E565B4020CE564B408047815762D
:10058A0001020731E565B4010302073CE565B403DE
:10059A0003020747E565B40503020752E5656406E9
:1005AA007020302617121902F583E493FDB4FE0970
:1005BA00302403C22422D2242202076A1218DC023F
:1005CA00076AE565640760030206B430260B121950
:1005DA000EF583E493FD02076A7815E670030206B6
:1005EA00AD1218B9B443047F0180027F00EF60297D
:1005FA00E47814F67817E6FF30E00B12191A54FE65
:10060A00F675120480091218F94401F6751206D219
:10061A00C0D2C11207E412269D1218B9B444047F4D
:10062A000180027F00EF6029781476017817E6FFCF
:10063A0030E10B12191A54FDF675120480091218CA
:10064A00F94402F6751206D2C0D2C11207E4122684
:10065A009D1218B9B445047F0180027F00EF700330
:10066A000207E3781476027817E6FF30E20B1219D4
:10067A001A54FBF675120480091218F94404F67527
:10068A001206D2C0D2C11226527D017FA0121921B0
:10069A007D01E4FF1219217817E6FF7D0112192165
:1006AA0002269D1218B9FD02076AE565640A7029D7
:1006BA0030260B1218EDF583E493FD02076AE56410
:1006CA0025E0301A051218F180072455F582E43422
:1006DA0009F583E493FD02076AE5656409700A3047
:1006EA002605A20A0207B68049E565640C60030282
:1006FA0007E3302622E5E430E3FBE5E4540370F532
:10070A001207FF12170BE5E430E3FBE5E45403702C
:10071A00F512080A0207E08019E565B4020FE564DC
:10072A00B40804E47815F61218D40226C1E565B4B3
:10073A0001061218D40207BAE565B403061218D4E2
:10074A00021EEDE565B405061218D402256EE565AC
:10075A00640670141219021218C9121BFD1218DC51
:10076A00A20AE433FF0207BAE56564077011121999
:10077A000E1218C9121BFD1218B91218CD8031E5D4
:10078A0065640A70191218ED1218C9121BFDE56486
:10079A0025E02455F582E434091218C98012E5656A
:1007AA00B409101218D4121BFDA20AE433FF7D66A5
:1007BA00021BFDE565640C7020A20A33FFAD6412CA
:1007CA001BFD12080A12170BE5E430E3FBE5E454BB
:0907DA000370F51207FF12170B62
:1007E300221226527D017FA01219217D01E4FF12FE
:1007F30019217817E6FF7D0112192122A20AE43399
:10080300FF7D081226C122A20AE433FF7D13121BC7
:02081300FD22C4
:101BFD00EF601FE4FE74AD2EF8E6700974AD2EF89B
:101C0D00A605D2222274AD2EF8E66D60370EBE0603
:101C1D00E422E4FE74AD2EF8E66D7024EEC3940557
:101C2D005017AF06EFC39405500F74AE2FF8E6FCB6
:101C3D0074AD2FF8A6040F80EBE478B2F6D2222211
:041C4D000EBE06D0F1
:011C51002270
:101EED00ED2450131313541FFE53061F0EED54070C
:101EFD0090271B93FBFCEF601074B32EF8E65C701B
:101F0D001A74B32EF8E64C800F74B32EF8E65C60AD
:0B1F1D000A74B32EF8EBF456F6D22144
:011F28002296
:1026C100D222EF600678ACE64DF622EDF478AC56F6
:0226D100F622EF
:10256E00EF600A78B3E65D7010E64D800978B3E649
:0A257E005D6006EDF456F6D220224F
:10170B007817E6FE30E004C2B18002D2B1EE30E1D0
:10171B0004C2B68002D2B6EE30E204C2B78002D267
:10172B00B7E5E430E348E5E45403704230223FC2AE
:10173B0022E59630E4045396EF22C2AF78ACE6F57F
:10174B00E2E4F5E230080AFF75E2010FBF06F9800B
:10175B000DE4FF74AD2FF8E6F5E20FBF06F5D2AF3F
:0E176B0075E30843E401853C3DE4F53AF5459D
:01177900224D
:101DE200E5E730E342E5E75403703CE545703830FF
:101DF2002011C220C2AF75E50278B3E6F5E575E6BB
:101E020002801A302121C221C2AF75E50378B4E6FF
:101E1200F5E508E6F5E508E6F5E575E604D2AF4333
:081E2200E701E4F53AF5452261
:102222000102040810204080FEFDFBF7EFDFBF7FB4
:10223200FEFDFBF7EFDFBF7FEFDF000000000000D5
:0C22420000000101010101010101030382
:0E26F300E52690222A9322540790271B93225B
:101CFA0020094C1217E8300F028041E5277017744B
:101D0A006E2526F8A6390526E526C3941250012227
:101D1A000527E4F52622746E2526F8E66539600261
:101D2A00801A0526E526C39412500122121F6492D6
:101D3A00083008028006200903121F2912280222ED
:1025BA00E4F59CF59BF59A539D0D7580FF7590FF88
:0825CA0075A0FFD2B4D2B522C6
:1025A100E4FEFDEE25E0FEED902222935F60034301
:0825B10006010DBD08EDAF06A7
:0125B90022FF
:1017E8001225BAE526C39412505AE52690223C9356
:1017F800FFC39404504AEF64026045EF7007122655
:10180800F3F5808020E52690223C93B40107122648
:10181800F3F59080101226F3B4EF06C2B4D2B58067
:1018280004D2B4C2B51227AD85A0391227ADE53967
:10183800B5A0F2AFA01225A1EFF4F539C20F8006CA
:09184800D20F8002D20F0225BA72
:101F6400E4FFFE746E2EF8E6FD5FFCED4207EC60C4
:101F740023C3135455FDEC54552DFC13135433FD56
:101F8400EC54332DFCC4540FFDEC540F2DD39401A9
:091F94004002D3220EBE12CBC3A1
:011F9D002221
:06280200E4F527F5262293
:101F2900E4F564F56474992564F8E6FF746E256434
:101F3900F8E6FEB507028019EE6FFFAD64120D9E3B
:101F4900500122746E2564F8E6FF74992564F8A699
:0A1F5900070564E564C3941240CB51
:011F6300225B
:040D9E008F658D666A
:100DA200E4F568746E2566F8E6F567E4FF4368804B
:100DB200E56825E004F568C20AE56730E702D20A71
:100DC200E56725E0F567E56520E70EBF0702C32268
:100DD200E56525E0F565020E7DE56525E0F565E54D
:100DE20066C394124002D3220551E551540FF551C6
:100DF200E56633333354F84FFE74822551F8A60664
:100E0200E5511226FAFE200A15E55130E308EEF408
:100E1200788156F68016EEF4788056F6800EE5510B
:100E220030E304788180027880E64EF6E55165373A
:100E32006007EF64077044C322EFC394075017E5BD
:100E42006825E0F56830D7047E0180027E00EE2539
:100E520068F5680F80E3746E2566F8E56856F674E7
:100E62006E2566F974992566F8E568F45647F71514
:100E720051E551540FF551D209C3220FEFC3940823
:060E82005003020DAFD386
:010E88002247
:1023A100E53730E3091226FA788156FF8009E537CF
:1023B1001226FA788056FFEF7003C38001D3920A88
:0123C10022F9
:1011C000022679E493A3F8E493A34003F68001F2A6
:1011D00008DFF48029E493A3F85407240CC8C33330
:1011E000C4540F4420C8834004F456800146F6DFFF
:1011F000E4800B01020408102040809021C8E47EA6
:10120000019360BCA3FF543F30E509541FFEE493F3
:10121000A360010ECF54C025E060A840B8E493A3BA
:10122000FAE493A3F8E493A3C8C582C8CAC583CAE5
:10123000F0A3C8C582C8CAC583CADFE9DEE780BE9D
:0121F40000EA
:10177A00BB010689828A83E0225002E722BBFE026D
:09178A00E32289828A83E49322A0
:10179300BB010CE58229F582E5833AF583E022500B
:1017A30006E92582F8E622BBFE06E92582F8E22255
:0D17B300E58229F582E5833AF583E493226F
:1017C000F8BB010DE58229F582E5833AF583E8F05F
:1017D000225006E92582C8F622BBFE05E92582C80B
:0217E000F222F3
:0617E2008A838982E47392
:00000001FF
