:0C26A10001020408102040800302030125
:1025FF00C2AF53D0E712272C12208A300703121CC8
:02260F00D222D5
:0727250075D4A075A88822FD
:10208A00E59630E104D21B801EE59630E205122661
:10209A00598017E59630E3051221FC800DE596304C
:1020AA00E0051223C480061224DAE4F59602272CEE
:1024DA00759D0DE4F52B12272C12266A12272C7FE4
:0A24EA006E1223E212272502229E43
:1026590012272C12266A1222E57520827FCA0200EF
:012669005E12
:1022E500E4F5F2753C7D753D7D753E01FF74982FD3
:1022F500F8E4F6749A2FF8E4F60FBF02F07544017E
:0123050022B5
:1023C400E59630E406754519122725E5F354CA4409
:0E23D400C2FF12005E12205853968E02254062
:1020580030032EE4F53FE5E430E00353E4FEE5E722
:1020680030E01E53E7FEE5389026A993F5E5E538FC
:102078009026AB93FFEF6006E4F5E51F80F743E792
:012088000156
:012089002234
:1021FC0012272C43C067759E6075F381120036124E
:10220C002611EF20E504EF30E6E675F301759E60CC
:0B221C007F621223E21227250224DA61
:07217600026C0000016E0085
:03000300020026D2
:03002600C2A8323B
:03000B0002000AE6
:01000A0032C3
:0300130002002EBA
:03002E00C2AA3231
:03001B0002243884
:10243800C0E0C0F0C083C082C0D075D00812187345
:0B244800D0D0D082D083D0F0D0E032A2
:0300230002004692
:03004600C2AC3217
:03002B0002004E82
:03004E00C2AD320E
:0300330002005672
:03005600C2AE3205
:0300430002245341
:10245300C0E0C0F0C083C082C0D075D0181214F59C
:0B246300D0D0D082D083D0F0D0E03287
:03004B0002246E1E
:10246E00C0E0C0F0C083C082C0D075D0181214F581
:0B247E00D0D0D082D083D0F0D0E0326C
:03005300020006A2
:0400060053A9FB32CD
:03005B00022489F3
:10248900C0E0C0F0C083C082C0D075D0181223FF4D
:0B249900D0D0D082D083D0F0D0E03251
:030063000224A4D0
:1024A400C0E0C0F0C083C082C0D075D0181218D468
:0B24B400D0D0D082D083D0F0D0E03236
:03006B0002000E82
:04000E0053A9DF32E1
:030073000224BFA5
:1024BF00C0E0C0F0C083C082C0D075D018121473B2
:0B24CF00D0D0D082D083D0F0D0E0321B
:03007B000200166A
:0400160053A97F3239
:10187300E4F594759355152EE52E7052E56ED394C9
:10188300004033056DE56D7002056C6450456C7066
:101893002CF56CF56D539EF878DAE6FF7004B2C050
:1018A3008010EFB40104B2C18008EFB40204B2C0E7
:1018B300B2C1156E8007E4F56EF56CF56DD20B754C
:1018C3002E14300309E545D3940040021545D20C8C
:0118D30022F2
:0F266A0012255812272C1226F8E4F595021F1A94
:10255800E4F5A8F5A9F5DCF5DDF5B8F5B9F5DAF592
:06256800DBF5DEF5DF22C9
:101F1A00E4F59AF59BF59CF59D759E60F5A4F5A2EE
:101F2A00F5A3F5A553A6F87580FF7590FF75B0FF68
:101F3A0075A0FF43C007789676F012272C1209681D
:061F4A001209680209689B
:0926F800121FF212202502256ECA
:101FF200E4FF742F2FF8E4F60FBF08F6E478AFF68B
:10200200FF74B02FF8E4F60FBF06F6E4FF74B62FA4
:10201200F8E4F60FBF04F6E4F522752120F52478E2
:02202200E0F6E6
:012024002299
:10202500E4F527F5267884F618F6F539F538F551EF
:10203500F537F53BF53FF540F541F542F543F544F8
:10204500F5457870F67895F678D7F678D8760378EA
:03205500BDF622B3
:10256E007F127871E4F608DFFC1226DA7F10788588
:05257E00E4F608DFFC9B
:012583002235
:0926DA007F12789CE4F608DFFC95
:0126E30022D4
:07272C00E4F59475935522BA
:1026110012272C1225C48F631225C4E563B507F078
:01262100FFB9
:012622002295
:1025C40012272C85C064122733E564B5C0F2E56494
:0325D4005460FF51
:0125D70022E1
:10229E00C2AF12272C439E6075F301752001301BCF
:1022AE001375F3411222E5D207D21BD219C2187F41
:0522BE00C212005E22C7
:03005E008FF322FB
:1023E200C2AF75D3FC75D4F053DAF7EF600E122743
:0D23F2002CE5DA30E3F853DAF71F80EF2214
:07273300000000000000227D
:0D003600000000000000000000000000229B
:1025840012003600000000000000000000000000FF
:062594000000000000221F
:1037FB00021196000075F0A5C2AF759355E59620A2
:10380B00E16230E228E520B44123B52420E521B460
:10381B004B1BE522B44916E523B4521101D5759E15
:10382B006075C07F9037FEE493645A60EF9037FB6E
:10383B00E493B402E7E4F5F0900000758107F5D04E
:10384B000237FB903FBA78207906E5F0B4A5FDE48A
:10385B0093F608A3D9F9E4F51DF51EF51F9037FF74
:10386B0093F52722114E741420C5B330C6B01470D3
:10387B00F7F59EF8741475C0DFD8FE30C6A075C07E
:10388B00BFD8FE20C59875C0FFD8FE30C590B40ACE
:10389B0002F51DB41103751E09B40602F51F7593CD
:1038AB0055D5E0D2D8FE20C50520C60221A67581CC
:1038BB002775C09F7512057D377CFE745AB1BEC249
:1038CB00C5D1C5D2C5D1C530C5F575935575812701
:1038DB00E4F5D0759E6075C07FE596540A600A7555
:1038EB00F301114ED1CF75F3C2513075F3CA7594F4
:1038FB0003E520B441FD652470FE20AFFD759355A3
:10390B00E5DB30E03B53DBFEE5EF5418701C7153E5
:10391B00BB082043EF0453EFFEE5EF20E41571E500
:10392B00516420330E53EFFB01FC20E40E43EF04F4
:10393B0053EFFE43EC0243EF0271F153EFFB01FC3B
:10394B0030E10553DBFD211330E31F53DBF753EF5E
:10395B00FB20300471612170E510B40106E50AF516
:10396B00F2600071F153EFFB01FC30E42C53DBEF01
:10397B00E5EF20E41443EF04203104E5EE700E5321
:10398B00EFFE71F153EFFB01FCD233213E71534338
:10399B00EF0453EFFE71AD218F01FCC2C67594038A
:1039AB00758127513075120575C0FF75935520C56C
:1039BB00FA30C607C2C620C5EF21C174025122B42A
:1039CB003310511DFC511DFDBD5ADDEC70DAF11B9E
:1039DB0021B3B4551679087A08511DF709DAFA792B
:1039EB00087A08E7B1C409DAFA21B3B466FD913756
:1039FB0070FE7A08D18D759355D375C0FF30C5FD18
:103A0B0020C5FD3392C6C370F430C5FDC2C6DAE4DF
:103A1B0021B375C0FF740130C5FD20C5FDA2C633AF
:103A2B0050F5C2C622E4F596F5F2F5267818F6D8CD
:103A3B00FDF5A8F5A9F5DCF5DDF5B8F5B9F5DAF581
:103A4B00DBF5DEF5DFF595F59AF59BF59CF59D1409
:103A5B00F580F590F5A0F5B0227B00E5087012D249
:103A6B0030E509B4050474014187B4095DF52241C1
:103A7B008620E759D230E509B40A09E48BEBF5103F
:103A8B0043EC0122B40943E508B4213EE50BB40233
:103A9B000474024187B403329100B4050CBE062AAC
:103AAB00BF002774047E044187B4060CBE021BBF03
:103ABB00081874067E004187B4410FB5250C913769
:103ACB0060021161B11974084187D23322D23120BF
:103ADB00E534E509B406F3E50B30E502941B60EA27
:103AEB00B4080050E523F8903FAA93FC7D3FE8040F
:103AFB0093FE7F00E50F7009C3EE950E4003E50EB4
:103B0B00FE7512416192B4A1C1D509BEE50BB40398
:103B1B00B99100B40519BE06B1BF00AE7A04E51326
:103B2B00B452A77B028512EA75EA721E1E6185B438
:103B3B00060ABE0295BF08927A066129B4418BB57D
:103B4B0025889137708461927808E5EEF9FB600562
:103B5B00A6ED08D9FB22E5106010EF7008EE600BA4
:0D3B6B00B40802D234E510B405092210346C
:103B780001227B004186B4070E7A087B0071FB7135
:103B88009E912E74074187B409E37198740941879F
:103B9800B1187A087B00EE4F600AEA6007D18DF50C
:103BA800EA0BDAF222E510B40220E509F4551130E7
:103BB800E21453F3F7759E6075C07F11615130753B
:103BC800F301D1C5013885091122B40406910D7B92
:103BD800004186B4060281D7B408EEA101E453DBA4
:103BE80067F5E953ECFD53EFFDE4F510F512F52602
:103BF800D23722AC14AD1522AC0CAD0DAE0EAF0F02
:103C0800E50AF51222E508B405FAE509B477028158
:103C18001BF513B4521E91376008E50BB4FC0C7504
:103C28000A00AC0AAD0B8C148D1522E4F51322E5BD
:103C38002764A522B45706913770F0812AB4560933
:103C4800912AEC4D70E5F51822B47727E513B4579F
:103C5800B371FB7A04790AEE4F600BE513B4570889
:103C6800E7B1C409DAF1812ED18D67600474EE42A0
:103C78001880F0B44116E50AB44B11E50BB4490CB1
:103C8800E50CB45207E50DB44102F52554DFB445FF
:103C98003DE50AB4450D630B4F630C4C630D43912E
:103CA800CCE11BB45A087CFE7D37E50BA1BEB4A558
:103CB80007B5271A7CFF81B0B4FF069137700FA1B2
:103CC8002CB4050A850B1D850C1E850D1F2222E5C7
:103CD8001354FEB4561F103708EB7908FA71FB81AC
:103CE8005FE5096420B5130DE508B40608790AEB09
:103CF800C3940250E775130022EB6014B408004027
:103D0800027408FA7908EE4F6006E7B1C409DAF6DA
:103D180022913770FBEDB45AF7ECB4FE047455A148
:103D28003CB4FF0474AAA13C543CF5F775BE007579
:103D3800BF0074E6F5B3759355751C05E512B40517
:103D480055851CB4751C0A851DB5851EB6E5B3B42A
:103D5800E61AE5F724C8502B8030E5BEB4030050BE
:103D680022048380023800B5BF20A18BB46E14E50D
:103D7800F760E724C8500C24F9500F700DE5BE24F5
:103D8800415007851FB700000000E4F5B3F5B4F50E
:103D9800B5F5B6F5B722B40602A149B441F7A14971
:103DA800EE70011F1E227D007C017438B1BE7400C4
:103DB800B1BE7C007402F5BF8DF7C110F5BFE512E6
:103DC800B44102C108BDFC0A75F73FEC44C0F5BE1A
:103DD800C112ED700FECB40300502575F73724FBC2
:103DE800F5BEC112B4FF09303016EC20E712C11934
:103DF800B43800501CB43708BCFA004003BCFA11B0
:103E0800EDB440005026F5F78CBE746EB13C75F7E2
:103E180000B1A8C1B7B4FE07ECF8E5BFF6C119B404
:103E2800FD08ECF875F700E5BFF2C119B4FFE6EC40
:103E380033745A4001C48CBEC114E583700CE5820A
:103E4800B40300504B9037FBC18AB4FF0A303140AD
:103E5800E58220E73BC186B4FC1575833FEC30E76B
:103E68000644C0F582C1895403FC2418F8C1ADB4D6
:103E78003800500AB43719E582B4FA004012903776
:103E8800FAE493C1B7B1A88C828D83E512B441AA34
:103E9800E583B440005004E493C1B7B4FF02C1B64F
:103EA800B4FE05A882E6C1B7B4FD04758300E00C32
:103EB800BC00090DBDFD011DBD00011D22D1C7D8E3
:103EC800FE759355D9F9227806E4F6D8FD7F40753A
:103ED8001205D18D29F950050ABA00010B759355C1
:0D3EE800BD40EF891B8A1A8B19E94A4B6017
:103EF50006BB3F06BAC0037527A522C2AF53F3F729
:103F0500759355758127B45AFDE4F5D0F5F3759E83
:103F15006075C07F01EA74381454FCFAB130EA7058
:103F2500F7B1AEB1AEC1CF12011001000000080318
:103F35000620100103000000010403090409022200
:103F450000010100A032090400000103010100097C
:103F550021100100012248000705810308000A0518
:103F6500010906A1018507050895087501190129AB
:103F7500089102C00600FF0901A10185051500256C
:103F8500FF1901290575089505B102C00600FF094D
:103F950001A1018506150025FF1A01002A010875F2
:103FA50008960108B102C02C1242223E044B095D5D
:103FB5000754096448414B49524100000000000084
:103FC50000000000000000000000000000000000EC
:103FD50000000000000000000000000000000000DC
:103FE50000000000000000000000000000000000CC
:0B3FF5000000000000000000000000C1
:03000000023800C3
:10119600000000E59620E10B20E20E20E30B20E0A4
:0F11A60008800078FFE4F6D8FD7581E00211F0B3
:1023670002A00003A001AA02A00203A0020002A08B
:0F2377000302A00503A0030003A006EEA0081AAE
:10217D0001BB0001BC0002BE000002C0000001BA9C
:07218D000001D80301D70097
:1015F100902385E493FF7B007A0079AE756901221F
:10160100902385E4937A237968902367FF7BFFE435
:1016110093F56922E6FDC413135402FFEDC4540788
:10162100FB75130022902385E493FF7BFF2278C38F
:10163100E6C45403F5E508E6F5E508E6F5E52278A4
:10164100DDEFF6D2AF789522AB5EAA5FA96090007C
:1016510003121718900004229000051216EBFF7D6B
:02166100012264
:100968007896E6240F60761470030209FA24FE7064
:1009780003020A0D147003020A45147003020A8464
:10098800147003020A2024FA7003020A84240D60FA
:1009980003020A8FC2AF121DAA78DDEFF6D2AF6448
:1009A800FA703278AEE67895602776E0C2AF121614
:1009B800267A237983756902121D63902385E4934F
:1009C800FF7B007A00796475690C1219E8D2AF8050
:1009D8000876D08004789576D0789676F1C2AF12F2
:1009E8001B42121640BFFA0476E1800276D178964F
:1009F80076F2C2AF121B96121640BFFA0476E28056
:100A08003776D28033C2AF12211A121640BFFA04C9
:100A180076E4800276D48020C2AF902385E4937A6E
:100A280023797C90237B12160D121D63121640BF8A
:100A3800FA0476E7800276D7789676FC22C2AF125F
:100A48001DEDEF64FA702A90238593FF7BFF7A23CC
:100A5800798090237FE493F569121D63BFFA1078BB
:100A6800AEE67895B4010476E5800A76D5800680EE
:100A780000789576D5789676FCD2AF22E478AEF6F3
:070A8800789676FC7895F6E4
:010A8F002244
:101DAA007F161223E2E478AEF678DEF612160112F6
:101DBA001D6378DFEFF6BFFB0280171215F11219C7
:101DCA00E878DFEFF6BFFB02800878AEE660037FB3
:101DDA00FA227F051223E278DE06E6C3941440CC89
:021DEA007FFB7D
:011DEC0022D4
:101B42001216267A23796B90236A121B8ABFFB0333
:101B52007FFB227F051223E21216267A23796F90E9
:101B6200236E121B8ABFFB037FFB221215F112198F
:101B7200E878DEEFF6BFFB037FFB2278AEE6645522
:071B820060037FFB227FFAE4
:0D1B890022E493F569121D6378DEEFF62269
:101B96001216267A237972902371121BDEBFFB037D
:101BA6007FFB227F191223E21216267A237976907A
:101BB6002375121BDEBFFB037FFB221215F11219E0
:101BC600E878DEEFF6BFFB037FFB2278AEE66455CE
:071BD60060037FFB227FFA90
:0D1BDD0022E493F569121D6378DEEFF62215
:100CA8008B5E8A5F89609000011216EB242F602EFC
:100CB8001460492402707490000274A012171890EE
:100CC80000037414120D6FEF64FA700F9000021293
:100CD8000D5F120D3412165912181112262374348E
:100CE80012164974A01217189000057418121718D4
:100CF8001225D8120D34121659021811122623740F
:100D0800A0121649740412171890000574EE120DFB
:100D18006FEF64FA7012900003120D8390000412B2
:100D28000D83900005120D5F12262322AB5EAA5F89
:100D3800A9609000031216EBFF7D01121811AB5E3B
:100D4800AA5FA9609000041216EBFF7D011218112A
:100D5800AB5EAA5FA96022AB5EAA5FA9601216EB20
:100D6800FF7D01121811221217181225D890238519
:100D7800E49325E0FF7D0112181122AB5EAA5FA95A
:0B0D8800601216EBFF7D011218112213
:10211A001216267A237979902378E493F569121DA9
:10212A006378DEEFF6BFFA131215F11219E878DEBA
:0D213A00A60778AEE6B455037FFA227FFBBE
:012147002275
:101DED00E478AEF678DEF6121601121D6378DFEF99
:101DFD00F6BFFB0280171215F11219E878DFEFF626
:101E0D00BFFB02800878AEE660037FFA227F0512E1
:0D1E1D0023E278DE06E6C3940840CC7FFB8C
:011E2A002295
:1025D800439D05122733539DFEC2B0122584539D97
:0425E800FBC2B2225E
:10262300539DFEC2B0122733439D04122584439D5C
:02263300012282
:10181100E4F56BFEEF30E705439D018005539DFE26
:10182100C2B0000000000000439D04EF25E0FF006E
:101831000000000000000000000000539DFBC2B248
:101841000EBE08D0000000000000000000000000F3
:10185100439D01000000000000439D04122733A2B4
:10186100B0E433FD539DFBC2B2BD01037FFB227F78
:01187100FA7C
:011872002253
:101A9800E4F56B439D01FE439D04E56B25E0F56B82
:101AA800A2B0E433426B0000000000000000000018
:101AB8000000539DFBC2B2000000000000000000BF
:101AC8000000000EBE08D0EF6005439D018005535D
:101AD8009DFEC2B0122733439D04122733539DFB4A
:041AE800C2B2AF6B6C
:011AEC0022D7
:101D63008F658B668A6789681225D8E56525E0FF4C
:101D73007D01121811BFFA23AF691569EF6022AB19
:101D830066AA67A9681216D2FF7D011218117401A1
:101D93002568F568E43567F56780DD1226237FFB48
:071DA300221226237FFA2221
:0819E8008F658B668A67896830
:1019F0001225D8E56525E04401FF7D01121811EF9D
:101A000064FA701CF56AE56914FFE56AC39F500922
:101A1000E4FF121A2C056A80ED7F01121A2C800651
:0B1A20001226237FFB221226237FFAF0
:101A2B0022121A98AB66AA67A968856A8275830029
:051A3B00EF1217182254
:1012350078D2E6FF5407FE7005EF54186078EEC3C8
:101245009401500778D2E65418606B78C4E6FEC462
:1012550013135402FF78D2E65407FDEE12161E75DD
:1012650014007515C2E6FEC4135401F516121034A8
:1012750078D2E6FE5407C39402403B78C81216158F
:101285007514007515C61212BC9403402978CC124A
:1012950016157514007515CA1212BC9404401778FA
:1012A500D01216157514007515CEEEC4135401F53C
:1012B50016E4FD12103422EEC4135401F516E4FDB4
:0B12C50012103478D2E6FE5407C3225A
:061034008F108D118B12DC
:10103A00E4F517E5E730E306E5E754036005122710
:10104A002C80F03024030210E978D8E6FF540370AC
:10105A00030210E978D2E654186007EF30E103750D
:10106A001701C2AF75E51E78D8E630E04CAB13AA7B
:10107A0014A915AE02AF01EF4E603EE511C454F05B
:10108A00FFE517C433333354804FFFE51225E025BB
:10109A00E04F45104516F5E59000011216EBF5E50F
:1010AA001216D2F5E59000031216EBF5E590000250
:1010BA001216EB540FF5E58015E517C43333335494
:1010CA00804401F5E5E4F5E5F5E5F5E5F5E5E4F552
:0F10DA00E5F5E5D2AF75E60843E701F53AF545D0
:0110E90022E4
:10222700E5E730E306E5E75403600512272C80F065
:10223700202415C2AF75E50112162FD2AF75E6043B
:0922470043E701E4F53AF54522F4
:10227800E5E730E306E5E75403600512272C80F014
:10228800202412C2AF12162FD2AF75E60343E7011E
:06229800E4F53AF54522D1
:100F5B00756F0512234878BAE6703BE53E6005785D
:100F6B00BDE6701478BCE6602D12101ABFFB0302AD
:100F7B0010147D017F1C801278BCE6601912101AC8
:100F8B00BFFB030210147D017F1F121811122623C1
:100F9B00D2AFE478BCF620B37578BAE67070121055
:100FAB0027BFFB0280637D017F5512181112262388
:100FBB00120036E53E600578BDE67005756F05805D
:100FCB0003756F157B007A0079C2856F697F1012EC
:100FDB0019E8EF64FA702378BEF608F6D2AFE53E57
:100FEB00B4011478D7E6701278BDE670051222278B
:100FFB0080081212358003122278121027BFFB02D1
:0E100B0080077D017F1E121811122623D2AF1E
:1010190022C2AF1225D87D017F2012181122C2AF3A
:0B1029001225D87D017F201218112233
:1023480078BAE6B4011878C106E618700106D378A1
:0F235800C1E694D018E694074004E478BAF62260
:101E2B001225D87D017F20121811BFFB02801A7D6D
:101E3B00017F1D1218111226231200361225D87D90
:101E4B00017F21121811BFFB08122623E47870F6CC
:0E1E5B00227F01121A987870A6071226232201
:10007E001803530049004E004F0020005700450062
:10008E0041004C00540048000004030904200348BA
:10009E0000410049004C00550043004B0020004336
:1000AE00004F002E002C004C0054004400001A0398
:1000BE0055005300420020004B00450059004200FD
:1000CE004F004100520044000058572D54505554D3
:1000DE004F4F4C5F5456332D55532D48312D3132E1
:1000EE002D30300012011001000000088A251F007B
:1000FE0000010102000105010906A101050719E031
:10010E0029E71500250175019508810295017508ED
:10011E0081019503750105081901290391029505C1
:10012E007501910195067508150026FF0005071942
:10013E00002AFF008100C005010902A10185010905
:10014E0001A1000509190129031500250195037563
:10015E0001810295017505810305010930093115EB
:10016E0081257F750895028106C0C0050D0905A180
:10017E0001851E0922A10215002501094709429594
:10018E00027501810295017502250309518102094B
:10019E00542507950175038102050909012501758D
:1001AE000195018102050115002678057510550E81
:1001BE0065110930350046E0019501810226920352
:1001CE0046400109318102C0A102550C660110475B
:1001DE00FFFF000027FFFF000075109501050D09B8
:1001EE00568102050D851F0955095975049502257D
:1001FE000FB102050D8525096075019501150025C4
:10020E0001B1029507B1030600FF852009C515004F
:10021E0026FF007508960001B102C0C0050D090E3B
:10022E00A10185220922A10209521500250A75088D
:10023E009501B102C00922A10085230957095875FD
:10024E000195022501B1029506B103C0C006010059
:10025E000980A10185022501150075010A81000A98
:10026E0082000A83009503810695058101C0060C64
:10027E00000901A10185032501150075010AB500CC
:10028E000AB6000A6F000A70000AE2000AA2000A0B
:10029E00E9000AEA00950881020A83010A94010A1C
:1002AE0086010A88010A8A010A92010AB7000ACD5C
:1002BE0000950881020A21020A23020A24020A2555
:1002CE00020A26020A27020A2A020AB102950881A8
:1002DE0002C00501090CA10185091500250109C6F9
:1002EE0095017501810675078103C00600FF09019E
:1002FE00A1018506150025FF1A01002A0F047508B5
:10030E00960F04B102C00600FF0901A10185051573
:10031E000025FF1901290575089505B102C020FCBD
:10032E0028FE8440CB9A870DBE573CB670098807CD
:10033E00972D2BE33834B66CEDB0F7E59CF6C22E54
:10034E00841BE8B45178431F284B7C2D53AFFC47D8
:10035E00701B596F7443C4F34718531AA2A171C787
:10036E00950E315521D3B51EE90CBAECB889193E5C
:10037E00B3AF75819D53B94157F46D3925297C87EB
:10038E00D9B498457DA7269C653B856889D73BBD2A
:10039E00FF1467F22BF02A4154F0FD2C667CF8C056
:1003AE008F331303F1D3C10B89D91B62CD51B780A3
:1003BE00B8AF3A10C18A5BE88A56F08CAAFA35E9D2
:1003CE0042C4D855C338CC2B535C6952D5C873027E
:1003DE00387C73B641E7FF05D82B799AE234608FEB
:1003EE00A3321F097862BC80E30FBD65200813C1DC
:1003FE00E2EE532D867EA75AC5D37D98BE31481F97
:10040E00FBDAAFA2A86A89D6BFF2D3322A9AE4CF1A
:10041E0017B7B8F4E13308248BC443A5E524C20909
:10042E00023B00020100A032090400000103010199
:10043E000009211001000122410007058103080077
:10044E000A09040100010300000009211001000146
:10045E0022E7010705820308000AFF1363FF198EC6
:10046E00FF26ADFF1C87FF26ADFF23A5FF0A90FFD9
:10047E0026ADFF250EFF22C3FF21A3FF1F50FF262F
:10048E00ADFF26ADFF0BA4FF1C3AFF2148FF26ADA2
:10049E00FF26ADFF26ADFF26ADFF26ADFF0E7EFF7C
:1004AE001A40FF20EAFF2740FF2746FF2701FF13D0
:1004BE00EDFF274CFF2752FF2740FF2740FF26B9AD
:1004CE00FF26C4FF2758FF275EFF2740FF2306FFA6
:1004DE001F86FF2764FF276AFF2770FF270AFF2763
:1004EE0076FF277CFF0066FF2713FF2782FF006E33
:1004FE00FF271CFF26E4FF1FBCFF26EEFF2740FF51
:10050E002635FF2740FF2740FF2740FF1933FF12F4
:01051E00D00C
:1010EA0053DBEFD213AF48EF75F003A424D7F58290
:1010FA00E43404F583740193FA740293F92275496E
:10110A000275EB0143B91075E90643EC01227549F2
:10111A0001E4F5EB43B90875E90143EC0122852A9C
:10112A0082852983E493754B00F54C75470722E6BF
:10113A00F5EA75490275EB022214F5828C83E49371
:10114A00F5EA0F22C3E54E9408E54D940022754A4C
:10115A000874F8254EF54E74FF354DF54D22F5838A
:10116A00740193FA740293F902173AE493424F75A1
:10117A00480F754901E42243EF0453EFFE22E53696
:0C118A004535453422052AE52AAC29220F
:0D268700E549C394064003E4F549AF49223C
:102386008F4AE4FDFCEFFBC3ED9B7480F86C98501C
:0E2396000D742F2DF8A6ED0DBD00010C80E793
:0123A4002216
:10259A00200302D322E52F64A16008E52F64A2601C
:0525AA0002D322C32250
:1025AF00200302D322E52F64216008E52F64226007
:0525BF0002D322C3223B
:06273A00E4F549F5B922A7
:1020BA0043C067E4F5A6F5A3F5A2F5A5F53AF545FB
:1020CA0085F328C2AF53968E12272C438702758E4A
:1020DA005500000043F3207F1A1223E253F3CF2264
:10147300E4F562E5DF30E103E4F5DFE5DF30E26E5A
:1014830053DFFB12272C053AAF3AEFC39543405B7A
:1014930030034CE53F7008E551653760028016E480
:1014A300FF749C2FF974712FF8E64742620FBF1245
:1014B300F0E56260095396BFE4F53AD2AB22E4F556
:1014C3009543F310E5A4B4FF1075A0FFE4F580F590
:1014D3009043B00D53B0CF80031225401220BAE4DD
:1014E300F59543F3101225401220BAD2AB22E4F54E
:0114F300DF19
:0114F40022D5
:1014F500C2AFE5EF54186007E5EF20E46E8066E5BE
:10150500EE64087060AFEE122386121181E5EF20BC
:10151500E459E4F5B953DB67F549F5485322F0F58D
:1015250047F5E9F53AE52F546024E0601B24207067
:1015350037E530C3940D5033AF30EF75F003A42475
:1015450068F582E434048015E530C3940C501CAF73
:1015550030EF75F003A4248FF582E434041210FDF6
:1015650012173A80061211811226AD53EFFBD2AF46
:011575002253
:10136300E535640260030213E9E5367079E52F245D
:101373007F601414602A2402706AE5A47004F5EAFD
:10138300804675EA028041E53460028059E53314F2
:1013930060050470098021300302801C8048804668
:1013A300E53460028040E5332480600C14600E1441
:1013B300601B2482702C8000E4F5EA801C30030B50
:1013C300E5E45402C313F5EAE4800E8019300310F8
:1013D300E5E75402C313F5EAE412113A12110E229F
:0A13E3008004800280001226AD2273
:10198E00E5327052E52F24FE601024027046E531D8
:10199E00B401057548038032803CE5344531703220
:1019AE00E5332480600F14601114601824827020B7
:1019BE007548048015754805801030030575480676
:1019CE008008801230030775480A1211182280060B
:0A19DE008004800280001226AD2272
:101C8700E53645354532703FE52F700CE531B40137
:101C9700057548078029802FE52F64027027E534F2
:101CA70045317021E533547F601B300318E533B4A9
:101CB70081057548088008E533B4820775480B121B
:0B1CC700111822800280001226AD22BE
:1023A500E53545364532452F7011E531C3948050EA
:0F23B5000A853146754801121118221226AD22F1
:100A9000E52F64806009E52F64816003020BA0E507
:100AA00032546024E07003020B2C24206003020BFC
:100AB0009EE52FB48103020BA0E53224FE601914D9
:100AC000602824027064754B00754C1275290075FE
:100AD0002AF2754701020B97754B00754C3B75293F
:100AE00004752A2D754702020B97E5311460161420
:100AF000601F2403602714702F752900752A971230
:100B00001128020B97752900752A9B121128020BD8
:100B100097752900752ABC121128020B97752900B8
:100B2000752A7E121128806F80768074E5347005F6
:100B3000E52FB480028069E533702DE53224DE6054
:100B400014047022754B00754C09752904752A3FF1
:100B50007547038042754B00754C41752901752A14
:100B60000475470480318038E5336401702EE53226
:100B700024DE6014047023754B00754C097529043C
:100B8000752A58754705800F754B01754CE7752917
:100B900001752A457547060215768004800280009B
:040BA0001226AD224A
:10250E00E535B40110E536700CE52FB48007853B38
:09251E00EA121108221226AD2276
:1022C300E53645354532452F7014E5F26010E531AA
:1022D3006005E531B4010775480212111822122670
:0222E300AD222A
:1021A300300326E53645347020E5356401701AE5C1
:1021B3002F64817014E53370028006E533B40107A0
:0D21C300E4F5EA1211082280001226AD2278
:101F500030032F121188453245317026E52F640178
:101F60007020E5337008754809754901800CE53328
:101F7000B4010D75480C754901E4F5EB12110E2200
:061F800080001226AD22D4
:100BA40012259A5003020CA4E534701FE533701B20
:100BB400E5317017E532B4020FE52B5407F5EA75F9
:100BC400490275EB01020C7D020CA4E53164057049
:100BD4001BE532B4031675EA057895E6F5EA78AEB6
:100BE400E6F5EA75490275EB03020C7DE531B406BE
:100BF40021E532B4031CE535B41017E536B404120C
:100C0400752900752AD7754B00754C1A754708026B
:100C14000C9FE531641F7015E532B40310E533B45D
:100C2400010B75EA1F75EA0412113C804CE531642E
:100C3400257014E532B4030FE533B4010A75EA25CF
:100C440078D71211398032E53164227014E532B458
:100C5400030FE533B4010A75EA2278BD1211398015
:100C640018E53164237016E532B40311E533B40199
:100C74000C75EA2378D812113912110E22E531B419
:100C8400201CE532B40317E533B401127401F54BAB
:100C9400F54C752903752A2C7547050215768000D5
:040CA4001226AD2245
:101C3A0012259A4044E5364534703CE53564017016
:101C4A0036E5337009E5317030853CEA8021E533A9
:101C5A00640170219026A993B531077898E6F5EAD0
:101C6A00800D9026AAE493B531097899E6F5EA122F
:0D1C7A001108228004800280001226AD2295
:1021480012259A4025E5364534701DE53564017041
:1021580017E5337005853EEA8008E533B401078545
:0E21680044EA12110822800280001226AD22E5
:100E7E001225AF5003020F57E5346003020F5AE5F7
:100E8E00367071E5359408506BE53354FE7063E5AA
:100E9E00314533700BE532B40206754812020F3538
:100EAE00E531B4050FE532B4030AE535B406057530
:100EBE0048168073E531B4220AE532B4030575484D
:100ECE00168064E531B4230AE532B403057548167D
:100EDE008055E531B41F0AE532B403057548168016
:100EEE0046E531B4250AE532B40305754816803758
:100EFE0080578055E53164067020E5326403701A20
:100F0E00E53664047046E53564107040E5336401DF
:100F1E00703A7548177549048027E531B4200EE5FF
:100F2E0032B40309754816754904E48014E533702C
:100F3E0016E5317010E532B4020B7548127549058D
:0D0F4E00E412111C22800280001226AD2248
:101A40001225AF404F1211887048E5337009E53117
:101A5000704275480D8010E53364017033E53170D4
:101A60000B434F0375480F754901801E9026A9E46A
:101A700093B531089026A1121175800E9026AAE424
:101A800093B5310A9026A212117512111C228004FE
:081A9000800280001226AD2245
:1020EA001225AF40271211884532701EE533700859
:1020FA0075480E754901800CE533B4010B7548101B
:10210A00754901E412111C22800280001226AD22B8
:0627400053EFFBD2AF22B3
:062746001210EF02173A29
:0927010043EC0253EFFBD2AF22BE
:1013ED00E54E454D607012114E40051211588008A2
:1013FD00854E4AE4F54DF54EE54A604FE547604BA5
:10140D00E54764087031E54E454D702BFFE54A24E4
:10141D00FEFEEFC39E500C12118F700205291211A2
:10142D004380EA7870E6FEC4540F2430F5EAEE549A
:10143D000F2430F5EA8014E4FFEFC3954A500C12E7
:10144D00118F7002052912114380EE854AEB12119E
:10145D000E2012118008301109C211E4F5EB43EC96
:05146D00012243EC0226
:011472002257
:06274C001210EA02173A28
:062752001210EA02173A22
:0B26B90053DBEFD213E4F54702273A91
:0B26C40053DBEFD213E4F54702273A86
:062758001210EF02173A17
:06275E001210EF02173A11
:102306008546F2E4F53B53E4F753E7F7E5F2600858
:102316005320F043208480065320F0432082022776
:012326003A7C
:101F860085313BE53B601453E4FD43E40C53E7FD28
:101F960043E70C5320F0432088801853E4F753E7B7
:101FA600F7E5F260085320F043208480065320F0C2
:061FB60043208202273ADD
:06276400E4F5A402273A8F
:06276A0053EFFD02273AC7
:0627700053ECFD02273AC4
:09270A0053E4FD43E40C02273AFC
:0927130053E7FD43E70C02273AED
:0627760075A4FF02273AE2
:06277C0043E40E02273ABF
:0627820043E70E02273AB6
:0300660002273A34
:03006E0002273A2C
:09271C0085323C85323D02273A6A
:101FBC00E54F5403FFBF0314E4FF74982FF8A632C7
:101FCC00749A2FF8A6320FBF02F08017E54F30E05D
:101FDC000A7898A632789AA63280087899A6327830
:061FEC009BA63202273A19
:0A26E40085313E78BC760102273AEA
:0A26EE0085314478BC760102273ADA
:10263500E549B4040CE52F5407F52B301303122795
:022645003A2237
:10193300E52F64057031E530B47518E5344533455A
:101943003245317022C2AF745A75F0A512001ED20F
:10195300AF8014E530B4A0067895760B8009E530A6
:10196300B4A1047896A631E52FB4230478D8A63021
:10197300E52FB4250678D7A630800DE52FB42208CD
:0B19830078BDA63078BC760102273A40
:1012D000E52FB4061FE531B4CC1AE532B4CC15E5E0
:1012E00035B4CC10E536B4CC0B7B007A00792F12E4
:1012F0000CA8806BE52F64EE702DE53164CC70276F
:10130000E532B4CC22E533B4CC1DE534B4CC18E5D9
:1013100035B4CC13E536B4CC0E7B007A00792F12AD
:101320000CA8E4F54980387D01AF2F1218117D011A
:10133000AF301218117D01AF311218117D01AF329B
:101340001218117D01AF331218117D01AF3412183C
:10135000117D01AF351218117D01AF36121811E45D
:03136000F5B922BA
:1023FF00C2AF43EF04122687EF75F003A424B3F5A1
:0D240F0082E4340412116853EFFBD2AF22B7
:1018D400C2AFE5EF30E402802943EF04E5EE602770
:1018E400E5EEC39409400E12118143EC0243EF026A
:1018F40012273A801DAFEE12238653EFFEE5EF3038
:10190400E41553DBF7800B53EFFEE5EF30E40853A7
:10191400DBF753EFFB8012122687EF75F003A42444
:0F192400C5F582E4340412116853EFFBD2AF22F1
:10157600AF36EFFEAD357C00E42DFFEC3EFE75493F
:1015860002F54D8F4EE547600FC3E54C9FE54B9E38
:101596005006854B4D854C4E12114E400DE5496463
:1015A600026005E549B404020549E54E5407700496
:1015B600D2118002C21112114E4005121158800834
:1015C600854E4AE4F54DF54EE54A6018E547601448
:1015D600E4FFEFC3954A500C12118F7002052912D1
:0A15E600114380EE854AEB12110E4E
:0115F00022D8
:0C26AD0043EC0243EF02E4F549F5B922CA
:04001E00023F00227B
:02219400C12860
:101CD2001225EC78BA7601E478BEF608F678C0F6FA
:101CE20008F612272CC2B71209681226942003059F
:101CF200E4F52180ED121663121D1B300B0EC20B90
:101D02001226CFE56E70DB12225080D6300C05C24F
:091D12000C121BEA12241C80C90A
:1025EC00752E1475D3CE53DAF753DAFD75D4A07566
:0325FC00A888228A
:0D26940043DD0643A95B43A88053D0E72235
:0B26CF00E53C6006D53D03853C3D2244
:10241C00E551B5370BE4F537F55130090EC20922F9
:0C242C000537E537540FF53712051F2265
:10225000539EF8E52B30E006C2C1D21A8004D2C1E9
:10226000C21AE52B30E104C2C08002D2C0E52B3097
:08227000E203C2C222D2C22225
:10080A0000000400020800000000020100000000CD
:10081A0000000000000002020139012B0000000064
:10082A0000000000000000000000000000000000BE
:10083A0000000164010401140000013509290000C7
:10084A000204011D0116011A011E00000600000023
:10085A000000011B01070108011F0000060100003A
:10086A000000010601090115012000000C3C0000EE
:10087A0000000119010A0117012100000602000007
:10088A0000000105010B011C012200000603000003
:10089A00000001110A000A010123060406050000EE
:1008AA0000000A020A030A040A050A0607000000F1
:1008BA00000001360A070A080A09070107020000B0
:1008CA0000000A0A0A0B0A0C012D0A0D0703000090
:1008DA0000000A0E0134012F012E01000704000056
:1008EA00012C022001310130070901280000000013
:1008FA000240021007050706070707080000000064
:10090A0000000000000000000000000000000000DD
:10091A0000000000000000000000000000000000CD
:10092A003AA53BA63D7F3E8140FE3F804149435365
:10093A00424644474548504A524B514E4F4D2A4C25
:10094A000D59185C10620E5A0C5D2560245F0F5B0E
:0E095A00125E26613763335713562755385403
:0C21960001DC0001D90001DB0001DA00CF
:1017A900E56425E02436F582E43409F583E49322DF
:1017B900F583E493FDA20AE433FF22A20AE433FF8E
:1017C900AD6422E56425E0242AF582E43409F58331
:1017D900E493FD22E56425E0244BF582E4340922F3
:1017E900E4F56CF56D78E0E622E56425E0242BF557
:1017F90082E4340922E56425E02437F582E43409DA
:0818090022E4F56CF56DEF22FD
:10051F0074852537F8E6FFC3949040030207D8751A
:10052F00F002EFA4240AF582E5F03408F583E49392
:10053F00F56575F002EFA4240BF582E5F03408F5AC
:10054F0083E493F564E56570030207D8122327E56A
:10055F0065B40409300A04D2268002C226200A0399
:10056F00020718E565B4020CE564B4080478DB767D
:10057F0001020726E565B40103020731E565B403FF
:10058F000302073CE565B40503020747E56564060A
:10059F0070203026171217F2F583E493FDB4FE098D
:1005AF00302403C22422D2242202075F1217CC0266
:1005BF00075FE565640760030206A930260B121773
:1005CF00FEF583E493FD02075F78DBE67003020616
:1005DF00A21217A9B443047F0180027F00EF6029A4
:1005EF00E478DAF678E0E6FF30E00B12180A54FEF2
:1005FF00F6756E0480091217E94401F6756E06D27E
:10060F00C0D2C11207D91226231217A9B444047FEE
:10061F000180027F00EF602978DA760178E0E6FF4B
:10062F0030E10B12180A54FDF6756E04800912178B
:10063F00E94402F6756E06D2C0D2C11207D912264E
:10064F00231217A9B445047F0180027F00EF7003C6
:10065F000207D878DA760278E0E6FF30E20B12185C
:10066F000A54FBF6756E0480091217E94404F675F7
:10067F006E06D2C0D2C11225D87D017FA0121811EB
:10068F007D01E4FF12181178E0E6FF7D01121811C9
:10069F000226231217A9FD02075FE565640A702978
:1006AF0030260B1217DDF583E493FD02075FE56437
:1006BF0025E0301A051217E18007244AF582E43449
:1006CF0009F583E493FD02075FE5656409700A305D
:1006DF002605A20A0207AB8049E565640C60030298
:1006EF0007D8302622E5E430E3FBE5E4540370F548
:1006FF001207F4121663E5E430E3FBE5E4540370EC
:10070F00F51207FF0207D58019E565B4020FE564FE
:10071F00B40804E478DBF61217C4022647E565B483
:10072F0001061217C40207AFE565B403061217C41A
:10073F00021E69E565B405061217C40224F4E565C7
:10074F00640670141217F21217B9121AED1217CCA1
:10075F00A20AE433FF0207AFE565640770111217B1
:10076F00FE1217B9121AED1217A91217BD8031E533
:10077F0065640A70191217DD1217B9121AEDE564C4
:10078F0025E0244AF582E434091217B98012E56591
:10079F00B409101217C4121AEDA20AE433FF7D66D2
:1007AF00021AEDE565640C7020A20A33FFAD6412E6
:1007BF001AED1207FF121663E5E430E3FBE5E4548C
:0907CF000370F51207F412166321
:1007D800221225D87D017FA01218117D01E4FF1295
:1007E800181178E0E6FF7D0112181122A20AE433FD
:1007F800FF7D0812264722A20AE433FF7D13121A4E
:02080800ED22DF
:101AED00EF601FE4FE74B02EF8E6700974B02EF8A6
:101AFD00A605D2222274B02EF8E66D60370EBE0612
:101B0D00E422E4FE74B02EF8E66D7024EEC3940565
:101B1D005017AF06EFC39405500F74B12FF8E6FCC4
:101B2D0074B02FF8A6040F80EBE478B5F6D222221C
:041B3D000EBE06D002
:011B41002281
:101E6900ED2450131313541FFE53061F0EED540790
:101E79009026A193FBFCEF601074B62EF8E65C7017
:101E89001A74B62EF8E64C800F74B62EF8E65C602C
:0B1E99000A74B62EF8EBF456F6D221C6
:011EA400221B
:10264700D222EF600678AFE64DF622EDF478AF566A
:02265700F62269
:1024F400EF600A78B6E65D7010E64D800978B6E6BE
:0A2504005D6006EDF456F6D22022C9
:1016630078E0E6FE30E004C2B18002D2B1EE30E1B0
:1016730004C2B68002D2B6EE30E204C2B78002D210
:10168300B7E5E430E348E5E45403704230223FC257
:1016930022E59630E4045396EF22C2AF78AFE6F525
:1016A300E2E4F5E230080AFF75E2010FBF06F980B4
:1016B3000DE4FF74B02FF8E6F5E20FBF06F5D2AFE5
:0E16C30075E30843E401853C3DE4F53AF54546
:0116D10022F6
:101D1B00E5E730E342E5E75403703CE545703830C6
:101D2B002011C220C2AF75E50278B6E6F5E575E67F
:101D3B0002801A302121C221C2AF75E50378B7E6C4
:101D4B00F5E508E6F5E508E6F5E575E604D2AF43FB
:081D5B00E701E4F53AF5452229
:1021D0000102040810204080FEFDFBF7EFDFBF7F07
:1021E000FEFDFBF7EFDFBF7FEFDF00000000000028
:0C21F000000001010101010101010303D5
:0E267900E5269021D8932254079026A19322A3
:101BEA0020094C121740300F028041E52770177404
:101BFA00712526F8A6390526E526C3941250012236
:101C0A000527E4F5262274712526F8E6653960026F
:101C1A00801A0526E526C39412500122121EE0926C
:101C2A00083008028006200903121EA512278822FE
:10254000E4F59CF59BF59A539D0D7580FF7590FF02
:0825500075A0FFD2B4D2B52240
:10252700E4FEFDEE25E0FEED9021D0935F600343CE
:0825370006010DBD08EDAF0621
:01253F002279
:10174000122540E526C39412505AE5269021EA93CB
:10175000FFC39404504AEF64026045EF70071226FD
:1017600079F5808020E5269021EA93B401071226BE
:1017700079F5908010122679B4EF06C2B4D2B58004
:1017800004D2B4C2B512273385A039122733E53904
:10179000B5A0F2AFA0122527EFF4F539C20F8006ED
:0917A000D20F8002D20F02254095
:101EE000E4FFFE74712EF8E6FD5FFCED4207EC6046
:101EF00023C3135455FDEC54552DFC13135433FDDB
:101F0000EC54332DFCC4540FFDEC540F2DD394012D
:091F10004002D3220EBE12CBC325
:011F190022A5
:06278800E4F527F526220E
:101EA500E4F564F564749C2564F8E6FF74712564B3
:101EB500F8E6FEB507028019EE6FFFAD64120D93CB
:101EC50050012274712564F8E6FF749C2564F8A618
:0A1ED500070564E564C3941240CBD6
:011EDF0022E0
:040D93008F658D6675
:100D9700E4F56874712566F8E6F567E4FF43688053
:100DA700E56825E004F568C20AE56730E702D20A7C
:100DB700E56725E0F567E56520E70EBF0702C32273
:100DC700E56525E0F565020E72E56525E0F565E563
:100DD70066C394124002D3220551E551540FF551D1
:100DE700E56633333354F84FFE74852551F8A6066C
:100DF700E551122680FE200A15E55130E308EEF48E
:100E0700788456F68016EEF4788356F6800EE55110
:100E170030E304788480027883E64EF6E55165373F
:100E27006007EF64077044C322EFC394075017E5C8
:100E37006825E0F56830D7047E0180027E00EE2544
:100E470068F5680F80E374712566F8E56856F674EF
:100E5700712566F9749C2566F8E568F45647F71519
:100E670051E551540FF551D209C3220FEFC394082E
:060E77005003020DA4D39C
:010E7D002252
:10232700E53730E309122680788456FF8009E537C0
:10233700122680788356FFEF7003C38001D3920A79
:012347002273
:1011B5000225FFE493A3F8E493A34003F68001F22C
:1011C50008DFF48029E493A3F85407240CC8C3333B
:1011D500C4540F4420C8834004F456800146F6DF0A
:1011E500E4800B0102040810204080902176E47E03
:1011F500019360BCA3FF543F30E509541FFEE493FF
:10120500A360010ECF54C025E060A840B8E493A3C5
:10121500FAE493A3F8E493A3C8C582C8CAC583CAF0
:10122500F0A3C8C582C8CAC583CADFE9DEE780BEA8
:0121A200003C
:1016D200BB010689828A83E0225002E722BBFE0216
:0916E200E32289828A83E4932249
:1016EB00BB010CE58229F582E5833AF583E02250B4
:1016FB0006E92582F8E622BBFE06E92582F8E222FE
:0D170B00E58229F582E5833AF583E4932217
:10171800F8BB010DE58229F582E5833AF583E8F007
:10172800225006E92582C8F622BBFE05E92582C8B3
:02173800F2229B
:06173A008A838982E4733A
:00000001FF
