:0C230E00010204081020408003020301BB
:10223A00C2AF53D0E7122385121CD7300703121AF4
:02224A00702200
:07237E0075D4A075A88822A8
:101CD700E59630E104D21B801EE59630E20512221C
:101CE700708017E59630E305121E77800DE5963074
:101CF700E005121FF7800612212AE4F596022385D4
:10212A00759D0DE4F5581223851222811223857FAD
:0A213A006E12203212237E021EF006
:10227000122385122281121F377520827FCA020025
:012280005EFF
:101F3700E4F5F275697D756A7D756B01FF74A72FEE
:101F4700F8E4F674A92FF8E4F60FBF02F0757101F3
:011F57002267
:101FF700E59630E40675721912237EE5F354CA4458
:0E200700C2FF12005E121CA553968E0221909D
:101CA50030032EE4F56CE5E430E00353E4FEE5E7AC
:101CB50030E01E53E7FEE56590231693F5E5E565EF
:101CC50090231893FFEF6006E4F5E51F80F743E7DF
:011CD500010D
:011CD60022EB
:101E770012238543C067759E6075F3811200361281
:101E8700224CEF20E504EF30E6E675F301759E601E
:0B1E97007F6212203212237E02212AFB
:03000300020026D2
:03002600C2A8323B
:03000B0002000AE6
:01000A0032C3
:0300130002002EBA
:03002E00C2AA3231
:03001B0002208838
:10208800C0E0C0F0C083C082C0D075D0081220154F
:0B209800D0D0D082D083D0F0D0E03256
:0300230002004692
:03004600C2AC3217
:03002B0002004E82
:03004E00C2AD320E
:0300330002005672
:03005600C2AE3205
:030043000220A3F5
:1020A300C0E0C0F0C083C082C0D075D01812104801
:0B20B300D0D0D082D083D0F0D0E0323B
:03004B000220BED2
:1020BE00C0E0C0F0C083C082C0D075D018121048E6
:0B20CE00D0D0D082D083D0F0D0E03220
:03005300020006A2
:0400060053A9FB32CD
:03005B000220D9A7
:1020D900C0E0C0F0C083C082C0D075D01812204FB4
:0B20E900D0D0D082D083D0F0D0E03205
:030063000220F484
:1020F400C0E0C0F0C083C082C0D075D01812138A6B
:0B210400D0D0D082D083D0F0D0E032E9
:03006B0002000E82
:04000E0053A9DF32E1
:0300730002210F58
:10210F00C0E0C0F0C083C082C0D075D0181210C913
:0B211F00D0D0D082D083D0F0D0E032CE
:03007B000200166A
:0400160053A97F3239
:10201500E4F594759355D55B11D20B755B143003BC
:0D20250009E572D3940040021572D20C221E
:0F2281001221A7122385122351E4F595021ECADC
:1021A700E4F5A8F5A9F5DCF5DDF5B8F5B9F5DAF547
:0621B700DBF5DEF5DF227E
:101ECA00E4F59AF59BF59CF59D759E60F5A4F5A23F
:101EDA00F5A3F5A5F5A67580FF7590FF75B0FF759A
:061EEA00A0FF43C0072227
:09235100121D07121DC50221BD79
:101D0700E4FF745C2FF8E4F60FBF08F6E478BEF63C
:101D1700FF74BF2FF8E4F60FBF06F6E4FF74C52F74
:0F1D2700F8E4F60FBF04F6E4F522752120F52449
:011D3600228A
:101DC500E4F554F5537893F618F6F566F565F57E62
:101DD500F564F568F56CF56DF56EF56FF570F571F3
:0D1DE500F572787FF678A576F078A4F622E6
:1021BD007F127880E4F608DFFC1223477F107894B5
:0521CD00E4F608DFFC50
:0121D20022EA
:092347007F1278ABE4F608DFFC1C
:01235000226A
:07238500E4F5947593552265
:10224C001223851222138F4A122213E54AB507F086
:01225C00FF82
:01225D00225E
:1022130012238585C04B12238CE54BB5C0F2E54BE9
:032223005460FF05
:012226002295
:101EF000C2AF122385439E6075F301752001301B2C
:101F00001375F341121F37D207D21BD219C2187FA3
:051F1000C212005E2278
:03005E008FF322FB
:10203200C2AF75D3FC75D4F053DAF7EF600E1223FA
:0D20420085E5DA30E3F853DAF71F80EF226E
:07238C000000000000002228
:0D003600000000000000000000000000229B
:1021D30012003600000000000000000000000000B4
:0621E300000000000022D4
:1037FB00020E08000075F0A5C2AF759355E5962033
:10380B00E16230E228E520B44123B52420E521B460
:10381B004B1BE522B44916E523B4521101D5759E15
:10382B006075C07F9037FEE493645A60EF9037FB6E
:10383B00E493B402E7E4F5F0900000758107F5D04E
:10384B000237FB903FBA78207906E5F0B4A5FDE48A
:10385B0093F608A3D9F9E4F51DF51EF51F9037FF74
:10386B0093F52722114E741420C5B330C6B01470D3
:10387B00F7F59EF8741475C0DFD8FE30C6A075C07E
:10388B00BFD8FE20C59875C0FFD8FE30C590B40ACE
:10389B0002F51DB41103751E09B40602F51F7593CD
:1038AB0055D5E0D2D8FE20C50520C60221A67581CC
:1038BB002775C09F7512057D377CFE745AB1BEC249
:1038CB00C5D1C5D2C5D1C530C5F575935575812701
:1038DB00E4F5D0759E6075C07FE596540A600A7555
:1038EB00F301114ED1CF75F3C2513075F3CA7594F4
:1038FB0003E520B441FD652470FE20AFFD759355A3
:10390B00E5DB30E03B53DBFEE5EF5418701C7153E5
:10391B00BB082043EF0453EFFEE5EF20E41571E500
:10392B00516420330E53EFFB01FC20E40E43EF04F4
:10393B0053EFFE43EC0243EF0271F153EFFB01FC3B
:10394B0030E10553DBFD211330E31F53DBF753EF5E
:10395B00FB20300471612170E510B40106E50AF516
:10396B00F2600071F153EFFB01FC30E42C53DBEF01
:10397B00E5EF20E41443EF04203104E5EE700E5321
:10398B00EFFE71F153EFFB01FCD233213E71534338
:10399B00EF0453EFFE71AD218F01FCC2C67594038A
:1039AB00758127513075120575C0FF75935520C56C
:1039BB00FA30C607C2C620C5EF21C174025122B42A
:1039CB003310511DFC511DFDBD5ADDEC70DAF11B9E
:1039DB0021B3B4551679087A08511DF709DAFA792B
:1039EB00087A08E7B1C409DAFA21B3B466FD913756
:1039FB0070FE7A08D18D759355D375C0FF30C5FD18
:103A0B0020C5FD3392C6C370F430C5FDC2C6DAE4DF
:103A1B0021B375C0FF740130C5FD20C5FDA2C633AF
:103A2B0050F5C2C622E4F596F5F2F5267818F6D8CD
:103A3B00FDF5A8F5A9F5DCF5DDF5B8F5B9F5DAF581
:103A4B00DBF5DEF5DFF595F59AF59BF59CF59D1409
:103A5B00F580F590F5A0F5B0227B00E5087012D249
:103A6B0030E509B4050474014187B4095DF52241C1
:103A7B008620E759D230E509B40A09E48BEBF5103F
:103A8B0043EC0122B40943E508B4213EE50BB40233
:103A9B000474024187B403329100B4050CBE062AAC
:103AAB00BF002774047E044187B4060CBE021BBF03
:103ABB00081874067E004187B4410FB5250C913769
:103ACB0060021161B11974084187D23322D23120BF
:103ADB00E534E509B406F3E50B30E502941B60EA27
:103AEB00B4080050E523F8903FAA93FC7D3FE8040F
:103AFB0093FE7F00E50F7009C3EE950E4003E50EB4
:103B0B00FE7512416192B4A1C1D509BEE50BB40398
:103B1B00B99100B40519BE06B1BF00AE7A04E51326
:103B2B00B452A77B028512EA75EA721E1E6185B438
:103B3B00060ABE0295BF08927A066129B4418BB57D
:103B4B0025889137708461927808E5EEF9FB600562
:103B5B00A6ED08D9FB22E5106010EF7008EE600BA4
:0D3B6B00B40802D234E510B405092210346C
:103B780001227B004186B4070E7A087B0071FB7135
:103B88009E912E74074187B409E37198740941879F
:103B9800B1187A087B00EE4F600AEA6007D18DF50C
:103BA800EA0BDAF222E510B40220E509F4551130E7
:103BB800E21453F3F7759E6075C07F11615130753B
:103BC800F301D1C5013885091122B40406910D7B92
:103BD800004186B4060281D7B408EEA101E453DBA4
:103BE80067F5E953ECFD53EFFDE4F510F512F52602
:103BF800D23722AC14AD1522AC0CAD0DAE0EAF0F02
:103C0800E50AF51222E508B405FAE509B477028158
:103C18001BF513B4521E91376008E50BB4FC0C7504
:103C28000A00AC0AAD0B8C148D1522E4F51322E5BD
:103C38002764A522B45706913770F0812AB4560933
:103C4800912AEC4D70E5F51822B47727E513B4579F
:103C5800B371FB7A04790AEE4F600BE513B4570889
:103C6800E7B1C409DAF1812ED18D67600474EE42A0
:103C78001880F0B44116E50AB44B11E50BB4490CB1
:103C8800E50CB45207E50DB44102F52554DFB445FF
:103C98003DE50AB4450D630B4F630C4C630D43912E
:103CA800CCE11BB45A087CFE7D37E50BA1BEB4A558
:103CB80007B5271A7CFF81B0B4FF069137700FA1B2
:103CC8002CB4050A850B1D850C1E850D1F2222E5C7
:103CD8001354FEB4561F103708EB7908FA71FB81AC
:103CE8005FE5096420B5130DE508B40608790AEB09
:103CF800C3940250E775130022EB6014B408004027
:103D0800027408FA7908EE4F6006E7B1C409DAF6DA
:103D180022913770FBEDB45AF7ECB4FE047455A148
:103D28003CB4FF0474AAA13C543CF5F775BE007579
:103D3800BF0074E6F5B3759355751C05E512B40517
:103D480055851CB4751C0A851DB5851EB6E5B3B42A
:103D5800E61AE5F724C8502B8030E5BEB4030050BE
:103D680022048380023800B5BF20A18BB46E14E50D
:103D7800F760E724C8500C24F9500F700DE5BE24F5
:103D8800415007851FB700000000E4F5B3F5B4F50E
:103D9800B5F5B6F5B722B40602A149B441F7A14971
:103DA800EE70011F1E227D007C017438B1BE7400C4
:103DB800B1BE7C007402F5BF8DF7C110F5BFE512E6
:103DC800B44102C108BDFC0A75F73FEC44C0F5BE1A
:103DD800C112ED700FECB40300502575F73724FBC2
:103DE800F5BEC112B4FF09303016EC20E712C11934
:103DF800B43800501CB43708BCFA004003BCFA11B0
:103E0800EDB440005026F5F78CBE746EB13C75F7E2
:103E180000B1A8C1B7B4FE07ECF8E5BFF6C119B404
:103E2800FD08ECF875F700E5BFF2C119B4FFE6EC40
:103E380033745A4001C48CBEC114E583700CE5820A
:103E4800B40300504B9037FBC18AB4FF0A303140AD
:103E5800E58220E73BC186B4FC1575833FEC30E76B
:103E68000644C0F582C1895403FC2418F8C1ADB4D6
:103E78003800500AB43719E582B4FA004012903776
:103E8800FAE493C1B7B1A88C828D83E512B441AA34
:103E9800E583B440005004E493C1B7B4FF02C1B64F
:103EA800B4FE05A882E6C1B7B4FD04758300E00C32
:103EB800BC00090DBDFD011DBD00011D22D1C7D8E3
:103EC800FE759355D9F9227806E4F6D8FD7F40753A
:103ED8001205D18D29F950050ABA00010B759355C1
:0D3EE800BD40EF891B8A1A8B19E94A4B6017
:103EF50006BB3F06BAC0037527A522C2AF53F3F729
:103F0500759355758127B45AFDE4F5D0F5F3759E83
:103F15006075C07F01EA74381454FCFAB130EA7058
:103F2500F7B1AEB1AEC1CF12011001000000080318
:103F35000620100103000000010403090409022200
:103F450000010100A032090400000103010100097C
:103F550021100100012248000705810308000A0518
:103F6500010906A1018507050895087501190129AB
:103F7500089102C00600FF0901A10185051500256C
:103F8500FF1901290575089505B102C00600FF094D
:103F950001A1018506150025FF1A01002A010875F2
:103FA50008960108B102C02C1242223E044B095D5D
:103FB5000754096448414B49524100000000000084
:103FC50000000000000000000000000000000000EC
:103FD50000000000000000000000000000000000DC
:103FE50000000000000000000000000000000000CC
:0B3FF5000000000000000000000000C1
:03000000023800C3
:100E0800000000E59620E10B20E20E20E30B20E035
:0F0E180008800078FFE4F6D8FD7581DF020E62D6
:101F9A0002A00003A001AA02A00203A0020002A05C
:0F1FAA000302A00503A0030003A006EEA0081A7F
:0622E70001CB0001CD0057
:101703001212F9901FB8E493FF227A1F799B901F5E
:101713009A7BFFE493F550227B007A0079BD7550E4
:10172300012278D9EFF6D2AF78A4227BFFE493F5B8
:101733005022AB40AA41A9429000031212F9900033
:101743000422D2AF75E60643E701E4F567F572229A
:1009960078A5E6240F6075147003020A2724FE70FA
:1009A60003020A3A147003020A70147003020AACB6
:1009B600147003020A4D24FA7003020AAC240D6077
:1009C60003020AB7C2AF12188978D9EFF6D2AF641C
:1009D600FA703178BDE678A4602676E0C2AF1217C9
:1009E600067BFF7A1F79B675500212196212170636
:1009F6007B007A00794A75500C121555D2AF8008E3
:100A060076D0800478A476D078A576F1C2AF121499
:100A160046121725BFFA0476E1800276D178A576CC
:100A2600F2C2AF1214FC121725BFFA0476E2803523
:100A360076D28031C2AF121C72121725BFFA047625
:100A4600E4800276D4801EC2AF1217067A1F79AFF1
:100A5600901FAE121714121962121725BFFA0476E8
:100A6600E7800276D778A576FC22C2AF1219EEEFA0
:100A760064FA7027901FB893FF7A1F79B3901FB25C
:100A860012172E121962BFFA1078BDE678A4B401C7
:100A96000476E5800A76D58006800078A476D57837
:100AA600A576FCD2AF22E478BDF678A576FC78A4CC
:010AB600F649
:010AB700221C
:101889007F16122032E478BDF678DAF612170612BE
:10189900170D12196278DBEFF6BFFB02801A1217D7
:1018A9000612171B12155578DBEFF6BFFB028008ED
:1018B90078BDE660037FFA227F0512203278DA06C6
:0818C900E6C3940840C67FFB52
:0118D10022F4
:101446001217067A1F799E901F9D12172E12196287
:1014560078DAEFF6BFFB037FFB227F0512203212FC
:1014660017067BFF7A1F79A2901FA1E493F550120D
:10147600196278DAEFF6BFFB037FFB22121706121A
:10148600171B12155578DAEFF6BFFB037FFB2278A0
:0B149600BDE6645560037FFB227FFA77
:0114A1002228
:1014FC001217067A1F79A5901FA4121547BFFB037C
:10150C007FFB227F191220321217067A1F79A990BD
:10151C001FA8121547BFFB037FFB221217061217D9
:10152C001B12155578DAEFF6BFFB037FFB2278BD53
:0A153C00E6645560037FFB227FFA8E
:0F154600227BFFE493F55012196278DAEFF62258
:101148008B408A4189429000011212CC242F6024DE
:101158001460462402706490000274A01212F99080
:1011680000037414121703E92402F9E43AFA7550DB
:1011780004121962743412173574A01212F990000F
:101188000574181212F9122290AB40E5422403F9B3
:10119800E43541FA7D03021E1F1222DA74A01217E9
:1011A8003574041212F990000574EE121703E9243D
:0C11B80003F9E43AFA75500312196222A0
:101C72001217067BFF7A1F79AC901FABE493F550E5
:101C820012196278DAEFF6BFFA1612170612171B4C
:101C920012155578DAA60778BDE6B455037FFA2205
:021CA2007FFBC6
:011CA400221D
:1019EE00E478BDF678DAF612170612170D121962A0
:1019FE0078DBEFF6BFFB02801A12170612171B12C6
:101A0E00155578DBEFF6BFFB02800878BDE6600364
:101A1E007FFA227F0512203278DA06E6C394084058
:031A2E00C67FFB75
:011A31002292
:0F229000D2B0D2B212238CC2B01221D3C2B2226A
:0D22DA00C2B012238CD2B21221D3D2B02296
:10160500E4F552FEEF30E704D2B08002C2B000002C
:1016150000000000D2B2EF25E0FF0000000000004E
:10162500000000000000C2B20EBE08D80000000095
:101635000000000000000000D2B000000000000023
:10164500D2B212238CA2B0E433FDC2B2BD01037F36
:04165500FB227FFAFB
:01165900226E
:1018D200E4F552D2B0FED2B2E55225E0F552A2B002
:1018E200E43342520000000000000000000000004B
:1018F200C2B20000000000000000000000000EBEA6
:1019020008D4EF6004D2B08002C2B012238CD2B2EB
:0719120012238CC2B2AF5298
:0119190022AB
:101962008F4C8B4D8A4E894F122290E54C25E0FF19
:101972007D01121605BFFA23AF501550EF6022AB5E
:101982004DAA4EA94F1212B3FF7D01121605740122
:10199200254FF54FE4354EF54E80DD1222DA7FFBFE
:0719A200221222DA7FFA2273
:081555008F4C8B4D8A4E894F2B
:10155D00122290E54C25E04401FF7D01121605EFA6
:10156D0064FA701CF551E55014FFE551C39F500905
:10157D00E4FF121599055180ED7F01121599800632
:0B158D001222DA7FFB221222DA7FFA22
:10159800221218D2AB4DAA4EA94F855182758300ED
:0515A800EF1212F92210
:101E1F008B438A4489458D46AF461546EF601CAB10
:101E2F0043AA44A9451212B3FF7D0112160574018E
:0C1E3F002545F545E43544F54480DD22DE
:101B2500E478BEF6FF74BF2FF8E4F60FBF06F6C2E1
:101B350022E478CDF678CBF678C9F6C2AFF5E2F5B2
:101B4500E2FFE4F5E20FBF06F9D2AF75E30843E41F
:091B55000185696AE4F567F57287
:011B5E002264
:1016AF0078C9E6B421047D4F803D78C9E6B42204A1
:1016BF007D50803378C9E6B423047D51802978C9E1
:1016CF00E6B424047D52801F78C9E6B425117D024B
:1016DF00E4FF12225E1217A31221D37D2B8008780C
:1016EF00C9E6B4260A7D2BE4FF12165A1217A3E49B
:0416FF0078C9F6228E
:10007E0078CDE6D39400401716E6701B78C9E6FFDC
:10008E0094214010EFD39426500A1216AF800878B0
:10009E00C9E66003121B2530B3030203C678CAE615
:1000AE0060030203C6C2AF1222907D017F2012169A
:1000BE0005BFFB061222DAD2AF2212238C7D017FFE
:1000CE00551216051222DA1200367B007A0079D408
:1000DE007550057F10121555BFFB03D2AF22D2AF5C
:1000EE0078D4E6FFB45006E478CEF608F630240352
:1000FE000203C6EF645060030203C678D8E6C45408
:10010E000F78D3F670030202C878D5E654706003F8
:10011E000202C8C2AF78D3E6FF64086012EF64092A
:10012E00600DEF640C6008EF640D60030201D97876
:10013E00CBE6FFD394004008EF64216003121B2529
:10014E0078CB762178CD766478C9E660030202C555
:10015E0078D3E66408702178CCE670107D04120323
:10016E00C778CC760178C976260202C57D4F120477
:10017E000978C976210202C578D3E664097026781B
:10018E00CCE670157D0412042D7D021203C778CCC7
:10019E00760178C976250202C57D5012040978C908
:1001AE0076220202C578D3E6B40C0A1203FE78C991
:1001BE0076230202C578D3E6640D60030202C57D84
:1001CE005212041278C976240202C578D3E6FF646F
:1001DE00016005EF6402704478CCE66007121B25BF
:1001EE00E478CCF678CBE670097D0112042D78CB3D
:1001FE007620C2AF75E501E478D2F6E4F5E578D263
:10020E0006E6B403F678D3E6B4010575E50180037E
:10021E0075E5FFE4F5E51217450202C578CBE660F9
:10022E00030202C578D3E6B4030A1203DA78CB765A
:10023E00030202C578D3E6B4040A1203EC78CB7637
:10024E00040202C578D3E6B4050D1204361203FE7D
:10025E0078CB76050202C578D3E6B407091203DA25
:10026E0078CB7606805178D3E6B4060E1204367D2E
:10027E000712041278CB7607803D78D3E6B40B09CB
:10028E001203EC78CB760E802E78D3E6B40A127D6C
:10029E00087F0112225E7D0512042478CB76108031
:1002AE001678D3E6B40E107D0B7F0112225E7D719F
:1002BE0012042478CB760FD2AF2278CBE6FFD394FC
:1002CE0000500302036DEFB4200A7D0112041BE4FB
:1002DE0078CBF62278CBE6B4210C7D0412041BE415
:1002EE0078CCF618F62278CBE6B40302801878CBD9
:1002FE00E6B40402803D78CBE6B405047D51804916
:10030E0078CBE6B406047D2B803F78CBE6B40704A9
:10031E007D07803578CBE6B40F137D0BE4FF1222F8
:10032E005E1217A37D71E4FF12165A802B78CBE66E
:10033E00B40E0E7D73E4FF12165A1217A37D0B80B6
:10034E001278CBE6B410117D05E4FF12165A12177F
:10035E00A37D08E4FF12225EE478CBF60217A3C257
:10036E00AF75E50178D5E6FFC45403F5E508E6F46C
:10037E0004F5E508E6F404F5E5E478D3F6EF5470F9
:10038E00702E78D8E6FF5407602678D376FFEF30CC
:10039E00E302760178D5E630E70CE4F5E578D3E6AE
:1003AE00F404F5E5800F78D3E6F5E5E4F5E5800590
:0803BE00E4F5E5F5E512174531
:1003C600227F0112225E1217A37D2B7F0112165A7D
:1003D6001217A3227D087F0112225E7D2B7F011258
:1003E600165A1217A3227D0B7F0112225E7D737FA0
:1003F6000112165A1217A3227D517F0112165A12A4
:1004060017A3227F0112165A1217A3227F01121672
:100416005A1217A322E4FF12225E1217A3227F01AB
:1004260012165A1217A3227F0112225E1217A32256
:080436007D087F0112225E2205
:100D6000E47817F678CF06E618700106D378CFE658
:100D7000942018E6944E405D78CAE6705878CEF616
:100D800008F6C2AF1222907D017F20121605EF6493
:100D9000FA70277D017F601216051222DA120036E2
:100DA0001222907D017F21121605BFFA0B7F0112DE
:100DB00018D27817A607800280001222DA7817E688
:100DC0006455600F78CA7601D2B7539DF2C2B0C2A3
:100DD000B2C2B3D2AF78CAE6B4012478D106E6181D
:100DE000700106D378D1E694D018E694074018C273
:100DF000B7D2B0D2B2D2B3439D0DE478CAF622E4A2
:070E000078D0F608F6C2B736
:010E070022C8
:101A32001222907D017F20121605BFFB02801A7DC3
:101A4200017F1D1216051222DA1200361222907D33
:101A5200017F21121605BFFB081222DAE4787FF615
:0E1A6200227F011218D2787FA6071222DA2204
:10043E001803530049004E004F002000570045009E
:10044E0041004C00540048000004030904200348F6
:10045E0000410049004C00550043004B0020004372
:10046E00004F002E002C004C0054004400001A03D4
:10047E0055005300420020004B0045005900420039
:10048E004F004100520044000058572D5450555013
:10049E00444154415F5456332D55532D48312D3020
:1004AE00392D30300012011001000000088A250D90
:1004BE000000010102000105010906A1010507194D
:1004CE00E029E71500250175019508810295017552
:1004DE0008810195037501050819012903910295FB
:1004EE00057501910195067508150026FF00050793
:1004FE0019002AFF008100C005010902A101850132
:10050E000901A1000509190129051500250175012B
:10051E0095058102750395018101050109300931A7
:10052E0009381581257F750895038106050C0A3853
:10053E000295018106C0C00601000980A101850255
:10054E002501150075010A81000A82000A830095B3
:10055E0003810695058101C0060C000901A10185E4
:10056E00032501150075010AB5000AB6000A6F00D1
:10057E000A70000AE2000AA2000AE9000AEA0095DF
:10058E000881020A83010A94010A86010A88010A77
:10059E008A010A92010AB7000ACD00950881020A63
:1005AE0021020A23020A24020A25020A26020A2727
:1005BE00020A2A020AB10295088102C00501090C3D
:1005CE00A10185091500250109C695017501810650
:1005DE0075078103C00600FF0901A10185061500FC
:1005EE0025FF1A01002A0F047508960F04B102C0E8
:1005FE000600FF0901A1018505150025FF19012936
:10060E000575089505B102C009023B00020100A064
:10061E00320904000001030101000921100100014B
:10062E002241000705810308000A090401000103A5
:10063E0000000009211001000122100107058203AC
:10064E0008000AFF0EA7FF14A2FF231AFF183EFF91
:10065E00231AFF1FD8FF0AB8FF231AFF215EFF1FC0
:10066E0015FF1DF2FF1BD0FF231AFF231AFF123FA7
:10067E00FF17F1FF1D97FF231AFF231AFF231AFFFF
:10068E00231AFF231AFF0F39FF15ADFF1D67FF2336
:10069E0099FF239FFF235AFF0FC2FF229FFF22AE17
:1006AE00FF2399FF2399FF2326FF2331FF23A5FF65
:1006BE0023ABFF2399FF1F58FF1C06FF23B1FF2317
:1006CE00B7FF23BDFF2363FF23C3FF23C9FF0066CC
:1006DE00FF236CFF23CFFF006EFF2375FF23D5FF93
:1006EE001C3CFF23DBFF2399FF22BDFF2399FF2331
:0A06FE0099FF2399FF19A9FF13E9E2
:100CB70053DBEFD213AF75EF75F003A424C0F582B1
:100CC700E43406F583740193FA740293F922757676
:100CD7000275EB0143B91075E90643EC01227576FD
:100CE70001E4F5EB43B90875E90143EC01228557A7
:100CF70082855683E493757800F579757407221415
:100D0700F5828C83E493F5EA0F22C3E57B9408E52B
:100D17007A94002275770874F8257BF57B74FF3584
:100D27007AF57A22F583740193FA740293F9021320
:100D37001BE493427C75750F757601E42243EF043B
:100D470053EFFE22E56345624561220557E557AC3F
:090D570056227B007A00795C222F
:0D22F400E576C394064003E4F576AF76224C
:101FB9008F77E4FDFCEFFBC3ED9B7480F86C9850C0
:0E1FC9000D745C2DF8A6ED0DBD00010C80E737
:011FD70022E7
:1021E900200302D322E55C64A16008E55C64A26077
:0521F90002D322C32205
:1021FE00200302D322E55C64216008E55C64226062
:05220E0002D322C322EF
:06239300E4F576F5B92225
:101D370043C067E4F5A3F5A2F5A5F5A6F567F57227
:101D470085F355C2AF53968E122385438702758E4E
:101D57005500000043F3207F1A12203253F3CF229D
:1010C900E4F549E5DF30E103E4F5DFE5DF30E26B24
:1010D90053DFFB1223850567AF67EFC3957040584F
:1010E900300349E56C7008E57E656460028016E4AA
:1010F900FF74AB2FF974802FF8E64742490FBF12EE
:10110900F0E54960095396BFE4F567D2AB22E4F5EF
:101119009543F310E5A4B4FF0D75A0FFE4F580F540
:101129009075B00D8003122190121D37E4F5954397
:0E113900F310122190121D37D2AB22E4F5DF25
:011147002285
:10104800C2AFE5EF54186007E5EF20E46E8066E56F
:10105800EE64087060AFEE121FB9120D44E5EF2080
:10106800E459E4F5B953DB67F576F5755322F0F5E5
:1010780074F5E9F567E55C546024E0601B24207092
:1010880037E55DC3940D5033AF5DEF75F003A424CD
:1010980051F582E434068015E55DC3940C501CAF0D
:1010A8005DEF75F003A42478F582E43406120CCAC7
:1010B80012131B8006120D4412231A53EFFBD2AFF2
:0110C8002205
:100EA700E56264026003020F35E5636003020F35F4
:100EB700E55C247F601414602A2402706FE5A47037
:100EC70004F5EA804675EA028041E5616002805ECA
:100ED700E5601460050470098021300302801C80DE
:100EE7004D804BE56160028045E5602480600C140D
:100EF700600E14601B248270318000E4F5EA801CC8
:100F070030030BE5E45402C313F5EAE4800E801EB8
:100F1700300315E5E75402C313F5EAE4F5EA7576FD
:100F27000275EB02120CDB22800480028000122380
:020F37001A227C
:1014A200E55F7052E55C24FE601024027046E55E42
:1014B200B401057575038032803CE561455E70328A
:1014C200E5602480600F146011146018248270207B
:1014D20075750480157575058010300305757506E0
:1014E2008008801230030775750A120CE522800607
:0A14F20080048002800012231A22F9
:10183E00E5634562455F703FE55C700CE55EB401A3
:10184E00057575078029802FE55C64027027E561B8
:10185E00455E7021E560547F601B300318E560B46F
:10186E0081057575088008E560B4820775750B12E1
:0B187E000CE5228002800012231A22D9
:101FD800E5624563455F455C7011E55EC3948050DA
:0F1FE8000A855E73757501120CE52212231A2209
:100AB800E55C64806009E55C64816003020BC8E55D
:100AC8005F546024E07003020B5424206003020B7F
:100AD800C6E55CB48103020BC8E55F24FE60191407
:100AE800602824027064757800757912755604754B
:100AF80057B3757401020BBF75780075793B75564D
:100B080006755716757402020BBFE55E146016145D
:100B1800601F2403602714702F75560475575712E9
:100B28000CF5020BBF75560475575B120CF5020BDA
:100B3800BF75560475577C120CF5020BBF75560429
:100B480075573E120CF5806F80768074E5617005EC
:100B5800E55CB480028069E560702DE55F24DE60A5
:100B6800140470227578007579097556067557282A
:100B78007574038042757800757941755604755708
:100B8800C575740480318038E5606401702EE55FB6
:100B980024DE60140470237578007579097556068B
:100BA800755741757405800F7578017579107556FC
:100BB800057557067574060211C48004800280000A
:040BC80012231A22B8
:10215E00E562B40110E563700CE55CB48007856838
:09216E00EA120CD52212231A22F8
:101F1500E5634562455F455C7014E5F26010E55E7A
:101F25006005E55EB40107757502120CE522122302
:021F35001A226E
:101DF200300326E56345617020E5626401701AE5EF
:101E02005C64817014E56070028006E560B40107CD
:0D1E1200E4F5EA120CD522800012231A22FA
:101BD00030032F120D4B455F455E7026E55C6401B6
:101BE0007020E5607008757509757601800CE560F8
:101BF000B4010D75750C757601E4F5EB120CDB2262
:061C0000800012231A22ED
:10123F001221E9406BE561701DE5607019E55E7084
:10124F0015E55FB4020EE5585407F5EA7576027599
:10125F00EB018020804AE55E6405701CE55FB403F6
:10126F001775EA0578A4E6F5EA78BDE6F5EA75762E
:10127F000275EB03120CDB22E55EB40621E55FB4C9
:10128F00031CE562B41017E563B4041275560475B8
:10129F00579775780075791B7574080211C4800013
:0412AF0012231A22CA
:1017F1001221E94044E5634561703CE56264017092
:1018010036E5607009E55E70308569EA8021E56042
:101811006401702190231693B55E0778A7E6F5EA77
:10182100800D902317E493B55E0978A8E6F5EA12D6
:0D1831000CD52280048002800012231A22B0
:101D97001221E94025E5634561701DE56264017024
:101DA70017E5607005856BEA8008E560B401078573
:0E1DB70071EA120CD5228002800012231A223B
:100F39001221FE5003020FBEE561707CE563703437
:100F4900E5629408502EE56054FE7026E55E456022
:100F5900700AE55FB402057575128037E55EB40560
:100F69000FE55FB4030AE562B406057575168023BB
:100F790080438041E56364047020E5626410701A5F
:100F8900E56064017014E55EB4060DE55FB403081D
:100F99007575177576048015801BE5607015E55E1B
:100FA900700FE55FB4020A757512757605120CE8C3
:090FB900228002800012231A229A
:1015AD001221FE404F120D4B7048E5607009E55E4B
:1015BD00704275750D8010E56064017033E55E70E5
:1015CD000B437C0375750F757601801E902316E411
:1015DD0093B55E0890230E120D38800E902317E4FC
:1015ED0093B55E0A90230F120D38120CE922800478
:0815FD008002800012231A2273
:101D67001221FE4027120D4B455F701EE56070087B
:101D770075750E757601800CE560B4010B757510ED
:101D8700757601E4120CE9228002800012231A22E0
:0623990053EFFBD2AF225E
:06239F00120CBC02131B2E
:09235A0043EC0253EFFBD2AF2269
:100FC200E57B457A6070120D114005120D1B8008F9
:100FD200857B77E4F57AF57BE577604FE574604BC6
:100FE200E57464087031E57B457A702BFFE5772460
:100FF200FEFEEFC39E500C120D5270020556120DEA
:101002000680EA787FE6FEC4540F2430F5EAEE54F7
:101012000F2430F5EA8014E4FFEFC39577500C12E9
:101022000D5270020556120D0680EE8577EB120CFA
:10103200DB2012118008301109C211E4F5EB43ECF8
:05104200012243EC0255
:011047002286
:0F229F00E5DB30E406120CB702131B1223932267
:0F22AE00E5DB30E406120CB702131B1223932258
:0B23260053DBEFD213E4F574022393A5
:0B23310053DBEFD213E4F5740223939A
:0623A500120CBC02131B28
:0623AB00120CBC02131B22
:101F58008573F2E4F56853E4F753E7F7E5F26008B0
:101F68005320F043208480065320F043208202232C
:011F780093D5
:101C0600855E68E568601453E4FD43E40C53E7FD24
:101C160043E70C5320F0432088801853E4F753E73A
:101C2600F7E5F260085320F043208480065320F045
:061C36004320820223930B
:0623B100E4F5A4022393F1
:0623B70053EFFD02239329
:0623BD0053ECFD02239326
:0923630053E4FD43E40C02239352
:09236C0053E7FD43E70C02239343
:0623C30075A4FF02239344
:0623C90043E40E02239321
:0623CF0043E70E02239318
:03006600022393DF
:03006E00022393D7
:09237500855F69855F6A0223930C
:101C3C00E57C5403FFBF0314E4FF74A72FF8A65FE1
:101C4C0074A92FF8A65F0FBF02F08017E57C30E077
:101C5C000A78A7A65F78A9A65F800878A8A65F78FF
:061C6C00AAA65F0223930B
:0623D500855E6B022393FC
:0623DB00855E71022393F0
:0F22BD00E576B40409E55C5407F5581223932223
:1019A900E55C6405703CE55DB47518E56145604525
:1019B9005F455E702DC2AF745A75F0A512001ED234
:1019C900AF801FE55DB4A00678A4760B8014E55DB1
:1019D900B4A10678A5A65E8009E55DB4A304787F65
:0519E90076F1022393DA
:1013E900E55CB4061CE55EB4CC17E55FB4CC12E548
:1013F90062B4CC0DE563B4CC08120D5912114880C2
:1014090038E55C64EE702AE55E64CC7024E55FB46F
:10141900CC1FE560B4CC1AE561B4CC15E562B4CC57
:1014290010E563B4CC0B120D59121148E4F576801E
:0D14390008120D597D08121E1FE4F5B9229E
:10204F00C2AF43EF041222F4EF75F003A4249CF502
:0D205F0082E43406120D2B53EFFBD2AF22AA
:10138A00C2AFE5EF30E402802943EF04E5EE6027BF
:10139A00E5EEC39409400E120D4443EC0243EF02FA
:1013AA00122393801DAFEE121FB953EFFEE5EF3003
:1013BA00E41553DBF7800B53EFFEE5EF30E40853F7
:1013CA00DBF753EFFB80121222F4EF75F003A4242B
:0F13DA00AEF582E43406120D2B53EFFBD2AF2297
:1011C400AF63EFFEAD627C00E42DFFEC3EFE75766E
:1011D40002F57A8F7BE574600FC3E5799FE5789E0D
:1011E400500685787A85797B120D11400DE5766479
:1011F400026005E576B404020576E57B54077004C5
:10120400D2118002C211120D114005120D1B80086B
:10121400857B77E4F57AF57BE5776018E5746014EF
:10122400E4FFEFC39577500C120D5270020556126D
:0A1234000D0680EE8577EB120CDB4F
:01123E00228D
:0C231A0043EC0243EF02E4F576F5B92233
:04001E00023F00227B
:101A7000122227E478CAF678CEF608F678D0F6086F
:101A8000F678CCF678C9F6122385C2B712099612F9
:101A90002301200305E4F52180ED300B0AC20B126F
:0E1AA000233C121EA280E0300CDDC20C80D967
:10222700755B1475D3CE53DAF753DAFD75D4A07501
:03223700A8882252
:0D23010043DD0643A95B43A88053D0E722CB
:0B233C00E5696006D56A0385696A2226
:10206C00E57EB5640BE4F564F57E30090EC20922F9
:0C207C000564E564540FF56412070822A7
:101EA200539EF8E55830E006C2C1D21A8004D2C16E
:101EB200C21AE55830E104C2C08002D2C0E55830EF
:081EC200E203C2C222D2C222D7
:10085E0002010129012B02020139000001350000BD
:10086E00040006000114011D0104014A011E0000CE
:10087E0002080601011A011B0116014D011F00009D
:10088E000204060201080106010700000120000013
:10089E0006030604011501190109014B012100008F
:1008AE000000060501170105010A060601220000D7
:1008BE00012C0800011C0111010B014E0123000047
:1008CE000240080101180110010D00000124000072
:1008DE0000000802010C0136010E0607012500007A
:1008EE000210000001120137010F00000126000066
:1008FE000000000001130138013300000127000041
:10090E0001500148012F022001340000012D00008A
:10091E00015101460130060801280165012E000033
:10092E00014F0000013101520000014C012A00006C
:10093E000000000000000000000000000000094957
:10094E000000000000000000000000000000000099
:10095E000000000000000000000000000000000089
:10096E000000000000000000000000000000000079
:10097E003AB43BB73CB642B33DBF3EC045FE43B270
:08098E0044BC3F0B400E410C7C
:0622ED0001DF0001DE002C
:101B9900F583E493FDA20AE433FF22A20AE433FFAA
:101BA900AD1422E51425E0247FF582E4340922E509
:101BB9001425E02491F582E4340922E51425E02472
:071BC90090F582E4340922CB
:1007080074942564F8E6FFC3949040030208537577
:10071800F002EFA4245EF582E5F03408F583E49353
:10072800F51575F002EFA4245FF582E5F03408F5BD
:1007380083E493F514E5157003020853121F79E555
:1007480015B40409300A04D2268002C226300A757C
:10075800E515B402030207D2E515B401030207DD6B
:10076800E515B403030207ECE515B405030207F722
:10077800E5156406702130261B121BACF583E49343
:10078800FDB4FE09302403C22422D22422A20AE4A2
:1007980033FF805302080CE5156408701530260DE8
:1007A80078DE7601120854121BB8020817121BC40F
:1007B800805DE51564096003020853302604A20A27
:1007C8008016020849E515B40206121BA402225E2F
:1007D800E515B4010AA20AE433FFAD1402083BE5AB
:1007E80015B40306121BA4021AAEE515B4050612C9
:1007F8001BA4020850E51564067019121BAC121BE5
:1008080099121AAEE51425E0247EF582E434091223
:100818001B99801FE5156408701C78DEE66005E406
:10082800F6120854121BB8121B9912165A121BC43E
:10083800121B9902165AE515B40910121BA41216B8
:0B0848005AA20AE433FF7D0212214493
:0B08530022A20A33FF7D0812225E2261
:10165A00EF601FE4FE74BF2EF8E6700974BF2EF81F
:10166A00A605D2222274BF2EF8E66D60370EBE069A
:10167A00E422E4FE74BF2EF8E66D7024EEC39405EE
:10168A005017AF06EFC39405500F74C02FF8E6FC4D
:10169A0074BF2FF8A6040F80EBE478C4F6D2222296
:0416AA000EBE06D09A
:0116AE002219
:101AAE00ED2450131313541FFE53061F0EED54074F
:101ABE0090230E93FBFCEF601074C52EF8E65C705D
:101ACE001A74C52EF8E64C800F74C52EF8E65C60CD
:0B1ADE000A74C52EF8EBF456F6D22176
:011AE90022DA
:10225E00D222EF600678BEE64DF622EDF478BE5639
:02226E00F62256
:10214400EF600A78C5E65D7010E64D800978C5E653
:0A2154005D6006EDF456F6D220227D
:1017A300E5E430E348E5E45403704230223FC222CB
:1017B300E59630E4045396EF22C2AF78BEE6F5E235
:1017C300E4F5E230080AFF75E2010FBF06F9800D68
:1017D300E4FF74BF2FF8E6F5E20FBF06F5D2AF754D
:0D17E300E30843E40185696AE4F567F572E7
:0117F00022D6
:10191A00E5E730E342E5E75403703CE5727038309E
:10192A002011C220C2AF75E50278C5E6F5E575E675
:10193A0002801A302121C221C2AF75E50378C6E6BA
:10194A00F5E508E6F5E508E6F5E575E604D2AF4300
:08195A00E701E4F567F57222D4
:101E4B004004012010080280F7FEFDBFDF7FEFFD8D
:101E5B00FBF7EFDFBF7FFEFBFEFD02020202020279
:0C1E6B0002010101010101010102030359
:0E22CC00E553901E539322540790230E932245
:1017530020094C121321300F028041E55470177495
:10176300802553F8A6660553E553C394125001220E
:101773000554E4F5532274802553F8E66566600248
:10178300801A0553E553C39412500122121B5F9232
:10179300083008028006200903121AEA1223E12204
:10219000E4F59CF59BF59AF59D7580FF7590FF75AC
:0721A000A0FFD2B4D2B5226A
:10217700E4FEFDEE25E0FEED901E4B935F6003430A
:0821870006010DBD08EDAF06D5
:01218F00222D
:10132100122190E553C39412505AE553901E6593D0
:10133100FFC39404504AEF64026045EF7007122224
:10134100CCF5808020E553901E6593B401071222ED
:10135100CCF59080101222CCB4EF06C2B4D2B58085
:1013610004D2B4C2B512238C85A06612238CE56623
:10137100B5A0F2AFA0122177EFF4F566C20F800697
:09138100D20F8002D20F0221906C
:101B5F00E4FFFE74802EF8E6FD5FFCED4207EC60BB
:101B6F0023C3135455FDEC54552DFC13135433FD5F
:101B7F00EC54332DFCC4540FFDEC540F2DD39401B2
:091B8F004002D3220EBE12CBC3AA
:011B9800222A
:0623E100E4F554F553225F
:101AEA00E4F516F51674AB2516F8E6FF748025168C
:101AFA00F8E6FEB507028019EE6FFFAD16120BCCA1
:101B0A0050012274802516F8E6FF74AB2516F8A654
:0A1B1A00070516E516C3941240CB30
:011B2400229E
:040BCC008F108D11E8
:100BD000E4F51374802511F8E6F512E4FF43138061
:100BE000E51325E004F513C20AE51230E702D20A44
:100BF000E51225E0F512E51020E70EBF0702C3223B
:100C0000E51025E0F510020CABE51025E0F510E548
:100C100011C394124002D322057EE57E540FF57E67
:100C2000E51133333354F84FFE7494257EF8A6064D
:100C3000E57E1222D3FE200A15E57E30E308EEF4AD
:100C4000789356F68016EEF4789256F6800EE57E8E
:100C500030E304789380027892E64EF6E57E656490
:100C60006007EF64077044C322EFC394075017E591
:100C70001325E0F51330D7047E0180027E00EE25B7
:100C800013F5130F80E374802511F8E51356F674FD
:100C9000802511F974AB2511F8E513F45647F715C3
:100CA0007EE57E540FF57ED209C3220FEFC3940870
:060CB0005003020BDDD32E
:010CB600221B
:101F7900E56430E3091222D3789356FF8009E564BA
:101F89001222D3789256FFEF7003C38001D3920ACD
:011F99002225
:100E270002223AE493A3F8E493A34003F68001F285
:100E370008DFF48029E493A3F85407240CC8C333CC
:100E4700C4540F4420C8834004F456800146F6DF9B
:100E5700E4800B01020408102040809022E7E47E22
:100E6700019360BCA3FF543F30E509541FFEE49390
:100E7700A360010ECF54C025E060A840B8E493A357
:100E8700FAE493A3F8E493A3C8C582C8CAC583CA82
:100E9700F0A3C8C582C8CAC583CADFE9DEE780BE3A
:0122F30000EA
:1012B300BB010689828A83E0225002E722BBFE0239
:0912C300E32289828A83E493226C
:1012CC00BB010CE58229F582E5833AF583E02250D7
:1012DC0006E92582F8E622BBFE06E92582F8E22221
:0D12EC00E58229F582E5833AF583E493223B
:1012F900F8BB010DE58229F582E5833AF583E8F02B
:10130900225006E92582C8F622BBFE05E92582C8D6
:02131900F222BE
:06131B008A838982E4735D
:00000001FF
