:0C271D00010204081020408003020301A8
:10267B00C2AF53D0E71227A81220DE300703121285
:02268B004222E9
:0727A10075D4A075A8882281
:1020DE00E59630E104D21B801EE59630E20512260D
:1020EE00D58017E59630E305122250800DE5963027
:1020FE00E0051224408006122556E4F5960227A824
:10255600759D0DE4F52B1227A81226E61227A87FF3
:0A2566006E12245E1227A102231A50
:1026D5001227A81226E61223617520827FCA0200FE
:0126E5005E96
:10236100E4F5F2753C7D753D7D753E01FF74952F59
:10237100F8E4F674972FF8E4F60FBF02F075440104
:012381002239
:10244000E59630E4067545191227A1E5F354CA4410
:0E245000C2FF12005E1220AC53968E0225BC15
:1020AC0030032EE4F53FE5E430E00353E4FEE5E7CE
:1020BC0030E01E53E7FEE53890272593F5E5E5382B
:1020CC0090272793FFEF6006E4F5E51F80F743E7C1
:0120DC000102
:0120DD0022E0
:102250001227A843C067759E6075F381120036127D
:10226000268DEF20E504EF30E6E675F301759E60FC
:0B2270007F6212245E1227A102255697
:0721CA0002100000011200E9
:03000300020026D2
:03002600C2A8323B
:03000B0002000AE6
:01000A0032C3
:0300130002002EBA
:03002E00C2AA3231
:03001B000224B408
:1024B400C0E0C0F0C083C082C0D075D008121985B6
:0B24C400D0D0D082D083D0F0D0E03226
:0300230002004692
:03004600C2AC3217
:03002B0002004E82
:03004E00C2AD320E
:0300330002005672
:03005600C2AE3205
:030043000224CFC5
:1024CF00C0E0C0F0C083C082C0D075D01812159F75
:0B24DF00D0D0D082D083D0F0D0E0320B
:03004B000224EAA2
:1024EA00C0E0C0F0C083C082C0D075D01812159F5A
:0B24FA00D0D0D082D083D0F0D0E032F0
:03005300020006A2
:0400060053A9FB32CD
:03005B0002250576
:10250500C0E0C0F0C083C082C0D075D01812247B53
:0B251500D0D0D082D083D0F0D0E032D4
:0300630002252053
:10252000C0E0C0F0C083C082C0D075D0181219E6D8
:0B253000D0D0D082D083D0F0D0E032B9
:03006B0002000E82
:04000E0053A9DF32E1
:0300730002253B28
:10253B00C0E0C0F0C083C082C0D075D01812151D8A
:0B254B00D0D0D082D083D0F0D0E0329E
:03007B000200166A
:0400160053A97F3239
:10198500E4F594759355152EE52E7052E512D39412
:101995000040330511E511700205106450451070C3
:1019A5002CF510F511539EF87814E6FF7004B2C0BB
:1019B5008010EFB40104B2C18008EFB40204B2C0D4
:1019C500B2C115128007E4F512F510F511D20B75A9
:1019D5002E14300309E545D3940040021545D20C79
:0119E50022DF
:0F26E6001225D41227A8122774E4F5950222A416
:1025D400E4F5A8F5A9F5DCF5DDF5B8F5B9F5DAF516
:0625E400DBF5DEF5DF224D
:1022A400E4F59AF59BF59C759D0D759E60F5A4F576
:1022B400A2F5A3F5A553A6F87580FF7590FF75B038
:0822C400FF75A0FF43C00722D3
:09277400122079121FA00225EACF
:10207900E4FF742F2FF8E4F60FBF08F6E478ACF606
:10208900FF74AD2FF8E4F60FBF06F6E4FF74B32F23
:10209900F8E4F60FBF04F6E4F522752120F524785B
:0220A90017F628
:0120AB002212
:101FA000E4F527F5267881F618F6F539F538F55178
:101FB000F537F53BF53FF540F541F542F543F5447E
:101FC000F545786DF6789376FC7892F678D4F678C5
:071FD000D5760378BAF62272
:1025EA007F12786EE4F608DFFC1227567F10788295
:0525FA00E4F608DFFC1F
:0125FF0022B9
:092756007F127899E4F608DFFC1B
:01275F002257
:0727A800E4F594759355223E
:10268D001227A81226408F63122640E563B507F086
:01269D00FF3D
:01269E002219
:102640001227A885C0641227AFE564B5C0F2E5641F
:032650005460FFD4
:012653002264
:10231A00C2AF1227A8439E6075F301752001301BD6
:10232A001375F341122361D207D21BD219C2187F47
:05233A00C212005E224A
:03005E008FF322FB
:10245E00C2AF75D3FC75D4F053DAF7EF600E1227C6
:0D246E00A8E5DA30E3F853DAF71F80EF221B
:0727AF000000000000002201
:0D003600000000000000000000000000229B
:102600001200360000000000000000000000000082
:06261000000000000022A2
:1037FB000211A3000075F0A5C2AF759355E5962095
:10380B00E16230E228E520B44123B52420E521B460
:10381B004B1BE522B44916E523B4521101D5759E15
:10382B006075C07F9037FEE493645A60EF9037FB6E
:10383B00E493B402E7E4F5F0900000758107F5D04E
:10384B000237FB903FBA78207906E5F0B4A5FDE48A
:10385B0093F608A3D9F9E4F51DF51EF51F9037FF74
:10386B0093F52722114E741420C5B330C6B01470D3
:10387B00F7F59EF8741475C0DFD8FE30C6A075C07E
:10388B00BFD8FE20C59875C0FFD8FE30C590B40ACE
:10389B0002F51DB41103751E09B40602F51F7593CD
:1038AB0055D5E0D2D8FE20C50520C60221A67581CC
:1038BB002775C09F7512057D377CFE745AB1BEC249
:1038CB00C5D1C5D2C5D1C530C5F575935575812701
:1038DB00E4F5D0759E6075C07FE596540A600A7555
:1038EB00F301114ED1CF75F3C2513075F3CA7594F4
:1038FB0003E520B441FD652470FE20AFFD759355A3
:10390B00E5DB30E03B53DBFEE5EF5418701C7153E5
:10391B00BB082043EF0453EFFEE5EF20E41571E500
:10392B00516420330E53EFFB01FC20E40E43EF04F4
:10393B0053EFFE43EC0243EF0271F153EFFB01FC3B
:10394B0030E10553DBFD211330E31F53DBF753EF5E
:10395B00FB20300471612170E510B40106E50AF516
:10396B00F2600071F153EFFB01FC30E42C53DBEF01
:10397B00E5EF20E41443EF04203104E5EE700E5321
:10398B00EFFE71F153EFFB01FCD233213E71534338
:10399B00EF0453EFFE71AD218F01FCC2C67594038A
:1039AB00758127513075120575C0FF75935520C56C
:1039BB00FA30C607C2C620C5EF21C174025122B42A
:1039CB003310511DFC511DFDBD5ADDEC70DAF11B9E
:1039DB0021B3B4551679087A08511DF709DAFA792B
:1039EB00087A08E7B1C409DAFA21B3B466FD913756
:1039FB0070FE7A08D18D759355D375C0FF30C5FD18
:103A0B0020C5FD3392C6C370F430C5FDC2C6DAE4DF
:103A1B0021B375C0FF740130C5FD20C5FDA2C633AF
:103A2B0050F5C2C622E4F596F5F2F5267818F6D8CD
:103A3B00FDF5A8F5A9F5DCF5DDF5B8F5B9F5DAF581
:103A4B00DBF5DEF5DFF595F59AF59BF59CF59D1409
:103A5B00F580F590F5A0F5B0227B00E5087012D249
:103A6B0030E509B4050474014187B4095DF52241C1
:103A7B008620E759D230E509B40A09E48BEBF5103F
:103A8B0043EC0122B40943E508B4213EE50BB40233
:103A9B000474024187B403329100B4050CBE062AAC
:103AAB00BF002774047E044187B4060CBE021BBF03
:103ABB00081874067E004187B4410FB5250C913769
:103ACB0060021161B11974084187D23322D23120BF
:103ADB00E534E509B406F3E50B30E502941B60EA27
:103AEB00B4080050E523F8903FAA93FC7D3FE8040F
:103AFB0093FE7F00E50F7009C3EE950E4003E50EB4
:103B0B00FE7512416192B4A1C1D509BEE50BB40398
:103B1B00B99100B40519BE06B1BF00AE7A04E51326
:103B2B00B452A77B028512EA75EA721E1E6185B438
:103B3B00060ABE0295BF08927A066129B4418BB57D
:103B4B0025889137708461927808E5EEF9FB600562
:103B5B00A6ED08D9FB22E5106010EF7008EE600BA4
:0D3B6B00B40802D234E510B405092210346C
:103B780001227B004186B4070E7A087B0071FB7135
:103B88009E912E74074187B409E37198740941879F
:103B9800B1187A087B00EE4F600AEA6007D18DF50C
:103BA800EA0BDAF222E510B40220E509F4551130E7
:103BB800E21453F3F7759E6075C07F11615130753B
:103BC800F301D1C5013885091122B40406910D7B92
:103BD800004186B4060281D7B408EEA101E453DBA4
:103BE80067F5E953ECFD53EFFDE4F510F512F52602
:103BF800D23722AC14AD1522AC0CAD0DAE0EAF0F02
:103C0800E50AF51222E508B405FAE509B477028158
:103C18001BF513B4521E91376008E50BB4FC0C7504
:103C28000A00AC0AAD0B8C148D1522E4F51322E5BD
:103C38002764A522B45706913770F0812AB4560933
:103C4800912AEC4D70E5F51822B47727E513B4579F
:103C5800B371FB7A04790AEE4F600BE513B4570889
:103C6800E7B1C409DAF1812ED18D67600474EE42A0
:103C78001880F0B44116E50AB44B11E50BB4490CB1
:103C8800E50CB45207E50DB44102F52554DFB445FF
:103C98003DE50AB4450D630B4F630C4C630D43912E
:103CA800CCE11BB45A087CFE7D37E50BA1BEB4A558
:103CB80007B5271A7CFF81B0B4FF069137700FA1B2
:103CC8002CB4050A850B1D850C1E850D1F2222E5C7
:103CD8001354FEB4561F103708EB7908FA71FB81AC
:103CE8005FE5096420B5130DE508B40608790AEB09
:103CF800C3940250E775130022EB6014B408004027
:103D0800027408FA7908EE4F6006E7B1C409DAF6DA
:103D180022913770FBEDB45AF7ECB4FE047455A148
:103D28003CB4FF0474AAA13C543CF5F775BE007579
:103D3800BF0074E6F5B3759355751C05E512B40517
:103D480055851CB4751C0A851DB5851EB6E5B3B42A
:103D5800E61AE5F724C8502B8030E5BEB4030050BE
:103D680022048380023800B5BF20A18BB46E14E50D
:103D7800F760E724C8500C24F9500F700DE5BE24F5
:103D8800415007851FB700000000E4F5B3F5B4F50E
:103D9800B5F5B6F5B722B40602A149B441F7A14971
:103DA800EE70011F1E227D007C017438B1BE7400C4
:103DB800B1BE7C007402F5BF8DF7C110F5BFE512E6
:103DC800B44102C108BDFC0A75F73FEC44C0F5BE1A
:103DD800C112ED700FECB40300502575F73724FBC2
:103DE800F5BEC112B4FF09303016EC20E712C11934
:103DF800B43800501CB43708BCFA004003BCFA11B0
:103E0800EDB440005026F5F78CBE746EB13C75F7E2
:103E180000B1A8C1B7B4FE07ECF8E5BFF6C119B404
:103E2800FD08ECF875F700E5BFF2C119B4FFE6EC40
:103E380033745A4001C48CBEC114E583700CE5820A
:103E4800B40300504B9037FBC18AB4FF0A303140AD
:103E5800E58220E73BC186B4FC1575833FEC30E76B
:103E68000644C0F582C1895403FC2418F8C1ADB4D6
:103E78003800500AB43719E582B4FA004012903776
:103E8800FAE493C1B7B1A88C828D83E512B441AA34
:103E9800E583B440005004E493C1B7B4FF02C1B64F
:103EA800B4FE05A882E6C1B7B4FD04758300E00C32
:103EB800BC00090DBDFD011DBD00011D22D1C7D8E3
:103EC800FE759355D9F9227806E4F6D8FD7F40753A
:103ED8001205D18D29F950050ABA00010B759355C1
:0D3EE800BD40EF891B8A1A8B19E94A4B6017
:103EF50006BB3F06BAC0037527A522C2AF53F3F729
:103F0500759355758127B45AFDE4F5D0F5F3759E83
:103F15006075C07F01EA74381454FCFAB130EA7058
:103F2500F7B1AEB1AEC1CF12011001000000080318
:103F35000620100103000000010403090409022200
:103F450000010100A032090400000103010100097C
:103F550021100100012248000705810308000A0518
:103F6500010906A1018507050895087501190129AB
:103F7500089102C00600FF0901A10185051500256C
:103F8500FF1901290575089505B102C00600FF094D
:103F950001A1018506150025FF1A01002A010875F2
:103FA50008960108B102C02C1242223E044B095D5D
:103FB5000754096448414B49524100000000000084
:103FC50000000000000000000000000000000000EC
:103FD50000000000000000000000000000000000DC
:103FE50000000000000000000000000000000000CC
:0B3FF5000000000000000000000000C1
:03000000023800C3
:1011A300000000E59620E10B20E20E20E30B20E097
:0F11B30008800078FFE4F6D8FD7581D80211FDA1
:1023E30002A00003A001AA02A00203A0020002A00F
:0F23F3000302A00503A0030003A006EEA0081A32
:1021D10001B80001B90002BB000002BD000001B757
:0721E1000001D50301D40049
:10169B00902401E493FF7B007A0079AB75690122FA
:1016AB00902401E4937A2379E49023E3FF7BFFE416
:1016BB0093F56922E6FDC413135402FFEDC45407DE
:1016CB00FB75680022902401E493FF7BFF2278C016
:1016DB00E6C45403F5E508E6F5E508E6F5E52278FA
:1016EB00D6EFF6D2AF789222AB5EAA5FA9609000DC
:1016FB00031217C290000422900005121795FF7D6C
:02170B000122B9
:100975007893E6240F6076147003020A0724FE704C
:1009850003020A1A147003020A52147003020A9130
:10099500147003020A2D24FA7003020A91240D60D3
:1009A50003020A9CC2AF12185378D6EFF6D2AF6491
:1009B500FA703278ABE67892602776E0C2AF12160D
:1009C500D07A2379FF756902121E2C902401E493D5
:1009D500FF7B007A00796475690C121AFAD2AF8030
:1009E5000876D08004789276D0789376F1C2AF12EB
:1009F5001C541216EABFFA0476E1800276D1789388
:100A050076F2C2AF121CA81216EABFFA0476E2808B
:100A15003776D28033C2AF12216E1216EABFFA04BE
:100A250076E4800276D48020C2AF902401E4937AE4
:100A35002379F89023F71216B7121E2C1216EABF67
:100A4500FA0476E7800276D7789376FC22C2AF1255
:100A55001E73EF64FA702A90240193FF7BFF7A23BB
:100A650079FC9023FBE493F569121E2CBFFA1078EC
:100A7500ABE67892B4010476E5800A76D5800680E7
:100A850000789276D5789376FCD2AF22E478ABF6EF
:070A9500789376FC7892F6DD
:010A9C002237
:10185300C2AF1226547D017F20121923BFFA0E7DD9
:10186300017FD11219237D017F0512192312269FAF
:10187300D2AF439D0D7F1612245EE478ABF678D782
:10188300F61216AB121E2C78D8EFF6BFFB028017A8
:1018930012169B121AFA78D8EFF6BFFB028008786B
:1018A300ABE660037FFA227F0512245E78D706E653
:0718B300C394C840CC7FFB89
:0118BA00220B
:101C54001216D07A2379E79023E6121C9CBFFB036B
:101C64007FFB227F0512245E1216D07A2379EB9033
:101C740023EA121C9CBFFB037FFB2212169B121A41
:101C8400FA78D7EFF6BFFB037FFB2278ABE6645507
:071C940060037FFB227FFAD1
:0D1C9B0022E493F569121E2C78D7EFF62293
:101CA8001216D07A2379EE9023ED121CF0BFFB03B5
:101CB8007FFB227F1912245E1216D07A2379F290C4
:101CC80023F1121CF0BFFB037FFB2212169B121A92
:101CD800FA78D7EFF6BFFB037FFB2278ABE66455B3
:071CE80060037FFB227FFA7D
:0D1CEF0022E493F569121E2C78D7EFF6223F
:100CB5008B5E8A5F8960900001121795242F602E44
:100CC5001460492402707490000274A01217C29037
:100CD50000037414120D7CEF64FA700F9000021279
:100CE5000D6C120D4112170312192312269F74342D
:100CF5001216F374A01217C290000574181217C2C9
:100D0500122654120D4112170302192312269F743D
:100D1500A01216F374041217C290000574EE120D9A
:100D25007CEF64FA7012900003120D90900004128B
:100D35000D90900005120D6C12269F22AB5EAA5FE6
:100D4500A960900003121795FF7D01121923AB5E70
:100D5500AA5FA960900004121795FF7D011219235F
:100D6500AB5EAA5FA96022AB5EAA5FA96012179568
:100D7500FF7D01121923221217C212265490240155
:100D8500E49325E0FF7D0112192322AB5EAA5FA93A
:0B0D950060121795FF7D011219232248
:10216E001216D07A2379F59023F4E493F569121EB2
:10217E002C78D7EFF6BFFA1312169B121AFA78D7ED
:0D218E00A60778ABE6B455037FFA227FFB6D
:01219B002221
:101E7300E478ABF678D7F61216AB121E2C78D8EFAF
:101E8300F6BFFB02801712169B121AFA78D8EFF6E8
:101E9300BFFB02800878ABE660037FFA227F05125E
:0D1EA300245E78D706E6C3940840CC7FFB90
:011EB000220F
:10265400439D051227AF539DFEC2B0122600539D21
:04266400FBC2B222E1
:10269F00539DFEC2B01227AF439D04122600439DE7
:0226AF00012206
:10192300E4F56BFEEF30E705439D018005539DFE13
:10193300C2B0000000000000439D04EF25E0FF005B
:101943000000000000000000000000539DFBC2B235
:101953000EBE08D0000000000000000000000000E0
:10196300439D01000000000000439D041227AFA225
:10197300B0E433FD539DFBC2B2BD01037FFB227F65
:01198300FA69
:011984002240
:101BAA00E4F56B439D01FE439D04E56B25E0F56B6F
:101BBA00A2B0E433426B0000000000000000000005
:101BCA000000539DFBC2B2000000000000000000AC
:101BDA000000000EBE08D0EF6005439D018005534A
:101BEA009DFEC2B01227AF439D041227AF539DFB3F
:041BFA00C2B2AF6B59
:011BFE0022C4
:101E2C008F658B668A678968122654E56525E0FF05
:101E3C007D01121923BFFA23AF691569EF6022AB3C
:101E4C0066AA67A96812177CFF7D01121923740119
:101E5C002568F568E43567F56780DD12269F7FFB02
:071E6C002212269F7FFA22DB
:081AFA008F658B668A6789681D
:101B0200122654E56525E04401FF7D01121923EFF9
:101B120064FA701CF56AE56914FFE56AC39F50090F
:101B2200E4FF121B3E056A80ED7F01121B3E800618
:0B1B320012269F7FFB2212269F7FFAE5
:101B3D0022121BAAAB66AA67A968856A8275830003
:051B4D00EF1217C22297
:1012DF0078CFE6FF5407FE7005EF54186078EEC321
:1012EF009401500778CFE65418606B78C1E6FEC4BE
:1012FF0013135402FF78CFE65407FDEE1216C8758C
:10130F006900756ABFE6FEC4135401F56B121041F4
:10131F0078CFE6FE5407C39402403B78C51216BF40
:10132F00756900756AC31213669403402978C91250
:10133F0016BF756900756AC7121366940440177853
:10134F00CD1216BF756900756ACBEEC4135401F543
:10135F006BE4FD12104122EEC4135401F56BE4FD52
:0B136F0012104178CFE6FE5407C322A5
:061041008F658D668B67D0
:10104700E4F56CE5E730E306E5E7540360051227AE
:10105700A880F03024030210F678D5E6FF54037019
:10106700030210F678CFE654186007EF30E10375F6
:101077006C01C2AF75E51E78D5E630E04CAB68AAC7
:1010870069A96AAE02AF01EF4E603EE566C454F04F
:10109700FFE56CC433333354804FFFE56725E02504
:1010A700E04F4565456BF5E5900001121795F5E5AD
:1010B70012177CF5E5900003121795F5E5900002ED
:1010C700121795540FF5E58015E56CC43333335487
:1010D700804401F5E5E4F5E5F5E5F5E5F5E5E4F545
:0F10E700E5F5E5D2AF75E60843E701F53AF545C3
:0110F60022D7
:10227B00E5E730E306E5E7540360051227A880F095
:10228B00202415C2AF75E5011216D9D2AF75E6043D
:09229B0043E701E4F53AF54522A0
:1022F400E5E730E306E5E7540360051227A880F01C
:10230400202412C2AF1216D9D2AF75E60343E701F7
:06231400E4F53AF5452254
:100F68007564051223C478B7E6703BE53E600578E2
:100F7800BAE6701478B9E6602D121027BFFB030299
:100F880010217D017F1C801278B9E66019121027A4
:100F9800BFFB030210217D017F1F12192312269F18
:100FA800D2AFE478B9F620B37578B7E6707012104E
:100FB80034BFFB0280637D017F5512192312269FDF
:100FC800120036E53E600578BAE67005756405805E
:100FD800037564157B007A0079BF8564697F1012F8
:100FE8001AFAEF64FA702378BBF608F6D2AFE53E3A
:100FF800B4011478D4E6701278BAE6700512227B30
:1010080080081212DF80031222F4121034BFFB0290
:0E10180080077D017F1E12192312269FD2AF82
:1010260022C2AF1226547D017F2012192322C2AF9D
:0B1036001226547D017F201219232296
:1023C40078B7E6B4011878BE06E618700106D3782B
:0F23D400BEE694D018E694074004E478B7F622EA
:101EB1001226547D017F20121923BFFB02801A7D57
:101EC100017F1D12192312269F1200361226547DFE
:101ED100017F21121923BFFB0812269FE4786DF6BA
:0E1EE100227F01121BAA786DA60712269F22EF
:10007E001803530049004E004F0020005700450062
:10008E0041004C00540048000004030904200348BA
:10009E0000410049004C00550043004B0020004336
:1000AE00004F002E002C004C0054004400001A0398
:1000BE0055005300420020004B00450059004200FD
:1000CE004F004100520044000058572D4E3134303D
:1000DE00315F414E5F5054505F4D423237375F545F
:1000EE0056332D55532D48312D30312D30300012D1
:1000FE00011001000000088A251E00000101020007
:10010E000105010906A101050719E029E7150025DA
:10011E000175019508810295017508810195037598
:10012E0001050819012903910295057501910195A3
:10013E00067508150026FF00050719002AFF008125
:10014E0000C005010902A10185010901A1000509EF
:10015E0019012903150025019503750181029501E9
:10016E00750581030501093009311581257F750853
:10017E0095028106C0C0050D0905A101851E092243
:10018E00A102150025010947094295027501810258
:10019E009501750225030951810209542507950120
:1001AE007503810205090901250175019501810279
:1001BE00050115002678057510550E6511093035A7
:1001CE000046E00195018102269203464001093165
:1001DE008102C0A102550C66011047FFFF000027E7
:1001EE00FFFF000075109501050D09568102050DE2
:1001FE00851F0955095975049502250FB102050D84
:10020E00852509607501950115002501B102950737
:10021E00B1030600FF852009C5150026FF007508ED
:10022E00960001B102C0C0050D090EA1018522097B
:10023E0022A10209521500250A75089501B102C0C6
:10024E000922A10085230957095875019502250138
:10025E00B1029506B103C0C00601000980A1018557
:10026E00022501150075010A81000A82000A830029
:10027E009503810695058101C0060C000901A101B7
:10028E0085032501150075010AB5000AB6000A6F2F
:10029E00000A70000AE2000AA2000AE9000AEA0057
:1002AE00950881020A83010A94010A86010A8801CF
:1002BE000A8A010A92010AB7000ACD009508810246
:1002CE000A21020A23020A24020A25020A26020A27
:1002DE0027020A2A020AB10295088102C005010905
:1002EE000CA10185091500250109C695017501812D
:1002FE000675078103C00600FF0901A101850615D9
:10030E000025FF1A01002A0F047508960F04B1028A
:10031E00C00600FF0901A1018505150025FF190181
:10032E00290575089505B102C020FC28FE8440CB36
:10033E009A870DBE573CB670098807972D2BE33868
:10034E0034B66CEDB0F7E59CF6C22E841BE8B451C2
:10035E0078431F284B7C2D53AFFC47701B596F748D
:10036E0043C4F34718531AA2A171C7950E315521F4
:10037E00D3B51EE90CBAECB889193EB3AF75819DA1
:10038E0053B94157F46D3925297C87D9B498457DE9
:10039E00A7269C653B856889D73BBDFF1467F22B6A
:1003AE00F02A4154F0FD2C667CF8C08F331303F114
:1003BE00D3C10B89D91B62CD51B780B8AF3A10C1EA
:1003CE008A5BE88A56F08CAAFA35E942C4D855C33E
:1003DE0038CC2B535C6952D5C87302387C73B64146
:1003EE00E7FF05D82B799AE234608FA3321F097884
:1003FE0062BC80E30FBD65200813C1E2EE532D866B
:10040E007EA75AC5D37D98BE31481FFBDAAFA2A88E
:10041E006A89D6BFF2D3322A9AE4CF17B7B8F4E17D
:10042E003308248BC443A5E524C209023B00020114
:10043E0000A032090400000103010100092110018E
:10044E0000012241000705810308000A090401008A
:10045E00010300000009211001000122E701070538
:10046E00820308000AFF140DFF1AA0FF2729FF1DA3
:10047E0099FF2729FF2421FF0A9DFF2729FF258A9F
:10048E00FF233FFF21F7FF1FD7FF2729FF2729FF54
:10049E000BB1FF1D4CFF219CFF2729FF2729FF27AA
:1004AE0029FF2729FF2729FF0E8BFF1B52FF213E15
:1004BE00FF27BCFF27C2FF277DFF1497FF27C8FF2A
:1004CE0027CEFF27BCFF27BCFF2735FF2740FF277E
:1004DE00D4FF27DAFF27BCFF2382FF200DFF27E082
:1004EE00FF27E6FF27ECFF2786FF27F2FF27F8FFFF
:1004FE000066FF278FFF27FEFF006EFF2798FF275E
:10050E0060FF2043FF276AFF27BCFF26B1FF27BCF1
:0C051E00FF27BCFF27BCFF1A45FF137A23
:1010F70053DBEFD213AF48EF75F003A424E2F58278
:10110700E43404F583740193FA740293F922754960
:101117000275EB0143B91075E90643EC01227549E5
:1011270001E4F5EB43B90875E90143EC0122852A8F
:1011370082852983E493754B00F54C75470722E6B2
:10114700F5EA75490275EB022214F5828C83E49364
:10115700F5EA0F22C3E54E9408E54D940022754A3F
:101167000874F8254EF54E74FF354DF54D22F5837D
:10117700740193FA740293F90217E4E493424F75EA
:10118700480F754901E42243EF0453EFFE22E53689
:0C1197004535453422052AE52AAC292202
:0D270300E549C394064003E4F549AF4922BF
:102402008F4AE4FDFCEFFBC3ED9B7480F86C98509F
:0E2412000D742F2DF8A6ED0DBD00010C80E716
:012420002299
:10261600200302D322E52F64A16008E52F64A2609F
:0526260002D322C322D3
:10262B00200302D322E52F64216008E52F6422608A
:05263B0002D322C322BE
:0627B600E4F549F5B9222B
:10210E0043C067E4F5A6F5A3F5A2F5A5F53AF545A6
:10211E0085F328C2AF53968E1227A8438702758E79
:10212E005500000043F3207F1A12245E53F3CF2292
:10151D00E4F562E5DF30E103E4F5DFE5DF30E26EAF
:10152D0053DFFB1227A8053AAF3AEFC39543405B53
:10153D0030034CE53F7008E551653760028016E4D5
:10154D00FF74992FF9746E2FF8E64742620FBF12A0
:10155D00F0E56260095396BFE4F53AD2AB22E4F5AB
:10156D009543F310E5A4B4FF1075A0FFE4F580F5E5
:10157D009043B00D53B0CF80031225BC12210EE461
:10158D00F59543F3101225BC12210ED2AB22E4F5D2
:01159D00DF6E
:01159E00222A
:10159F00C2AFE5EF54186007E5EF20E46E8066E513
:1015AF00EE64087060AFEE12240212118EE5EF2088
:1015BF00E459E4F5B953DB67F549F5485322F0F5E3
:1015CF0047F5E9F53AE52F546024E0601B242070BD
:1015DF0037E530C3940D5033AF30EF75F003A424CB
:1015EF0073F582E434048015E530C3940C501CAFBE
:1015FF0030EF75F003A4249AF582E4340412110A33
:10160F001217E4800612118E12272953EFFBD2AF67
:01161F0022A8
:10140D00E53564026003021493E5367079E52F2407
:10141D007F601414602A2402706AE5A47004F5EA52
:10142D00804675EA028041E53460028059E5331447
:10143D0060050470098021300302801C80488046BD
:10144D00E53460028040E5332480600C14600E1496
:10145D00601B2482702C8000E4F5EA801C30030BA5
:10146D00E5E45402C313F5EAE4800E80193003104D
:10147D00E5E75402C313F5EAE412114712111B22DA
:0A148D00800480028000122729224B
:101AA000E5327052E52F24FE601024027046E531C5
:101AB000B401057548038032803CE534453170320D
:101AC000E5332480600F14601114601824827020A4
:101AD0007548048015754805801030030575480663
:101AE0008008801230030775480A121125228006EB
:0A1AF00080048002800012272922E2
:101D9900E53645354532703FE52F700CE531B40124
:101DA900057548078029802FE52F64027027E534DF
:101DB90045317021E533547F601B300318E533B496
:101DC90081057548088008E533B4820775480B1208
:0B1DD900112522800280001227292221
:10242100E53545364532452F7011E531C39480506D
:0F2431000A8531467548011211252212272922EA
:100A9D00E52F64806009E52F64816003020BADE5ED
:100AAD0032546024E07003020B3924206003020BE2
:100ABD00ABE52FB48103020BADE53224FE601914B2
:100ACD00602824027064754B00754C1275290075F1
:100ADD002AFD754701020BA4754B00754C3B75291A
:100AED0004752A38754702020BA4E53114601614FB
:100AFD00601F2403602714702F752900752A971223
:100B0D001135020BA4752900752A9B121135020BA4
:100B1D00A4752900752ABC121135020BA475290084
:100B2D00752A7E121135806F80768074E5347005DC
:100B3D00E52FB480028069E533702DE53224DE6047
:100B4D0014047022754B00754C09752904752A4AD9
:100B5D007547038042754B00754C41752901752A07
:100B6D000F75470480318038E5336401702EE5320E
:100B7D0024DE6014047023754B00754C097529042F
:100B8D00752A63754705800F754B01754CE77529FF
:100B9D0001752A50754706021620800480028000D8
:040BAD0012272922C0
:10258A00E535B40110E536700CE52FB48007853BBC
:09259A00EA121115221227292270
:10233F00E53645354532452F7014E5F26010E5312D
:10234F006005E531B40107754802121125221227E5
:02235F00292231
:1021F700300326E53645347020E5356401701AE56D
:102207002F64817014E53370028006E533B401074B
:0D221700E4F5EA1211152280001227292299
:101FD70030032F121195453245317026E52F6401E4
:101FE7007020E5337008754809754901800CE533A1
:101FF700B4010D75480C754901E4F5EB12111B226C
:06200700800012272922CF
:100BB1001226165003020CB1E534701FE533701B89
:100BC100E5317017E532B4020FE52B5407F5EA75EC
:100BD100490275EB01020C8A020CB1E53164057022
:100BE1001BE532B4031675EA057892E6F5EA78ABAF
:100BF100E6F5EA75490275EB03020C8AE531B406A4
:100C010021E532B4031CE535B41017E536B40412FE
:100C1100752900752AD7754B00754C257547080253
:100C21000CACE531641F7015E532B40310E533B443
:100C3100010B75EA1F75EA04121149804CE5316414
:100C4100257014E532B4030FE533B4010A75EA25C2
:100C510078D41211468032E53164227014E532B441
:100C6100030FE533B4010A75EA2278BA12114680FE
:100C710018E53164237016E532B40311E533B4018C
:100C81000C75EA2378D512114612111B22E531B4F5
:100C9100201CE532B40317E533B401127401F54B9E
:100CA100F54C752903752A37754705021620800012
:040CB10012272922BB
:101D4C001226164044E5364534703CE53564017086
:101D5C0036E5337009E5317030853CEA8021E53396
:101D6C006401702190272593B531077895E6F5EA43
:101D7C00800D902726E493B531097896E6F5EA12A2
:0D1D8C0011152280048002800012272922F8
:10219C001226164025E5364534701DE53564017070
:1021AC0017E5337005853EEA8008E533B4010785F1
:0E21BC0044EA12111522800280001227292207
:100E8B0012262B5003020F64E5346003020F67E553
:100E9B00367071E5359408506BE53354FE7063E59D
:100EAB00314533700BE532B40206754812020F421E
:100EBB00E531B4050FE532B4030AE535B406057523
:100ECB0048168073E531B4220AE532B40305754840
:100EDB00168064E531B4230AE532B4030575481670
:100EEB008055E531B41F0AE532B403057548168009
:100EFB0046E531B4250AE532B4030575481680374B
:100F0B0080578055E53164067020E5326403701A12
:100F1B00E53664047046E53564107040E5336401D2
:100F2B00703A7548177549048027E531B4200EE5F2
:100F3B0032B40309754816754904E48014E533701F
:100F4B0016E5317010E532B4020B75481275490580
:0D0F5B00E4121129228002800012272922B1
:101B520012262B404F1211957048E5337009E5317A
:101B6200704275480D8010E53364017033E53170C1
:101B72000B434F0375480F754901801E902725E4DA
:101B820093B5310890271D121182800E902726E40A
:101B920093B5310A90271E12118212112922800454
:081BA2008002800012272922B5
:10213E0012262B40271211954532701EE53370087A
:10214E0075480E754901800CE533B4010B754810C6
:10215E00754901E4121129228002800012272922DA
:0627BC0053EFFBD2AF2237
:0627C2001210FC0217E4F6
:09277D0043EC0253EFFBD2AF2242
:10149700E54E454D607012115B40051211658008DD
:1014A700854E4AE4F54DF54EE54A604FE547604BFA
:1014B700E54764087031E54E454D702BFFE54A243A
:1014C700FEFEEFC39E500C12119C700205291211EB
:1014D7005080EA786DE6FEC4540F2430F5EAEE54E6
:1014E7000F2430F5EA8014E4FFEFC3954A500C123D
:1014F700119C7002052912115080EE854AEB1211DA
:101507001B2012118008301109C211E4F5EB43ECDE
:05151700012243EC027B
:01151C0022AC
:0627C8001210F70217E4F5
:0627CE001210F70217E4EF
:0B27350053DBEFD213E4F5470227B698
:0B27400053DBEFD213E4F5470227B68D
:0627D4001210FC0217E4E4
:0627DA001210FC0217E4DE
:102382008546F2E4F53B53E4F753E7F7E5F26008DC
:102392005320F043208480065320F04320820227FA
:0123A200B684
:10200D0085313BE53B601453E4FD43E40C53E7FDA0
:10201D0043E70C5320F0432088801853E4F753E72F
:10202D00F7E5F260085320F043208480065320F03A
:06203D004320820227B6D9
:0627E000E4F5A40227B697
:0627E60053EFFD0227B6CF
:0627EC0053ECFD0227B6CC
:0927860053E4FD43E40C0227B604
:09278F0053E7FD43E70C0227B6F5
:0627F20075A4FF0227B6EA
:0627F80043E40E0227B6C7
:0627FE0043E70E0227B6BE
:030066000227B6B8
:03006E000227B6B0
:0927980085323C85323D0227B672
:10204300E54F5403FFBF0314E4FF74952FF8A63242
:1020530074972FF8A6320FBF02F08017E54F30E0D8
:102063000A7895A6327897A63280087896A63278B1
:0620730098A6320227B618
:0A27600085313E78B976010227B6F4
:0A276A0085314478B976010227B6E4
:1026B100E549B4040CE52F5407F52B301303122719
:0226C100B6223F
:101A4500E52F64057031E530B47518E53445334547
:101A55003245317022C2AF745A75F0A512001ED2FC
:101A6500AF8014E530B4A0067892760B8009E53096
:101A7500B4A1047893A631E52FB4230478D5A63014
:101A8500E52FB4250678D4A630800DE52FB42208BD
:0B1A950078BAA63078B976010227B6B7
:10137A00E52FB4061FE531B4CC1AE532B4CC15E535
:10138A0035B4CC10E536B4CC0B7B007A00792F1239
:10139A000CB5806BE52F64EE702DE53164CC7027B7
:1013AA00E532B4CC22E533B4CC1DE534B4CC18E52F
:1013BA0035B4CC13E536B4CC0E7B007A00792F1203
:1013CA000CB5E4F54980387D01AF2F1219237D0150
:1013DA00AF301219237D01AF311219237D01AF32CB
:1013EA001219237D01AF331219237D01AF3412196B
:1013FA00237D01AF351219237D01AF36121923E47B
:03140A00F5B9220F
:10247B00C2AF43EF04122703EF75F003A424BEF59C
:0D248B0082E4340412117553EFFBD2AF222E
:1019E600C2AFE5EF30E402802943EF04E5EE60275D
:1019F600E5EEC39409400E12118E43EC0243EF024A
:101A06001227B6801DAFEE12240253EFFEE5EF302B
:101A1600E41553DBF7800B53EFFEE5EF30E4085394
:101A2600DBF753EFFB8012122703EF75F003A424B4
:0F1A3600D0F582E4340412117553EFFBD2AF22C6
:10162000AF36EFFEAD357C00E42DFFEC3EFE754994
:1016300002F54D8F4EE547600FC3E54C9FE54B9E8D
:101640005006854B4D854C4E12115B400DE54964AB
:10165000026005E549B404020549E54E54077004EB
:10166000D2118002C21112115B400512116580086F
:10167000854E4AE4F54DF54EE54A6018E54760149D
:10168000E4FFEFC3954A500C12119C700205291219
:0A169000115080EE854AEB12111B89
:01169A00222D
:0C27290043EC0243EF02E4F549F5B9224D
:04001E00023F00227B
:0221E800C1280C
:1012420012266878B77601E478BBF608F678BDF620
:1012520008F61226547D017FA01219237D01E4FFB6
:1012620012192312269F1226547D017FA1121923DF
:101272007F01121BAA7817A60712269F7817E6B4D9
:10128200FF02E4F61227A8122710200305E4F52135
:1012920080F212170D121DE4756312E563600715E3
:1012A20063121CFC80F5122498786DE6B4F109E40F
:1012B200F6C2AF121EB1D2AF7892E67005120F6875
:1012C2008003120975300B0EC20B12274BE5127008
:0D12D200B31222CC80AE300CABC20C80A752
:10266800752E1475D3CE53DAF753DAFD75D4A075E9
:03267800A888220D
:0D27100043DD0643A95B43A88053D0E722B8
:0B274B00E53C6006D53D03853C3D22C7
:10249800E551B5370BE4F537F55130090EC209227D
:0C24A8000537E537540FF53712052A22DE
:1022CC00539EF8E52B30E006C2C1D21A8004D2C16D
:1022DC00C21AE52B30E104C2C08002D2C0E52B301B
:0822EC00E203C2C222D2C222A9
:1008150000000000000000000000000000000208C9
:10082500024000000000000000000000000002047B
:100835000000000007000139010401160400000052
:1008450000000106011B01070114012B011E0135E2
:10085500000001090108011A011F012006000929EC
:100865000119010A01170115012101220C3C06019C
:100875000000010B0A00011C01230A010602060300
:1008850000000A020A030A040A050A060604060508
:1008950000000A070A080A090A0A000007010702F8
:1008A5000A0B0A0C012F0000012D000007030704A5
:1008B50001050136013400000000012E0000070586
:1008C5000000000001110A0D0000000000000000FA
:1008D500012C0A0E00000000013000000706000090
:1008E50002020000000000000000000000000220DD
:1008F500070707080000070901280131070A00005A
:1009050002010000000000000000000000000210CD
:1009150000000000000000000000000000000000D2
:1009250000000000000000000000000000000000C2
:100935003AA53BA63E813D7F40FE3F801D64425364
:100945004149444843474553504A4F4D514E524BF8
:100955002A4C185C245F0E5A0D590C5D25602661E2
:100965000F5B1356125E27551062335737633854A1
:0C21EA0001160001130001150001140093
:1018BB00E56425E02441F582E43409F583E49322C1
:1018CB00F583E493FDA20AE433FF22A20AE433FF7B
:1018DB00AD6422E56425E02435F582E43409F58313
:1018EB00E493FD22E56425E02458F582E4340922D3
:1018FB00E4F510F5117817E622E56425E02436F5BA
:10190B0082E4340922E56425E02442F582E43409BB
:08191B0022E4F510F511EF22A2
:10052A0074822537F8E6FFC3949040030207E37507
:10053A00F002EFA42415F582E5F03408F583E4937C
:10054A00F56575F002EFA42416F582E5F03408F596
:10055A0083E493F564E56570030207E31223A3E5D8
:10056A0065B40409300A04D2268002C226200A038E
:10057A00020723E565B4020CE564B408047815762D
:10058A0001020731E565B4010302073CE565B403DE
:10059A0003020747E565B40503020752E5656406E9
:1005AA007020302617121904F583E493FDB4FE096E
:1005BA00302403C22422D2242202076A1218DE023D
:1005CA00076AE565640760030206B430260B121950
:1005DA0010F583E493FD02076A7815E670030206B4
:1005EA00AD1218BBB443047F0180027F00EF60297B
:1005FA00E47814F67817E6FF30E00B12191C54FE63
:10060A00F675120480091218FB4401F6751206D217
:10061A00C0D2C11207E412269F1218BBB444047F49
:10062A000180027F00EF6029781476017817E6FFCF
:10063A0030E10B12191C54FDF675120480091218C8
:10064A00FB4402F6751206D2C0D2C11207E4122682
:10065A009F1218BBB445047F0180027F00EF70032C
:10066A000207E3781476027817E6FF30E20B1219D4
:10067A001C54FBF675120480091218FB4404F67523
:10068A001206D2C0D2C11226547D017FA0121923AC
:10069A007D01E4FF1219237817E6FF7D0112192361
:1006AA0002269F1218BBFD02076AE565640A7029D3
:1006BA0030260B1218EFF583E493FD02076AE5640E
:1006CA0025E0301A051218F380072457F582E4341E
:1006DA0009F583E493FD02076AE5656409700A3047
:1006EA002605A20A0207B68049E565640C60030282
:1006FA0007E3302622E5E430E3FBE5E4540370F532
:10070A001207FF12170DE5E430E3FBE5E45403702A
:10071A00F512080A0207E08019E565B4020FE564DC
:10072A00B40804E47815F61218D60226C3E565B4AF
:10073A0001061218D60207BAE565B403061218D6DE
:10074A00021EEFE565B405061218D6022570E565A6
:10075A00640670141219041218CB121BFF1218DE49
:10076A00A20AE433FF0207BAE56564077011121999
:10077A00101218CB121BFF1218BB1218CF8031E5CA
:10078A0065640A70191218EF1218CB121BFFE56480
:10079A0025E02457F582E434091218CB8012E56566
:1007AA00B409101218D6121BFFA20AE433FF7D66A1
:1007BA00021BFFE565640C7020A20A33FFAD6412C8
:1007CA001BFF12080A12170DE5E430E3FBE5E454B7
:0907DA000370F51207FF12170D60
:1007E300221226547D017FA01219237D01E4FF12FA
:1007F30019237817E6FF7D0112192322A20AE43395
:10080300FF7D081226C322A20AE433FF7D13121BC5
:02081300FF22C2
:101BFF00EF601FE4FE74AD2EF8E6700974AD2EF899
:101C0F00A605D2222274AD2EF8E66D60370EBE0601
:101C1F00E422E4FE74AD2EF8E66D7024EEC3940555
:101C2F005017AF06EFC39405500F74AE2FF8E6FCB4
:101C3F0074AD2FF8A6040F80EBE478B2F6D222220F
:041C4F000EBE06D0EF
:011C5300226E
:101EEF00ED2450131313541FFE53061F0EED54070A
:101EFF0090271D93FBFCEF601074B32EF8E65C7017
:101F0F001A74B32EF8E64C800F74B32EF8E65C60AB
:0B1F1F000A74B32EF8EBF456F6D22142
:011F2A002294
:1026C300D222EF600678ACE64DF622EDF478AC56F4
:0226D300F622ED
:10257000EF600A78B3E65D7010E64D800978B3E647
:0A2580005D6006EDF456F6D220224D
:10170D007817E6FE30E004C2B18002D2B1EE30E1CE
:10171D0004C2B68002D2B6EE30E204C2B78002D265
:10172D00B7E5E430E348E5E45403704230223FC2AC
:10173D0022E59630E4045396EF22C2AF78ACE6F57D
:10174D00E2E4F5E230080AFF75E2010FBF06F98009
:10175D000DE4FF74AD2FF8E6F5E20FBF06F5D2AF3D
:0E176D0075E30843E401853C3DE4F53AF5459B
:01177B00224B
:101DE400E5E730E342E5E75403703CE545703830FD
:101DF4002011C220C2AF75E50278B3E6F5E575E6B9
:101E040002801A302121C221C2AF75E50378B4E6FD
:101E1400F5E508E6F5E508E6F5E575E604D2AF4331
:081E2400E701E4F53AF545225F
:102224000102040810204080FEFDFBF7EFDFBF7FB2
:10223400FEFDFBF7EFDFBF7FEFDF000000000000D3
:0C22440000000101010101010101030380
:0E26F500E52690222C9322540790271D932255
:101CFC0020094C1217EA300F028041E52770177447
:101D0C006E2526F8A6390526E526C3941250012225
:101D1C000527E4F52622746E2526F8E6653960025F
:101D2C00801A0526E526C39412500122121F6692D2
:101D3C00083008028006200903121F2B12280422E7
:1025BC00E4F59CF59BF59A539D0D7580FF7590FF86
:0825CC0075A0FFD2B4D2B522C4
:1025A300E4FEFDEE25E0FEED902224935F600343FD
:0825B30006010DBD08EDAF06A5
:0125BB0022FD
:1017EA001225BCE526C39412505AE52690223E9350
:1017FA00FFC39404504AEF64026045EF7007122653
:10180A00F5F5808020E52690223E93B40107122642
:10181A00F5F59080101226F5B4EF06C2B4D2B58061
:10182A0004D2B4C2B51227AF85A0391227AFE53961
:10183A00B5A0F2AFA01225A3EFF4F539C20F8006C6
:09184A00D20F8002D20F0225BC6E
:101F6600E4FFFE746E2EF8E6FD5FFCED4207EC60C2
:101F760023C3135455FDEC54552DFC13135433FD54
:101F8600EC54332DFCC4540FFDEC540F2DD39401A7
:091F96004002D3220EBE12CBC39F
:011F9F00221F
:06280400E4F527F5262291
:101F2B00E4F564F56474992564F8E6FF746E256432
:101F3B00F8E6FEB507028019EE6FFFAD64120DA037
:101F4B00500122746E2564F8E6FF74992564F8A697
:0A1F5B00070564E564C3941240CB4F
:011F65002259
:040DA0008F658D6668
:100DA400E4F568746E2566F8E6F567E4FF43688049
:100DB400E56825E004F568C20AE56730E702D20A6F
:100DC400E56725E0F567E56520E70EBF0702C32266
:100DD400E56525E0F565020E7FE56525E0F565E549
:100DE40066C394124002D3220551E551540FF551C4
:100DF400E56633333354F84FFE74822551F8A60662
:100E0400E5511226FCFE200A15E55130E308EEF404
:100E1400788156F68016EEF4788056F6800EE55109
:100E240030E304788180027880E64EF6E551653738
:100E34006007EF64077044C322EFC394075017E5BB
:100E44006825E0F56830D7047E0180027E00EE2537
:100E540068F5680F80E3746E2566F8E56856F674E5
:100E64006E2566F974992566F8E568F45647F71512
:100E740051E551540FF551D209C3220FEFC3940821
:060E84005003020DB1D382
:010E8A002245
:1023A300E53730E3091226FC788156FF8009E537CB
:1023B3001226FC788056FFEF7003C38001D3920A84
:0123C30022F7
:1011C20002267BE493A3F8E493A34003F68001F2A2
:1011D20008DFF48029E493A3F85407240CC8C3332E
:1011E200C4540F4420C8834004F456800146F6DFFD
:1011F200E4800B01020408102040809021CAE47EA2
:10120200019360BCA3FF543F30E509541FFEE493F1
:10121200A360010ECF54C025E060A840B8E493A3B8
:10122200FAE493A3F8E493A3C8C582C8CAC583CAE3
:10123200F0A3C8C582C8CAC583CADFE9DEE780BE9B
:0121F60000E8
:10177C00BB010689828A83E0225002E722BBFE026B
:09178C00E32289828A83E493229E
:10179500BB010CE58229F582E5833AF583E0225009
:1017A50006E92582F8E622BBFE06E92582F8E22253
:0D17B500E58229F582E5833AF583E493226D
:1017C200F8BB010DE58229F582E5833AF583E8F05D
:1017D200225006E92582C8F622BBFE05E92582C809
:0217E200F222F1
:0617E4008A838982E47390
:00000001FF
